:020000040800F2
:1000000000180020490A000819070008350A0008EE
:10001000350A0008350A0008350A0008000000000B
:100020000000000000000000000000004D0B000870
:10003000350A000800000000190B0008F520000830
:10004000CD0C0008CD0C0008CD0C0008CD0C00082C
:10005000CD0C0008CD0C0008CD0C0008CD0C00081C
:10006000CD0C0008CD0C0008CD0C0008CD0C00080C
:10007000CD0C0008CD0C0008CD0C0008CD0C0008FC
:10008000CD0C0008CD0C0008CD0C0008CD0C0008EC
:10009000CD0C0008CD0C0008CD0C0008CD0C0008DC
:1000A000CD0C0008CD0C0008CD0C0008CD0C0008CC
:1000B000CD0C0008CD0C0008CD0C0008CD0C0008BC
:1000C000CD0C0008CD0C0008CD0C0008CD0C0008AC
:1000D000CD0C0008CD0C0008CD0C0008CD0C00089C
:1000E000CD0C0008CD0C0008CD0C0008CD0C00088C
:1000F000CD0C0008CD0C0008CD0C0008CD0C00087C
:10010000CD0C0008CD0C0008CD0C0008CD0C00086B
:10011000CD0C0008CD0C0008CD0C0008CD0C00085B
:10012000CD0C0008CD0C0008CD0C0008CD0C00084B
:10013000CD0C0008CD0C0008CD0C0008CD0C00083B
:10014000CD0C0008CD0C0008CD0C0008CD0C00082B
:10015000CD0C0008CD0C0008CD0C0008CD0C00081B
:10016000CD0C0008CD0C0008CD0C0008CD0C00080B
:10017000CD0C0008CD0C0008CD0C0008CD0C0008FB
:10018000CD0C0008CD0C0008CD0C0008CD0C0008EB
:08019000CD0C0008CD0C0008A5
:1001980053B94AB9002908BF00281CBF4FF0FF31E6
:1001A8004FF0FF3000F00CB8ADF1080C6DE904CE4B
:1001B80000F008F8DDF804E0DDE9022304B0704738
:1001C800704700BF2DE9F04786468C460846089ED2
:1001D800154674461946002B40F0C2808542B2FA93
:1001E80082F245D94AB1C2F1200300FA02FC2EFA84
:1001F80003F3954043EA0C0C94404FEA154EA8B21D
:10020800BCFBFEF8230C0EFB18CC08FB00F943EAF4
:100218000C43994528D9EB1808F1FF3704D29945C2
:1002280002D9A8F102072B44A3EB0903A4B2B3FB3C
:10023800FEFC0EFB1C330CFB00F044EA0344A04216
:1002480014D92C190CF1FF3304D2A04202D9ACF115
:1002580002032C44241A43EA07401EB1D440002369
:1002680034607360BDE8F0874746DDE76346F1E731
:1002780092BB431B01214FEA154EAFB2B3FBFEFC04
:10028800200C0EFB1C330CFB07F840EA034398458F
:1002980062D9EB180CF1FF3004D2984502D9ACF1C1
:1002A80002002B44A3EB0803A4B2B3FBFEFC0EFB35
:1002B8001C330CFB07F744EA0344A7424ED92C1918
:1002C8000CF1FF3304D2A74202D9ACF102032C444B
:1002D800E41B43EA0040C0E7C2F1200320FA03F11F
:1002E800954090402EFA03F303434FEA154EAFB200
:1002F800B1FBFEFC0EFB1C10190C0CFB07F841EAC5
:100308000041884504FA02F422D969180CF1FF303B
:1003180004D2884502D9ACF102002944A1EB0801B6
:100328009BB2B1FBFEFC0EFB1C110CFB07F743EA6A
:1003380001439F420ED9EB180CF1FF3104D29F42C2
:1003480002D9ACF102012B44DB1B41EA004192E7E0
:100358006046E3E76146F7E76046A3E76346B7E729
:10036800834206D916B9002108467BE7C6E900E0B2
:10037800F9E7B3FA83F78FB9834201D3724508D8F6
:10038800BEEB020460EB030301209C461EB900216A
:1003980068E73846FAE7C6E9004CF8E7C7F1200CE9
:1003A800BB4022FA0CF41C432EFA0CF120FA0CF391
:1003B800B84001434FEA14490EFA07F5B3FBF9F8C0
:1003C8001FFA84FE09FB18300B0C08FB0EFA43EAEF
:1003D80000439A4502FA07F240D9E31808F1FF30C2
:1003E80004D29A4502D9A8F102002344A3EB0A03D8
:1003F80089B2B3FBF9F809FB183308FB0EFE41EA92
:1004080003418E452CD9611808F1FF3304D28E457B
:1004180002D9A8F10203214443EA0040A0FB029854
:10042800A1EB0E014145CE46434602D306D14D45C8
:1004380004D2B9EB020E68EB04030138002EA6D0F3
:10044800B5EB0E0261EB030101FA0CFC22FA07F38B
:100458004CEA0303F940C6E9003198E74046C5E78E
:100468004346D9E7034613F8012B002AFBD1181A93
:1004780001387047084B1A691268920448BF80F027
:10048800010028B19B68DB6803484FF40051184706
:100498009B681B69F8E700BF48530008F8B5064693
:1004A800FFF7E0FF064F05460024AC4200DBF8BD2D
:1004B8003868315D8368DB6998470134F5E700BF28
:1004C8000804002010B52B4804F02CFC10B92A4869
:1004D80002F090FF274802698168136823F40053EB
:1004E80013600B684FF420220D219847002802DA88
:1004F800214802F07FFF214C206804F013FC20B94A
:100508001F4803F05FFA002010BD206883685B6A0B
:100518006BB31C499847583029D0206883681B68FA
:100528000BB91948EDE7194900229847011E0BDA63
:1005380011F1860F01D11648E3E711F1580FF0D0F9
:10054800144803F03FFADEE71348FFF7A7FF2068D7
:1005580083681249DC680A224FF47A73A0470F486F
:10056800FFF79CFF00210A2002F00EFDFAE76FF06A
:100578005700C9E7485300085E5B000808040020DC
:10058800655B0008945600087C5B0008A905000814
:10059800A45B0008C85B0008E95B0008280A002083
:1005A80010B50B78023B032B15D8DFE803F0021EC9
:1005B80028301F4C1F48FFF771FF2046FFF76EFFDA
:1005C8001D4A1368591CE35C1160312BA3F13000FC
:1005D80003D0022800D010BD0020FFF74BFF4FF0DA
:1005E8007833236063602381F5E71448FFF756FFEB
:1005F8000F48FFF753FF104B00221A60EBE7104833
:10060800FFF74CFFBDE810400948FFF747BF0D480A
:10061800FFF744FF0648FFF741FF0B4B1868836854
:100628000349DC680A22A4466423BDE810406047F9
:10063800280A00201C5C0008E80600202A5C000844
:10064800425C00085B5C000808040020014B1B6842
:10065800184700BF0C04002030B585B004460D468D
:1006680010220021684604F0A6FD02238DF802300E
:100678002A46044B01932146684602F0DBFE05B08A
:1006880030BD00BF55060008014B1860704700BF19
:100698000C04002080B505460E461746984602F021
:1006A80091FC034604F090FDDFF81890044649F8E1
:1006B8000030424630463946A84754F8090000F051
:1006C800D5F900BF08000000034A536823F002036D
:1006D80053600020704700BF002004E0064B1A68F2
:1006E80042F400721A601A6842F480621A60034B7E
:1006F800034A1A6000207047003C0240580400205A
:100708000024F400014B0360002070479C56000849
:1007180008B5034B1B689847BDE8084000F026B8A9
:100728001004002030BFFFF7FDBF00BF2DE9F041E6
:100738000B4EDFF8308006EB0807CC1B0546324627
:100748000949204604F029FDA01942460021083C29
:1007580004F031FD2C6707F10800BDE8F08100BF07
:10076800000000000400000084560008074A93684F
:1007780093F90E10002907DB526993421FBF044A00
:10078800536843F080535360704700BFF00900205E
:1007980000ED00E070B5264B15469A6A12F0100F6E
:1007A8009A6A14BF1124102412F0080F9A6A18BF0D
:1007B8001224920706460AD5586B9A6A140634D54D
:1007C80019B19A6A22F080029A62132401E06FF04C
:1007D8001500174B9A6A12F0010F9A6A18BF142471
:1007E80012F0200F9A6A18BF1524D20602D49B6A09
:1007F8009B070AD50E4B5B68190506D5314600F0F4
:1008080017FA10B180F309880224094B9A6A9206F4
:1008180042BF5A6A22F400525A629A6A42F0FF02B0
:100828009A6200232B70204670BD6FF01500CCE74C
:1008380000ED00E0134B9A6A12F0007F9A6A14BF29
:100848001E201D2012F0807F9A6A18BF1F2012F404
:10085800002F9A6A18BF212012F4802F9A6A18BFB5
:10086800222012F4003F9A6A18BF232012F4803F16
:100878009A6A6FEA02426FEA12429A6218BF24200B
:10088800704700BF00ED00E010B5194B0246986AAA
:100898009C6A10F4805F14BF1720162014F4006FB0
:1008A8009C6A18BF1820A40509D5986B986A00049B
:1008B80004D51AB19A6A22F400429A6219200C4BA4
:1008C8009A6A12F4806F9A6A18BF1A20D2050CD45B
:1008D8009B6A13F4005F18BF1C20054A936A43F40F
:1008E8007F43936200230B7010BD1B20F5E700BF08
:1008F80000ED00E0F0B5484B5B688BB00446C3F3ED
:100908000803002585F31188BFF36F8F02F07F403D
:10091800B0F17F4F11D102F00C0008280DD010075C
:100928004CBF0C4601250022033B8DF80720032B02
:1009380005D8DFE803F0246367602C46F3E700235B
:100948009DF80720CAB902AE04F120072068616843
:10095800324603C20834BC421646F7D1099A002D24
:1009680054D0C2F3080121B96FEA52226FEA422239
:10097800099202A9184603F033F80BB0F0BD264BD4
:10098800DA6A9107DBD4DA6A002AD8DBDA6A52001D
:10099800D5D55A69A16942F480725A61BFF34F8F65
:1009A800BFF36F8F5A6931F8021C22F480725A61C2
:1009B800BFF34F8FBFF36F8F4DF6027291420AD08B
:1009C8009A6AD2B24AB10DF1070201212046FFF717
:1009D800E1FE0346B4E72368B2E79A6A12F47F4F50
:1009E80005D00DF107010120FFF74EFFF1E79B6AE3
:1009F800B3F5803FA3D3FFF71DFFEAE70DF1070228
:100A08000021E3E70DF107010020EDE722F4FF7272
:100A180022F00102ACE700BF00ED00E0024A536992
:100A280043F010035361704700ED00E0EFF30880D6
:100A3800EFF3098101B57246FFF75CFF01BD00BF06
:100A4800102080F3118808484FF40461401880F39F
:100A58000988EFF314800221084380F31488BFF358
:100A68006F8F00F0A5F80000400A0020084B9B6833
:100A780083420BD1EFF3058343B1064B5A6842F02A
:100A880080525A605A6A22F400425A6204F0C5BA87
:100A9800F009002000ED00E0094A93686FF00A01B0
:100AA8009967084958674B6843F080534B600023A7
:100AB80083F31188BFF36F8F9368986F704700BFF7
:100AC800F009002000ED00E010B50446EFF31183B3
:100AD800102383F31288BFF36F8F0A4B586998600D
:100AE800094B4FF000625A60084B026F1A600022EF
:100AF800436F426783F31188BFF36F8F00F000F9EB
:100B0800204610BDF009002000ED00E0EC060020B2
:100B18000B498A684FF030001044EFF3098C80E8E5
:100B2800F01F74467046FFF7CFFFA64604498A684F
:100B380002F1300090E8F01F8CF30988704700003C
:100B4800F00900201EF0040F0CBFEFF30880EFF34C
:100B58000980816911F8021C0229FFD001B502F051
:100B680045FF01BD40B2002807DB044A41090123C3
:100B780000F01F00834042F82130704700E100E098
:100B880040B20028A8BF00F1604001F10101B8BFE0
:100B9800064B4FEA0111ACBF00F5614000F00F00B1
:100BA800C9B2B4BF195480F80013704714ED00E0BF
:100BB8000F4A08B50F4B22F07F029A60BFF34F8FA0
:100BC800BFF36F8FD3F8882022F47002C3F888200F
:100BD800EFF3148323F0040383F31488BFF36F8FB8
:100BE80001F0CCFC02F08CFA00F060F801F018FD7E
:100BF8000000000800ED00E042F8203C009B42F8AD
:100C08001C3C0A49019B42F8183C029B42F8143CE0
:100C180021F001014FF0807342F8043C42F8081CAF
:100C28000023203A02654367704700BF9D0600080D
:100C3800094A0346906870B113F1160F006E05D08B
:100C4800A0F140029A4205D8834203D2814228BFCC
:100C58000020704700207047F009002008B51546AD
:100C68000B4A0C4B9060026F1A600E4600F048F871
:100C78002C4686F309884FF00000074B984720461A
:100C88004FF000014FF000024FF00003034C2047E3
:100C9800F0090020EC060020053A00089D0600082F
:100CA800014B10221A61704700ED00E00448002350
:100CB8001021C2180133562B82F80013F9D170475E
:100CC80000E100E008B5EFF30583064A103B02EBAC
:100CD800C30152F8330049688847BDE80840FFF768
:100CE80045BD00BFD4530008024B034A0348012105
:100CF80000F076B800000220000000209C56000892
:100D0800026E054B403A1A60044A4021C3E90112B9
:100D18001846012100F06EB8F006002000000B15FF
:100D2800084AC2F898000B6823F01F03034343F0F6
:100D38001003C2F89C308B6843F00103C2F8A0305E
:100D4800704700BF00ED00E02DE9F043DFF8608058
:100D580085B00E461F4604464FF00009B14523DA18
:100D68006068D8B13FB1411E08421BD11F2819D96C
:100D78002368194216D12368019302F053FEA36831
:100D880003430393D8F89050C5F30725D0B2013D2B
:100D9800A84207D801A9FFF7C3FF421C09F10109BE
:100DA8000C34DBE76FF01502104605B0BDE8F083A0
:100DB80000ED00E0044B0522C3F89420BFF34F8FE9
:100DC800BFF36F8F704700BF00ED00E0BFF35F8F88
:100DD800024B0022C3F89420704700BF00ED00E0EA
:100DE80010B5034C01232278FFF7AEFF207010BD29
:100DF800320A002008B50B4A00231278FFF7A4FF37
:100E080010F1160F07D0084A0021D2F89030C3F32A
:100E18000723984200DB08BDC2F89800C2F8A0106A
:100E28000130F2E7320A002000ED00E02DE9FF4131
:100E3800524B534CD3F890302568C3F307239D4297
:100E480000F29980FFF7C2FF00200C26854218D1D6
:100E58004C4C4D4F25706846FFF754FCDFF81C8159
:100E680006460025AE4213D1237844490020D1F824
:100E78009020C2F30722934277DBFFF79BFF002005
:100E88001CE0616806FB0011FFF74AFF0130DDE74F
:100E9800009800EB05114FEA051CCB683B40B3F501
:100EA800000F50D00DD8B3F5001F36D0B3F5800F22
:100EB8003ED0B3F5801F13D06FF0150004B0BDE825
:100EC800F081B3F1807F47D0B3F1007FF4D150F8BF
:100ED8000C3088684A6802F0A5FD40F4802009E0DB
:100EE80050F80C3088684A6802F09CFD40F0885041
:100EF80040F43020CDE901230390D8F890302078D1
:100F0800C3F30723013B9842D6D801A9FFF708FF8E
:100F18002378013323700135A4E750F80C30886832
:100F28004A6802F07FFD40F0885040F40020E1E775
:100F380050F80C3088684A6802F074FD40F0E060B0
:100F480040F40030D6E750F80C3088684A6802F060
:100F580069FD40F08270CDE750F80C3088684A6827
:100F680002F060FD40F08870C4E7C1F89830C1F81D
:100F7800A00001337BE74FF0FF309FE700ED00E072
:100F8800A8560008320A00200000F0FF08B5024BFE
:100F98001B689847002008BDFC060020034B044A44
:100FA8001860937843F0020393707047FC060020A2
:100FB8001404002008B50649064821F00701C1F1CC
:100FC800005202F5003202F0BEFC002008BD00BF4E
:100FD800871C0020000700202DE9F0410F4E104F1C
:100FE800054600244FF001082B7853FA84F01F2897
:100FF8000DDC726908FA00F333EA020207D1736163
:1010080057F830301BB107EBC002516898476A782F
:101018000134E3B29A42E7D2BDE8F081003C0140D6
:101028000C070020044B184400230133994200F8B0
:10103800012BFADC704700BF6404002010B4064B93
:10104800064902460C6818560123934023430B6057
:1010580010BCFFF787BD00BF64040020003C0140BE
:101068001F2806DC034901220B68824023EA020399
:101078000B607047003C014003292AD8DFE801F0E3
:10108800020E141F134B01229968824021EA0201C3
:101098009960D96821EA0202DA6070470D4B012293
:1010A800996882401143F3E70A4B0122D9688240CC
:1010B8001143D960996821EA02029A6070470123B6
:1010C80003FA00F0034B9A6802439A60DA68104307
:1010D800D8607047003C014030B50A4B53F83040A7
:1010E8008C4204D103EBC0056D68954205D034B934
:1010F80043F8301003EBC0035A60002030BD6FF096
:101108000F00FBE70C070020034B002243F83020B8
:1011180003EBC0035A6070470C07002010B51B4B47
:1011280018680B68442B14461DD82F2B05D85A1E57
:10113800042A0DD96FF0850014E0A3F130010122D3
:101148008A4013490A420BD1402BF3D1400807E0EB
:10115800023B032B04D8DFE803F00216090F002036
:101168002060002010BDA82BFAD0E3E700F09CF81F
:10117800602380085843E9E700F096F86023800868
:1011880058438008ECE74FF4FA40E9E75804002098
:101198001101100070B5404C404D00F09BF801F073
:1011A80069F8A3683E4AC3F30313D35C20FA03F635
:1011B80013781D41AE4202D2284601F0CBF82368CD
:1011C80023F480232360236843F480332360324B65
:1011D8001A689203FCD55A6F42F001025A675A6F97
:1011E8009407FCD59A6802F00C02082A17D11A68ED
:1011F800900707D41A6842F001021A60264A136859
:101208009907FCD5244B9A6822F003029A609A68E1
:1012180012F00C0FFBD19A6822F0F0029A601E4C73
:10122800236823F080732360636823F4403363608A
:10123800636823F0706343F08063636000F038F8FC
:10124800236843F08073236023689B01FCD5A3685F
:1012580023F0F003A360A36823F0030343F0020321
:10126800A3600D4CA36803F00C03082BFAD1AE421F
:1012780002D3284601F06EF80A4B084A1A60A368A0
:1012880023F4E05343F48053A360A36823F460433A
:10129800A360002070BD00BF0038024000D8B80528
:1012A800935D0008580400200048704700127A0037
:1012B800054B06495A681140054A0A435A605A685C
:1012C80022F440325A607047003802400080BFFF65
:1012D80004184000064B1A6C42F080521A641B6CCA
:1012E80082B003F080530193019B02B0704700BFA6
:1012F8000038024008B5074803F014FD38B1064825
:10130800FFF74CFE0448FFF7BFF9002008BD6FF057
:101318001200FBE7AC530008251300080A2838B56B
:10132800074D044604D1AB680D21DB692846984770
:10133800AB680348DB69E1B29847204638BD00BF77
:10134800AC5300082DE9F04143681446D3E9048200
:101358008A4213D91C2508469E694D4300F050FA6D
:10136800084B1B5C434477195B689BB263607359F5
:101378006370BB7923700020BDE8F0816FF0150021
:10138800FAE700BFD25C000870B505464668154C00
:10139800204603F0C7FCF0B1A36820461B6831461D
:1013A80098470446D0B9B3682846984723461C2175
:1013B80020467269934208D32A69002313602A6978
:1013C80053602A699360204670BDB26901FB03220D
:1013D80001339071EDE76FF01204F4E76FF0040445
:1013E800F1E700BF945200082DE9F04F93B0D0F810
:1013F80004B001904FF01C0903A8DBF818A0DBF833
:1014080010700E46144609FB01F903F079FCDBF86D
:101418001420B2420AEB090505D86FF015084046BA
:1014280013B0BDE8F08FAA7912B16FF00F08F6E794
:101438003146384602F04EFC80460028F5D1019B23
:101448003146586802F05AFC628802F47E62B2F5AE
:101458007E6F09D10123AB716B71A3696B616369FD
:101468002B6185F81880DAE722695169B1F5803F68
:10147800D3D26178490704D19BF80C30002B00F0D7
:101488000D81A188E3888B42C7D1042B02D0013B90
:10149800012BC2D8137FC3F38012B2EBD31FBCD188
:1014A8000123AB71A3696B61627802F007024AF805
:1014B800092063692B61A388AB60E388EB6023692B
:1014C8001B7FC3F380132B762369D3E90010012A0D
:1014D80002BF04915A6803922268C2F3C33218BF4C
:1014E800CDE90310032A98D8DFE802F0160210139A
:1014F8004FF480320D92627802F00702012A0DD073
:10150800022A1DD0002A88D180221AE04FF4003226
:10151800F0E74FF44032EDE70022EBE71B7F402273
:101528000592C3F38102C3F30113012A00F0B680C8
:10153800022A0DD0002A7FF470AF4FF4806208E0D1
:1015480000221B7F0592C3F30112C3F38103ECE76A
:101558000022012B089200F0A180022B00F0858068
:10156800002B7FF45AAF4FF4007307932B7E1B02B6
:1015780006935AF809309A1E534253412B71A28898
:10158800002A92FAA2F3B3FA83F3464A08BF4FF04F
:10159800FF33204652F82330E2880993002A92FA52
:1015A800A2F3B3FA83F3404A08BF4FF0FF3352F86F
:1015B80023300A93297900F001FA109029792046FE
:1015C80000F00AFA63782278119013F007034ED0DE
:1015D800072A3FF622AF207800F018F923690C900B
:1015E800587F00F00F0002F054FD0F9003A802F09E
:1015F80029FD80000E902A792369002A3BD0A28811
:101608005B69B3FBF2F330460B9300F0F9F803AAD9
:101618000146384600F05CFE304600F0F1F8234CF5
:10162800225CD35943F01003D3512B7E3BB1304693
:1016380000F0E6F8225CD35943F00803D3510E9B1F
:10164800042B304619D100F0DBF8235C3B443046CC
:101658005A6942F004025A6100F0D2F8235C3B4414
:101668005A6942F080025A61D9E600237DE7072AC9
:1016780088BF2370AFE7E288C2E700F0C1F8235CB7
:101688003B4430465A6922F004025A6100F0B8F827
:10169800235C3B445A6922F08002E4E76FF0850836
:1016A800BDE600BF2857000834570008D25C000880
:1016B800F8B543689F69D3E904538B4206460C4644
:1016C8001FD9284600F042F9C8B1204600F098F822
:1016D8000D4B1A5C535923F01003535121462846E9
:1016E80000F05CF97068214602F008FB21462846A4
:1016F80002F0F0FA1C2303FB04770023BB710020DF
:10170800F8BD6FF01500FBE7D25C00082DE9F84F33
:10171800994643689246D3E904528A420C4613D943
:101728004FF01C0B28469F690BFB01FB02F0D2FA15
:1017380007EB0B08064600285DD157F80B30012B44
:1017480007D033F0020333D06FF015063046BDE8FA
:10175800F88F204600F054F8DFF8A0B01BF80030EE
:101768002B442046C3F80CA000F04AF81BF80030C0
:101778002B44C3F8089098F80430DFF8809020468E
:101788004BB300F03DF819F80010D8F808300A9863
:10179800B0FBF3F329444A68120C120413434B605C
:1017A800012388F806302146284600F0C1F8CDE725
:1017B800204600F025F8DFF844B01BF800302B4431
:1017C8002046C3F808A000F01BF81BF800302B4493
:1017D800C3F80C90CFE700F013F819F80020D8F8F8
:1017E8000C100A98B0FBF1F72A4453681B0C1B0431
:1017F8001F435760D4E76FF00F06A7E7D25C0008D5
:10180800014B53F820007047C8580008014B53F8A3
:1018180020007047A8580008014B53F8213018479A
:1018280088580008014B53F82130184768580008B9
:1018380008B5044B53F821309847003818BF0120E9
:1018480008BD00BF4858000808B5044B53F82130BC
:101858009847003818BF012008BD00BF2858000865
:10186800014B53F82130184708580008014B53F82A
:1018780021301847E8570008014B53F82130184722
:10188800C857000808B5044B53F82130984700386A
:1018980018BF012008BD00BFA8570008084A10B5A6
:1018A80052F82120074CA25C835813F0100304D08F
:1018B800FFF7CAFF00F0010010BD1846FAE700BFA5
:1018C800C8580008DA5C0008084A10B552F8212008
:1018D800074CA25C835813F0080304D0FFF7A8FF55
:1018E80000F0010010BD1846FAE700BFC85800080C
:1018F800DA5C00080C4B0D4A53F8213070B5D35C04
:10190800034405465B691B060E4602D400242046A4
:1019180070BDFFF7B7FF04460028F7D031462846C8
:1019280002F081FBF3E700BFC8580008DA5C000842
:10193800044B054A53F82130D25C835843F0010325
:1019480083507047C8580008DA5C0008044B054A01
:1019580053F82130D35CC05800F00100704700BF35
:10196800C8580008DA5C000838B50A4B0A4A53F828
:101978002130D25C835823F001038350044620466B
:10198800FFF7E4FF05460028F9D12046FFF74AFF94
:10199800284638BDC8580008DA5C0008054B064AD6
:1019A80053F82130D35C1844436923F08003436122
:1019B800704700BFC8580008DA5C000841B1438985
:1019C800043B0C2B9ABF034A52F8230000207047AF
:1019D8000389F5E77457000841B10389043B0C2BD0
:1019E8009ABF034A52F82300002070474389F5E75D
:1019F8004057000838B5036904465860084D284622
:101A080003F090F940B16168AB680C311B68284657
:101A1800984700EAE07038BD6FF01200FBE700BF9E
:101A280094520008F7B50C461146B1F5001F4768F7
:101A380002691D4624D104F00302043292000F23E8
:101A4800934043EA9403DAB23449023251F822202F
:101A5800190C02EA134391FAA1F2B2FA82F2D340C6
:101A6800BA689A4209D12046FFF7FAFA2046FFF7EA
:101A78004BFB00212046FFF7FFFA002003B0F0BD22
:101A8800B1F5800F41D026492046FFF725FB0028F5
:101A98003ED1B5F1806F34D0B5F1C06F33D0B5F118
:101AA800007F38D102261F4ABD6892E803006B46C2
:101AB80083E803001C488268194612689047C0B939
:101AC80004F0030304339B000F229A4042EA940275
:101AD800D3B29B0003F1804303F59C33110C986843
:101AE80020EA124091FAA1F2B2FA82F29540054337
:101AF8009D6020463146FFF7BFFA2046FFF79EFA61
:101B0800BBE70126CFE70326CDE76FF08500B5E7F1
:101B18006FF00F00B2E76FF01500AFE70038014033
:101B2800B742000884560008945200082DE9F0478F
:101B38001E4F044600EBC1060025B44201D1002027
:101B480014E02068C30600F01F0911D4656845F049
:101B58002005C0F3471AC0F343200A2823D857F8B2
:101B68002080B8F1000F0DD16FF01200BDE8F087AA
:101B7800B9F1100F04D0B9F1110FEAD16568E8E79F
:101B88003025E6E7404603F0CDF80028ECD04B4678
:101B98002A460AF00F01404602F0A0FB002804F193
:101BA8000804CADAE2E76FF01500DFE7AC5900086D
:101BB8004268116801F1140353E8003F23F0010360
:101BC80001F1140C4CE800300028F3D113680E49D9
:101BD8008B4207D0A1F54C418B4203D001F550410F
:101BE8008B4203D1196921F040011961126802F191
:101BF8000C0353E8003F23F4807302F10C0040E823
:101C080000310029F3D17047001001404268116883
:101C180001F1140353E8003F43F0010301F1140CF0
:101C28004CE800300028F3D113680E498B4207D0E6
:101C3800A1F54C418B4203D001F550418B4203D1B1
:101C4800196941F040011961126802F10C0353E867
:101C5800003F43F4807302F10C0040E80031002992
:101C6800F3D1704700100140F8B503690C465E686F
:101C780023794168012B34D09A1E55425541AD0253
:101C88006279022A9CBF354F37F812C0A27988BF03
:101C98004FF4005C042A27D0003B18BF01231B0324
:101CA800E279012A0A680CBF4FF440770027A64260
:101CB800D1681CD121F4B05129430B43D360136977
:101CC80023F4405343EA0C03136143681A685369C9
:101CD80023F440733B4353613168BDE8F84002F098
:101CE800D3BC4FF4C065CBE74FF48053D8E701F479
:101CF800C0618D421FBFD16821F4C0612943D16002
:101D0800426811680A6902F4405294451FBF0A6983
:101D180022F4405242EA0C020A6142681168CA6819
:101D280002F4805293421FBFCA6822F480521343C0
:101D3800CB6043681A68536903F440739F421FBF1E
:101D4800536923F440733B435361216833689942D4
:101D580003D002F099FC23683360F8BD585B000893
:101D68002DE9F04103694768D3F804800B790C46E4
:101D7800012B4979A57936D102294FD9042D4AD0AA
:101D88004FF480564FF4C06203238B4243D1002E98
:101D98007CD0002A14BF03220422AA423BD1E37953
:101DA8006BB1012B37D13B683B4A934207D0A2F570
:101DB8004C42934203D002F5504293422BD13A68E9
:101DC800D36823F40053D3602146FFF74DFF3A68E8
:101DD800D36843F40053D36094E8030088E8030011
:101DE8000020BDE8F081022B08D1022921D9042D59
:101DF80011D04FF480624FF48056C5E702290A4695
:101E08001FD9042D04D133B94FF480561A46BBE7C5
:101E180063BB0329C1D06FF08500E2E71F4A042D98
:101E280032F811C0F7D04FF4C062033B012B10D831
:101E3800F1E71A4A042D32F811C0ECD04FF4806251
:101E4800F3E7164A042D32F811C016D1002BE2D15F
:101E58001A464FF48056BCF5805F13D0BCF5405F3E
:101E680012D0BCF1000F8FD101238EE7033B012B69
:101E7800D1D90022BFE70022D7E7002BFBD11A46B1
:101E88001E46E8E7002380E702237EE7002A14BF06
:101E98000222032281E700BF00100140585B0008BE
:101EA8002DE9F3410469466805466C48206002F054
:101EB80039FF20B96FF0120002B0BDE8F081206848
:101EC800F16883681B6898470028F5DB306A01AA27
:101ED800002102F01BFA0028EEDB019B0022197991
:101EE8001868FFF723FE0028E6DB6C682B69226878
:101EF8005F68D36823F40053D360606802F012FF70
:101F08000028D7D0D4E901018368DB6803B198477A
:101F1800226802F10C0353E8003F43F00C0302F17E
:101F28000C0040E800310029F3D139462846FFF774
:101F38009BFE237D23B12268536943F00803536154
:101F48002268D36843F40053D360736A28469847DD
:101F58002C696E68206A2561002874D1D4F8B8000D
:101F6800002875D12B69002283F8B0206B681A68A5
:101F780002F1140353E8003F23F0800302F1140137
:101F880041E80038B8F1000FF2D1354904F180007A
:101F980002F077FF04F14C07324904F58C7002F027
:101FA80070FF20224146384603F005F933680433B0
:101FB800E36494F8453033B994F86830022262F348
:101FC800830384F8683094F8463033B994F868305D
:101FD800022262F3051384F8683094F86930A26C21
:101FE800C4E90E7562F30303002104F1E40784F8E1
:101FF8006930C4E954112022384603F0DCF833680C
:102008000433C4F8E83094F8DD3033B994F800317B
:10201800022262F3830384F8003194F8DE3033B986
:1020280094F80031022262F3051384F8003194F821
:102038000131D4F8E02062F30303C4E9347584F86D
:102048000131002038E702F06DFE002886D131E723
:1020580002F068FE002885D12CE700BF94520008E2
:10206800834A00084548000810B54FF0E0230F499F
:102078009C691A6908689B690D4902F4803234B971
:1020880093B903464AB90A681044C01A10BD002B18
:1020980008BF03460AB9A342F5D90A6802440A6090
:1020A8004FF0E0221269EEE70446F3E7E809002062
:1020B800E40900200A4B102283F82320094B4FF42F
:1020C80016521A60084B002018604FF0E02342F2C5
:1020D8007F525A6198611A6942F007021A61704783
:1020E80000ED00E0E8090020E409002010B5FFF742
:1020F800BBFF104B1049D3E900420868001942F1B0
:102108000002C3E900020D4A00230B60D2E9004136
:102118004FF41653001BB0FBF3F043431B1941F176
:102128000001C2E9003101F0C5F8BDE81040FEF732
:102138001DBB00BFA0040020E40900209804002073
:102148002DE9F041DFF8DC8099B1421C0BD14FF04A
:10215800E022136923F0010313614FF07F43C8F8AD
:102168000030BDE8F081D8F80060012807DC0027BE
:102178000BE0431CD8F80060F7D140F2D26040F27F
:10218800D3639842A8BF1846471EEFF31185102362
:1021980083F31288BFF36F8FFFF766FF224C4FF06F
:1021A800E0239969D4E90023801843F10003C4E9C6
:1021B80000031E4B00221A601D4B1A68831A2ED486
:1021C8004FF4165C0CFB073303F515533F33B3FB91
:1021D800FCF7131A0CFB0733B3F5806F154A38BFA9
:1021E8004FF48063934228BF13464FF0E022C8F8AB
:1021F8000030013B90695361002393618142A1EB58
:102208000003D4E9001238BF9B195B1842F10002A1
:10221800C4E9003285F31188BFF36F8FA1E74FF44B
:102228008063E2E7E8090020A0040020E409002018
:102238009804002000C3FF0038B5EFF31185102380
:1022480083F31288BFF36F8F084B1C68084B1B6819
:10225800E41AFFF709FF85F31188BFF36F8F4FF476
:1022680016532044B0FBF3F038BD00BFA004002093
:102278009804002008B513498B6803F00C03042B5D
:102288001CD0082B1CD14A684B68496813F480039A
:1022980014BF0D480D48C1F3881118BF002302F080
:1022A8003F02A1FB0001FDF773FF064B5B68C3F318
:1022B800014301335B00B0FBF3F008BD0248FCE7C3
:1022C8000248FAE70038024000127A000024F400BD
:1022D80070B51F4B595CD2E902363343166945582D
:1022E80033435669334396693343D6693343966A11
:1022F80025F45F35334325F478752B434350D36A6F
:10230800441893B16569166B25F0070533432B43D1
:1023180063614358556B23F0C0732B4343504358B4
:10232800956B23F4C0032B4343505368E360136851
:10233800A3606368156A1B0C1B042B436360435836
:10234800526A23F0606313434350002070BD00BFFE
:10235800A35D0008002876D03C4B1A6802F440427E
:10236800B2F5404F20D13A4A904215D8394A9042A6
:1023780007D91A6802F44042B2F5004F5CD1022036
:102388001FE0354A90421A6802F4404247D9B2F534
:10239800004F4CD1012014E01A6802F44042B2F513
:1023A800004F3FD103200CE01A6802F44042B2F516
:1023B800004F22D1274A90423ED8274A90422ED930
:1023C8000020224B1B68012838BF012003F440433A
:1023D800B3F5804F1FD0214A136823F00703034346
:1023E8001360136803F0070398421CBF136803F0D7
:1023F8000703C01A18BF012070471B6803F4404345
:10240800B3F5804F0CD1134B98421AD8124B98420F
:102418004FF00000DFD9012838BF0120DBE71B6837
:102428000020D8E71B68032003F44043D0E71B686B
:10243800012003F44043CBE71B68022003F4404328
:10244800C6E70220C7E70120704700BF00700040C0
:10245800804A5D050090D00380C3C901003C02405A
:1024680038B5EFF31185102383F31288BFF36F8F0C
:10247800064B9C6802F069FC85F31188BFF36F8FE7
:102488002046BDE83840FEF7F1BA00BFF009002049
:1024980038B5094B53F82040013053F82050A54275
:1024A80000D838BD636823B1204602F051FC0834D7
:1024B800F5E723689847FAE7405B000870B52A4BB0
:1024C8002A4C2B4D012286B003201A70FFF7E0FF3B
:1024D80000F070FF0420FFF7DBFF2646AE4204F150
:1024E800300410D300F092FC204C224EAC4226D38C
:1024F80000F0A0FCFDF7E6FF1F4A137B23F0010361
:10250800137306B070BD54F80C3C059354F8103C96
:10251800049354F8143C039354F8183C029354F869
:102528001C3C019354F8203C009354E90A2354E9D5
:102538000C0100F073FA54F8303C5E65CDE7D4E93D
:102548000A23B3F1FF3F08BFB2F1FF3F05D052EABB
:102558000301206803D102F0BCFC3034C6E73146E1
:10256800183000F02DFEF8E7330A002084560008E2
:1025780084560008E54F00082805002008B50348E0
:10258800034A0021121A02F0FBFB08BD9804002040
:10259800380A002070B5002386B00122CDE9042353
:1025A800194E1A4D01930F22CDE90232184914230E
:1025B80003FB005506EBC01604464FF4C070154BDC
:1025C80000954FF4A07200FB0411304600F026FA83
:1025D800737B114AEE6023F0040373734FF40463B2
:1025E80004FB033313446B600C4B2C74BFF35B8FF9
:1025F80053E8001F013143E80012002AF8D1BFF365
:102608005B8F06B070BD00BFA8040020F009002051
:1026180080120020914D0008400A0020EC0900209B
:10262800BFB50020FFF734FF2B4B83F308882B4DF1
:102638002B4E6B692B4F43F400736B610024F0231E
:1026480085F82230EC772C766C76AC7685F82040CD
:102658006B6A43F4E0236B62FEF7E0F9FEF720FBB8
:102668004FF0FF33AB62EB62FEF7E0FBFEF73CFB9B
:102678001D4BB36040F201129A81C3E91844DC662D
:1026880002F04FFB0120FFF703FF0220174DFFF771
:10269800FFFE00F0EFFB164B75610593012315490A
:1026A8000094CDE903434FF480623B46CDE90144F1
:1026B800284600F0B3F96A7B064622F00402284651
:1026C8006A7302F042FC2046FFF764FF3A4631463F
:1026D8002846FEF7C3FA00BF8012002000ED00E094
:1026E800F0090020C5240008A805002028050020BE
:1026F800AB5D00080014002038B50446EFF31185DF
:10270800102383F31288BFF36F8F02F06BFC48B17C
:102718000022826702F019FC29460848BDE83840C3
:1027280000F030BBD4E902329A4218BF0133A360EB
:1027380085F31188BFF36F8F38BD00BF340A0020BE
:102748002DE9F043DFF8348185B005464FF0FF36B8
:102758004FF0FF37EFF31189102383F31288BFF38B
:102768006F8FD5F880408CB9022105F1980002F0EE
:1027780016FB002860D10023CDE90067029305F11C
:10278800880249463E4800F023FCE3E7D5F8842058
:102798002368C5F88030944208BFC5F88430D5F85E
:1027A800983043F00203C5F89830E36823F0040337
:1027B80043F00103E360636889F31188BFF36F8F07
:1027C80020469847EFF31189102383F31288BFF34B
:1027D8006F8FE368D90623F0010237D4E260E3681B
:1027E8009A071AD5D8F8000023F00203E360A0B1D5
:1027F8000268002188B143689C4237D1036869BBED
:10280800D8F80420C8F80030824201D1C8F8043052
:10281800002340F8083BFFF76FFFD5F8983023F006
:102828000203C5F8983089F31188BFF36F8FDB0571
:1028380090D400F027FB8DE705F1900400220121D8
:10284800204602F00CFC0028F8D194E723F011038D
:10285800E36004F11000FFF74FFFC0E70B60D8F802
:102868000430834208BFC8F80410D1E722B11368C6
:10287800014610461A46BDE71346F9E7100A00203C
:10288800340A0020F8B5C3689A0704460F46C3F314
:1028980040062CD45B071AD40B680BB983680B600D
:1028A800E368DD0744BFA3683B603D684CBF022670
:1028B8000126002D3AD01F4B9B68AB420AD0D5F8B1
:1028C8009830D807C3F3800214D46FF0120600239F
:1028D8003B6025E002F0F4FAD5F898300028F0D1F2
:1028E800D907C3F3C002F0D552B15B0708D46FF023
:1028F8000F06ECE7002AFAD1C3F3C003002BF6D188
:1029080000232360D5F8843063B9C5E920442846FC
:1029180002F05FFAE36843F00403E3603B68A360F6
:102928003046F8BD1C60C5F88440F0E76FF0150626
:10293800CDE700BFF0090020F0B589B004460020BB
:10294800C4E920000E9D04F18800C4E9220004F1C6
:102958009000C4E924004DB32879002840F2011002
:1029680008BF0120C4F8980000204FF0FF364FF050
:10297800FF37CDE90330CDE90100CDE906670C4BFF
:102988000094204600F096F855B1296811B1204608
:1029980002F09CFA6B791BB1237B43F0010323738C
:1029A800204609B0BDE8F04002F093BA0120D9E70B
:1029B80049270008F7B50C46019016461D46EFF367
:1029C8001187102383F31288BFF36F8F084602F034
:1029D800F1F955EA060309D101A92046FFF752FF8C
:1029E80087F31188BFF36F8F03B0F0BDE368074921
:1029F80043F00803E360019BA36204F11000324630
:102A08002B4600F0DDFB0120EAE700BF4F4E00082F
:102A180001460148FFF7CEBF480600202DE9F043E4
:102A2800073285B022F007020E461F46109901733F
:102A380000F158037F32C0E916330446002322F020
:102A48003F020421836041733F2A0F98A073C4E9B1
:102A58000633E37306F14009A2F1400805D883F371
:102A68001188BFF36F8F084602DFB5182946204644
:102A7800FDF75CFE07300E9B20F00700A066C4E956
:102A8800189802930D9B01932D1A0C9B00932A46CC
:102A98003B4631462046FEF7AFF800236365044BFA
:102AA8009B6803B1DB6EE366284605B0BDE8F0839A
:102AB800F0090020F0B587B000250595109D049514
:102AC8000F9D03950E9D0295DDE912760D9D0195EA
:102AD8000C9D00950446FFF7A1FFB6F1FF3F08BF24
:102AE800B7F1FF3F05D056EA070305D1204600F0AD
:102AF8005BF9204607B0F0BD03493A46334604F176
:102B0800180000F05DFBF4E7E54F000838B50D4DFF
:102B18002B4653F8184F9C4200D004B9EC68AB68B8
:102B280038B95A7BD20604D1A26912B9DA897F2A48
:102B380005D89C4202D0204600F08AFA23466B61F1
:102B480038BD00BFF009002008B590F90D20437B7F
:102B5800002A014604DA03F07F03437302F0BBF94D
:102B6800044B9868431A58425841BDE80840FFF79B
:102B7800CDBF00BFF009002070B490F90D30427B42
:102B8800002B29DBD30627D183692BBB134962F0BD
:102B98007F0242730A4652F8184F944218BF2346E0
:102BA800CC6923B9C0E900242060C8610CE090F921
:102BB8000E5093F90E60B5420AD0AE4208DD5A684D
:102BC800C0E900321060586070BC0020FFF79EBF5B
:102BD8009C42E7D01B68E4E770BC7047F00900200E
:102BE8002DE9F041002A427B0E460CBF1021082136
:102BF800114204460FD141EA0203D20918D14373A6
:102C080008291BD00120FFF781FFBFF35F8F637B8B
:102C180023F060036373264B9B68A34241D1EFF313
:102C28000583002B3DD13046BDE8F041FDF734BFA8
:102C380003F07F03437302F04EF9E1E7A36813B191
:102C4800204602F050F904F1180002F02AFA04F1C3
:102C580058074FF00008A56DBD4200D0A5B9144D26
:102C6800AB689C42CED1EFF30583002BCAD001207C
:102C7800FFF74CFF0F4BAB6040F201129A81002224
:102C8800C3E91822DA66C0E7284602F02CF905F1F4
:102C9800180002F006FAC5F878802846FFF76CFF9E
:102CA800D9E786F31188BFF36F8FBDE8F08100BFC5
:102CB800F0090020A805002070B590F90D20437B8D
:102CC800002A014604DA03F07F03437302F003F994
:102CD8004B7B154A63F07F0310464B7350F8183F3F
:102CE800D469834208BF002323B9C1E900042160E5
:102CF800D1610CE091F90E5093F90E60B5420ED0F7
:102D0800AE420CDD5868C1E9003001605960906836
:102D1800431A5842BDE870405841FFF7F7BE9C423D
:102D2800E3D01B68E0E700BFF0090020F8B5124BBC
:102D38000C461146114A98681060DDE90676EFF3F3
:102D48001182102282F31288BFF36F8F9D68284684
:102D580002F0D3F8B6F1FF3F08BFB7F1FF3F06D046
:102D680007493A46334605F1180000F029FA20468B
:102D7800BDE8F840FDF790BEF0090020180A0020D1
:102D8800E54F000849B9EFF3058030B9054B5A699A
:102D98009B689A4201D0FDF77FBE81F31188BFF38B
:102DA8006F8F7047F009002010B5EFF311841022DF
:102DB80082F31288BFF36F8F427B510704D484F3E8
:102DC8001188BFF36F8F10BD22F004024273FFF722
:102DD800D3FE21460248BDE81040FFF7D3BF00BF2D
:102DE800340A0020034648B9EFF3058232B9064A8F
:102DF80051699268914201D0FDF74EBE83F3118864
:102E0800BFF36F8F704700BFF0090020EFF3118107
:102E1800102383F31288BFF36F8F054B9A68D37B17
:102E2800013BD37381F31188BFF36F8F704700BFE5
:102E3800F009002038B5EFF31185102484F31288C7
:102E4800BFF36F8F0A4B9A68D37B0133D37300208B
:102E5800FFF75CFE85F31188BFF36F8FEFF31180E6
:102E680084F31288BFF36F8FBDE83840FFF7BABF0D
:102E7800F0090020024B03F11802C3E9062270474B
:102E8800F0090020F8B5EFF31185102383F31288B9
:102E9800BFF36F8F19498868437B03F07F0343733F
:102EA80002F019F88B685A7B084662F07F025A7361
:102EB80050F8182FCC69824208BF002222B9C3E912
:102EC80000042360CB610CE093F90E6092F90E7058
:102ED800BE420ED0B7420CDD5168C3E900210B6039
:102EE80053600120FFF712FE2846BDE8F840FDF7C1
:102EF800D3BDA242E3D01268E0E700BFF00900208A
:102F080050EA01032DE9F04105460E4603D1FFF7CB
:102F1800B9FF00202BE0831C71F1FF3329DB02F09D
:102F2800D5F82C18EFF31188102383F31288BFF318
:102F38006F8F124F124BB8681860FFF705FEB8681C
:102F480010492A463346183000F03AF9BA68537BDC
:102F580043F0100353734046FDF79EFD02F0B6F8A8
:102F6800201A63EB0303012873F10003D1DBBDE8EA
:102F7800F0816FF00104241AD4E700BFF0090020A3
:102F8800180A0020E54F0008B1F1FF3F08BFB0F173
:102F9800FF3F08B506D10A4B986801F0E5FF4FF0EE
:102FA800FF3008BDFFF7ACFFC11709304FF00A0228
:102FB8004FF0000341F10001FDF7EAF8F1E700BF27
:102FC800F0090020014B9868704700BFF009002005
:102FD800D3B5DDE90667089CCDE90067FFF7A6FED3
:102FE8001CB1034B9B685B69236002B0D0BD00BF76
:102FF800F0090020044BC01A044BC0105843044B7E
:1030080001221A54704700BF28060020ABAAAAAABA
:10301800340A0020C3897F2B12D80A4B1B6863B17E
:10302800094B90F90E201B689A4209DB437BDB06AB
:1030380006D1064BC31A18BF012303F001007047DD
:103048000023FAE7200A00201C0A0020A804002018
:1030580070B50E4B0E4C1E7C06EB460304EBC30406
:103068000546204602F01DF80A4B002228469A55CC
:10307800FFF7D0FF48B1084B08491A68013A2046C3
:10308800D317BDE8704000F09BB870BDF009002070
:1030980028060020340A0020200A0020FD2F0008FE
:1030A80038B5EFF31185102383F31288BFF36F8FC0
:1030B800104B114A9C681068A04206D1FFF7C8FF60
:1030C80085F31188BFF36F8F38BD00211B7C116019
:1030D8000A4AD35C002BF3D02046FFF79BFF002859
:1030E800EED0637BDB0602D12046FFF7E5FD2046E4
:1030F800E4E700BFF0090020180A0020340A002085
:1031080008B50648064A0749121A01F03BFEBDE811
:103118000840054A0549064801F034BE0000002071
:1031280094040020045E000800000000045E00080B
:1031380000000020034B1B680BB9FFF77DB8002087
:10314800704700BF240A002030B570B10B4B5B6894
:1031580098420AD0036843B1D3E90421D0E9044571
:10316800121941EB0501C3E90421D0E900321360CB
:103178005A600023C0E9003330BD00BF5C04002062
:1031880010B50E4B1C689C4204D1FFF7D3FF6FF0BB
:10319800004010BDFFF7CEFF002CF8D0D4E9043270
:1031A8001B1A62EBE072B3F1004F72F10001EEDA24
:1031B800002AACBF18460020EBE700BF5C040020E3
:1031C800B3F1FF3F08BFB2F1FF3FF8B504461D4613
:1031D80016465ED08160EFF31187102383F31288BF
:1031E800BFF36F8F013275F1FF3324DA2E49D1E92D
:1031F80000206FF001039B1A4FF0FF3262EB0000D2
:103208009E1B60EB0500012E70F1000301DA012618
:103218000020C4E90460254ED6F800C07568B4459E
:1032280008BF4FF0000CBCF1000F0DD1C4E90065D8
:103238002C6074601CE0FFF77DFF013645F1000546
:10324800361845EBE070E4E7DCE90420D4E9043102
:10325800934271EB000E1DDAD21ADCF8043060EBF1
:103268000100CCE90420C4E900C31C60CCF8044088
:103278003368B34209D09C4207D10D4B1C6824B96E
:10328800FFF77EFF2146FEF75BFF87F31188BFF348
:103298006F8FF8BD9B1A61EB0001AC45C4E904319E
:1032A800C4D0DCF800C0BEE7400600205C04002063
:1032B800240A00202DE9F84FEFF3118C102383F333
:1032C8001288BFF36F8FDFF8B0A0DFF8B0902C4FF3
:1032D800C9F80000DAF800000024504508BF0020B3
:1032E8000025D7E90021D9F80030E04678B3D0E9C5
:1032F800046C4FEAE37EB3427EEB0C0B05DAF61A58
:103308006CEB0E04C0E9046421E0B21841EBE671ED
:10331800C0E90445C7E90021FFF716FF88F31188C3
:10332800BFF36F8F83689847EFF31188102383F3F7
:103338001288BFF36F8FD9F80030DAF800009B1BB2
:103348005045C446C9F80030CBD1D7E900219A18B6
:1033580041EBE3730024C7E90023C9F80040FFF7F5
:103368000FFF2146FEF7ECFE88F31188BFF36F8F3D
:10337800BDE8F84FFFF794BE5C040020240A002043
:103388004006002010B5EFF31184102383F3128850
:10339800BFF36F8FFFF7CEFE054A0346D2E900015F
:1033A800181841EBE37184F31188BFF36F8F10BDD8
:1033B80040060020014800F005BB00BFB05D0008D2
:1033C8001FB5094A92E8030002AB83E803004FF4F3
:1033D80080620093054906484FF0FF33FFF7ACFAC7
:1033E800002005B05DF804FB8C560008401800204A
:1033F80048060020F8B50E4B1D68AB789B070646BB
:1034080012D56F6816F8014B29462CB90A20B8471F
:10341800002805DB204609E02046B8470028F1DAF5
:10342800AB7843F00403AB704FF0FF30F8BD00BF3A
:10343800C85600082DE9F04F8DB043680293837891
:1034480015469A07804640F10D8100240E78002E1B
:1034580000F00A81252E0BD04B1C03930134029BEC
:103468004146304698470028C0F2F6800399EDE7B8
:103478004E788B1C252E0393F0D00027B946BB4607
:10348800BBF11F0F38D8A6F12003102B0AD8DFE8AC
:1034980003F02A0909300909092109090928092D10
:1034A80009091F00A6F13003092B33D92A2E37D179
:1034B8001BF0400F55F8043B40F08280002BA7BF5B
:1034C8004BF0200B9946C3F100094BF0280B01E0A3
:1034D8004BF0010B039B13F8016B0393002ECFD124
:1034E80030E04BF0020B4BF0040BF3E74BF0080B0A
:1034F800F0E74BF0100BEDE7BBF17F0F19D8A6F101
:103508003003092BD2D81BF0400F03D00A2101FB4E
:103518000737DFE70A2101FB09394BF0200BD9E710
:103528002E2E06D11BF0400F40F09E804BF0400B32
:10353800D0E76C2E31D02BD8682E36D06A2E3CD0EE
:103548004C2E3AD0002F46F02003B8BF2BF0400293
:10355800A3F16501BCBF1FFA82FB0027022901D92C
:10356800612B2FD1073525F00705DFF8ACA2083508
:1035780007271BF0080F66D00AEB070B56465E4577
:1035880063D1A4EB0A0A06EB0A02A9EB07096FE16B
:10359800742E9FD07A2E9DD0D4E71BF0800F18BFD1
:1035A8004BF4007B4BF0800B94E71BF4807F18BF33
:1035B8004BF4007B4BF4807B8CE74BF4207B89E752
:1035C8001F4687E7A6F16301122900F2F080DFE8C1
:1035D80011F013004F00EE00EE00EE00EE004F0079
:1035E800EE00EE00EE00EE00EE00FE00E900EE0058
:1035F800EE001B00EE00AF0055F8043B8DF81830C4
:1036080001270DF1180AB4E755F804AB834BBAF15A
:10361800000F08BF9A461BF0400F14BF39464FF001
:10362800FF31504601F056FD0746A2E7029B41468E
:103638002020984700280FDB013EB742F6D34C44C0
:10364800A41BB14698E74E46F7E716F8010B029B14
:1036580041469847002892DA98F8023043F004036C
:1036680088F802304FF0FF3420460DB0BDE8F08FE7
:103678001BF0800F34D01BF4007F2CD0073525F0C9
:103688000705AA4669685AF8080B2BF010050029A7
:10369800ADB237DA404261EB410145F480650DF186
:1036A800180B0A235A4601F021FDA0EB0B030193E6
:1036B8006B0662D5019B25F001019F4289B240F358
:1036C800A180002E00F0998015F0100240F09C8037
:1036D800BB460D4623E0AA465AF8040BC117D4E7A7
:1036E800AA461BF4807F5AF8041B01D10846F5E767
:1036F8001BF4007F15BF48B208B241F3C01141F373
:10370800C031C2E750EA0103C9D11BF0400FC6D04F
:10371800002FC4D12BF0110295B2BB46019740F29D
:10372800064115EA01021CBF0BF1010B00222CE037
:103738002BF010021FFA82FB0A231BF0800C49D0E1
:103748001BF400711DBF073525F00705AA46AA46D8
:103758001ABF5AF8080B69685AF8040B50EA0105B1
:1037680045D12BF016051BF0400FADB242D0002F0B
:1037780040D12BF0170295B2019715F0100248D0EE
:10378800019B002E42D103F1010B29075AD4EB0704
:1037980006D5D9456FDD0199A9EB0B035F18CB4618
:1037A8005B4649E04BF0100B10237826C5E7782BD1
:1037B80004D1C6F1780343F01003BEE7029B4146EB
:1037C800252098470028FFF647AF023447E608232C
:1037D8000026B2E7AA461BF480715AF8040BBDD044
:1037E8001BF400711ABFC0B2614680B2B6E72BF075
:1037F800060295B20DF1180B54E725F01105ADB28C
:10380800BB468CE70D46B8E73B460D4603F1020B75
:10381800BBE7DDF804B082E7FB5D0008F45D000853
:10382800CDE904324146029B202098470028FFF644
:1038380013AF049B059A01339945F1DCA4EB0B0106
:10384800CC189B460AB3029B414630209847002873
:10385800FFF602AF8EB901342744019B391B994208
:1038680024DC1D465DBB019AA9EB0B092244554691
:103878001446914435E0019F92E7023441463046B0
:10388800029B98470028E7DAE6E640F206410D4237
:10389800E2D015F0020F14BF2B20202015F4806F02
:1038A80004F10104414618BF2D20E9E7029B414677
:1038B80030209847002804F10104CEDACCE606ABA4
:1038C800013D4146585D029B98470028CADAC3E685
:1038D800029B414620209847002804F10104FFF686
:1038E800BBAEA9EB0403002BF2DCBFE5704700EB8D
:1038F800C100408840087047F8B50346FFF7F7FF56
:10390800B0FA80F0C0F11F0003EB800CCA00DCF8AD
:103918001060171D0C4606328DB256B9012101FA06
:1039280000F0D9680143D960CCF81040DD539D52AE
:10393800F8BDF1000431585AD85303EBC0009E5229
:10394800C5805D52F4E7043A2DE9F041CC1D1144DD
:1039580024F0070421F007010E1BF708B7FA87F2D5
:10396800C2F12405AD004FF000080735C2F120026E
:10397800ED0804604146A760C4F80C80920004F189
:10398800100001F018FC6B0043F00103638004EBA6
:10399800C5027B1B5900A4F800805180A21924F8A5
:1039A8003550A2F80280A35304EBC70329465A886E
:1039B80042F001025A802046BDE8F041FFF79CBF63
:1039C800002070470FB407B504A951F8040B019102
:1039D800FCF742FE03B05DF804EB04B07047704793
:1039E800012801D1EFF30583FEF73ABD01460068CF
:1039F800FFF7F6BF00210120FFF7F2BF61B662B6FC
:103A080080F31188BFF36F8F704772B6002383F37A
:103A18001188BFF36F8FBFF34F8F30BF62B6BFF30C
:103A28006F8F7047202809D9B0F1004F08D80138A6
:103A3800B0FA80F0C0F11F004000704708207047BE
:103A48003E20704708B5FDF7A1FA002008BD08B56B
:103A5800062201210020FDF7E5FA00221146062082
:103A6800FDF78EF8012108460722FDF7DBFA002250
:103A780011460720FDF784F8082201210220FDF7EE
:103A8800D1FA002211460820FDF77AF8092201210F
:103A98000320FDF7C7FA002211460920FDF770F848
:103AA8000A2201210420FDF7BDFA002211460A204E
:103AB800FDF766F8052108461722FDF7B3FA00223C
:103AC80011461720FDF75CF8282206210A20FDF789
:103AD800A9FA002211462820FDF752F8002008BD57
:103AE8000B68A3F13002782A82B012D803F1804320
:103AF80003F50E3348681A6802431A600B6803F12D
:103B0800804303F50E3300201B680193019B02B02C
:103B180070476FF08500FAE70B68A3F13002782A46
:103B28009FBF03F1804303F50E3349681A689DBFB0
:103B38008A4300201A606FF0850070470B68A3F174
:103B48003002782A0AD803F1804303F50E331A6845
:103B58004B68934314BF012002207047012B05D006
:103B6800033B022B8CBF01200220704702207047C4
:103B780010B50B68012B02D0033B022B21D84A68F1
:103B8800FF2A1CD0D3B203F1804303F50E33C2F3EE
:103B980042341868C2F3042204FA02F220EA02024C
:103BA8001A604968CBB203F1804303F50E33C1F3C1
:103BB80002421868C1F304218A4002431A600020B7
:103BC80010BD6FF08500FBE7002208B511460B20F9
:103BD800FCF7D6FF0B20FCF7C5FF002211460C208E
:103BE800FCF7CEFF0C20FCF7BDFF002211460D208C
:103BF800FCF7C6FF0D20FCF7B5FF002211460E208A
:103C0800FCF7BEFF0E20FCF7ADFF002211460F2087
:103C1800FCF7B6FF0F20FCF7A5FF00221146102085
:103C2800FCF7AEFF1020FCF79DFF00221146112083
:103C3800FCF7A6FF1120FCF795FF00222F20114664
:103C4800FCF79EFFBDE808402F20FCF78BBF002241
:103C580008B511463820FCF793FF3820FCF782FF9F
:103C6800002211463920FCF78BFF3920FCF77AFF38
:103C7800002211463A20FCF783FF3A20FCF772FF36
:103C8800002211463B20FCF77BFF3B20FCF76AFF34
:103C9800002211463C20FCF773FF3C20FCF762FF32
:103CA800002211464420FCF76BFF4420FCF75AFF22
:103CB800002211464520FCF763FF4520FCF752FF20
:103CC800002246201146FCF75BFFBDE8084046206D
:103CD800FCF748BF70B505460E4641F28A343146B6
:103CE8002846FDF741FE40B1013C04D000210A20DE
:103CF800FFF74AF9F3E76FF00F0070BD38B50569B3
:103D08000C462846FDF78EFD21462846FDF784FD22
:103D180021462846BDE8384000F085B9F8B5466820
:103D2800D6E904738B4205460C4613D93846FDF78D
:103D38000DFE68B9B3691C2202FB043301229A7193
:103D480068682146FFF7DAFF21463846FDF7F0FD9F
:103D58000020F8BD6FF01500FBE72DE9F04106469D
:103D68004068846907691C2303FB01440D46637995
:103D78002BB9A3791BB9BDE8F041FFF7BFBF0023FA
:103D8800A37129463846FDF79FFD70B163791BB9C9
:103D980029463846FDF740FD6769012321692A460F
:103DA8003046BC46BDE8F041604729463846FDF735
:103DB80075FD40B163791BB929463846FDF732FDD8
:103DC80067690023EAE729463846FDF793FD18B1ED
:103DD80067696FF00403E1E773682946186900F022
:103DE80021F970682946FFF789FFF1E70021FFF7FD
:103DF800B4BFFFF7FBBF0121FFF7AFBFFFF7FBBF62
:103E08000221FFF7AABFFFF7FBBF0321FFF7A5BFFA
:103E1800FFF7FBBF0421FFF7A0BFFFF7FBBF05219A
:103E2800FFF79BBFFFF7FBBF0621FFF796BFFFF722
:103E3800FBBF0721FFF791BFFFF7FBBF0068C0F387
:103E4800001070470068C0F3802070470068C0F316
:103E5800005070470068C0F3806070474068C0F346
:103E6800001070474068C0F3802070474068C0F376
:103E7800005070474068C0F3806070470068C0F326
:103E8800401070470068C0F3C02070470068C0F356
:103E9800405070470068C0F3C06070474068C0F386
:103EA800401070474068C0F3C02070474068C0F3B6
:103EB800405070474068C0F3C0607047006800F029
:103EC800010070470068C0F3801070470068C0F3B5
:103ED800004070470068C0F380507047406800F0A9
:103EE800010070474068C0F3801070474068C0F315
:103EF800004070474068C0F38050704710238360CB
:103F080070474FF48063836070474FF48013836079
:103F180070474FF08063836070471023C360704719
:103F28004FF48063C36070474FF48013C3607047D9
:103F38004FF08063C36070472023836070474FF45D
:103F48000063836070474FF40013836070474FF03D
:103F58000063836070472023C36070474FF4006399
:103F6800C36070474FF40013C36070474FF000639D
:103F7800C36070470823836070474FF40073836001
:103F880070474FF40023836070474FF000738360DD
:103F980070470823C36070474FF40073C3607047CD
:103FA8004FF40023C36070474FF00073C36070473D
:103FB8000423836070474FF48073836070474FF425
:103FC8008023836070474FF08073836070470423B9
:103FD800C36070474FF48073C36070474FF4802309
:103FE800C36070474FF08073C360704701238360DC
:103FF80070474023836070474FF480338360704775
:104008004FF48003836070470123C36070474023E7
:10401800C36070474FF48033C36070474FF4800328
:10402800C3607047704738B504460D46FDF718FC65
:1040380029462046FDF71AFC29462046BDE83840A7
:10404800FDF71ABCC269B2F5005FD0E90C0313D0C2
:10405800B2F5804F18D0D2B9B3F1807F08D0B3F150
:10406800C07F0FD0B3F5000F14BF002001207047A8
:1040780020F002000128F7E7B3F5000FF8D0B3F1FC
:10408800807F04D10328EFE7B3F5000FF9E700209C
:104098007047431E022B88BF0020704743685B6847
:1040A8001B690B600020704743685B685869424091
:1040B8000A4042405A610020704743685B6800200C
:1040C8009961704743685B680904996100207047EB
:1040D80043685A6853694B4053610020704710B5D4
:1040E80003699868F8B1884219D1DC680868986053
:1040F800A14200D1D860002008602AB19A680A60FD
:10410800DA68996002B9D960002010E0814206D1CE
:1041180008682060D8688142EDD1DC60EBE704468E
:1041280000680028F2D1002AE8D16FF0150010BD10
:10413800F0B544680120676888401E46C2F38013C2
:1041480027EA00078B403B43636090FAA0F7B7FA71
:1041580087F7D4F808C04FF0030E7F000EFA07F770
:104168002CEA070C90FAA0F7B7FA87F7C2F3C11345
:104178007F00BB4043EA0C03A36090FAA0F3B3FAB4
:1041880083F3E7685B000EFA03F327EA030790FA64
:10419800A0F3B3FA83F302F030055B00C2F34122C7
:1041A8009A403A43202DE26016D107292BDC90FA79
:1041B800A0F3226A2BB3B3FA83F39B000F2101FA11
:1041C80003F322EA030290FAA0F3B3FA83F39B0005
:1041D80006FA03F31343236290FAA0F3B3FA83F3C6
:1041E800226890FAA0F05B000321B0FA80F02D0954
:1041F80001FA03F3400022EA030385401D432560CA
:10420800F0BD2B46D9E7030A616A93FAA3F282B19B
:10421800B2FA82F292000F2793FAA3F3B3FA83F368
:1042280007FA02F29B0021EA02029E4016436662E8
:10423800D2E72A46EEE738B5044690030D46134602
:1042480017D591070ED55A072ED55022D8060BD56B
:1042580042F4007219031AD5616801234968AB401A
:104268008B610DE01022F1E79906F3D542F48062E4
:10427800F0E7DA0313D5D80613D4C3F340139A0230
:10428800606800232946FFF753FF002038BD5B0311
:10429800F6D50121A9402046FFF714FFF0E73022A8
:1042A800EEE74FF40072EBE76FF08500EEE770B5CC
:1042B8000B46896821B101255E680C68854001B903
:1042C80070BD8A682A4002D04B68304698471CB1B6
:1042D800236821461C46F2E72346FAE7F8B51F464D
:1042E800044640680E461546FFF722FF112F07D1F6
:1042F80001212B0501FA06F104D563685B68996111
:104308000020F8BD2046FFF7DDFEF9E730B5036869
:1043180013600579046804EBC504A34202D36FF067
:10432800010030BD5C798C4201D00833F0E70020F1
:10433800F7E74368C1F34B101B6801F01F01C05831
:1043480001238B40034214BF012300231370002074
:10435800704710B54368C1F34B101A6801F01F018C
:10436800845801238B4023438350002010BD10B58F
:104378004368C1F34B14186801F01F012358012248
:104388008A4023EA02032350002010BD38B50446B2
:104398000D46FFF7DEFF29462046FFF7E8FF00201D
:1043A80038BD83689B6903B118476FF057007047A1
:1043B80083689B68184782B003680193019B436830
:1043C8000193019B02B0704708B541680B681A68F1
:1043D8001868C0071868C2F3C00248BF42F002025A
:1043E8008007186848BF42F004024007186848BFB1
:1043F80042F02002C00542BF6FF4807042F008020C
:104408001860D00702D50868FFF7D5FF930702D5D3
:104418000868FFF7D0FF500702D50868FFF7CBFF01
:10442800930602D50868FFF7C6FF104608BD436823
:104438001B68186810F080001CBFD868C0F3801093
:10444800704743681B681868C0F38010704743685A
:104458001B681868C0F34010704743681B681A68E7
:10446800910602D5DA68920607D4186810F0400061
:1044780004D0D868C0F3801070470120704701202D
:1044880070470369C3E902120022C3E90522704795
:10449800436913B1826900691847704710B586B03F
:1044A80004461422002101A800F085FE02238DF89D
:1044B8000430E36E626F0293A36F03929B1AA26F9C
:1044C800049362671BB101A92046FFF7E1FF06B01C
:1044D80010BD10B586B004461422002101A800F0D2
:1044E8006AFE032301A920468DF80430FFF7D0FFA8
:1044F80006B010BD10B586B004461422002101A8EC
:1045080000F059FE04238DF8043001A9E36E0293EC
:104518002046FFF7BDFF06B010BD03690020C3E9C0
:104528000512C3E902007047F8B5046947680646F2
:10453800206A00285FD094F8B00000285ED1C4E952
:104548001B126067A067E367396801F10C0353E841
:10455800003F23F0200301F10C0545E80030002856
:10456800F3D1E36E206A226623658368616A1B685B
:1045780004F128029847002843D1D4E90801FFF73D
:1045880017FF054600283FD13B686FF020021A60EC
:10459800736831691A6802F1140353E8003F43F065
:1045A800400302F1140646E800300028F3D1012345
:1045B80081F8B0303868FFF7FEFE00F10C0353E8CD
:1045C800003F43F0100300F10C0141E80032002ADB
:1045D800F3D13A6802F1140353E8003F43F00103B2
:1045E80002F1140040E800310029F3D12046FFF71A
:1045F80070FF2846F8BD6FF01205FAE76FF00F0557
:10460800F7E76FF01505F4E76FF00D05F1E730B542
:104618000369EFF31184102080F31288BFF36F8FC2
:10462800D3F8500148B993F8B0504DB1C3E95412CA
:1046380084F31188BFF36F8F30BD6FF00F00F7E779
:104648006FF00C00F4E708B5002225201146FCF7AE
:1046580097FABDE808402520FCF784BA08B500227F
:1046680026201146FCF78CFABDE808402620FCF706
:1046780079BA08B5002247201146FCF781FABDE84F
:1046880008404720FCF76EBA37B5036944681868D4
:104698008368DB680D46E168F3B101AA98470028F2
:1046A8001ADB22680198D368192123F40043D360E8
:1046B800A0FB0101AA00AB0FFBF76AFD6422B0FB67
:1046C800F2F102FB11031B0124683233B3FBF2F34E
:1046D80003EB01139BB2A36003B030BD10B588B0E3
:1046E80004466A46D0E90801FFF75BFE48B9019A1B
:1046F800236F9B1A626F934203D9A3672046FFF783
:10470800CDFE08B010BD70B504694668A36886B0D0
:1047180005460BB1E16898473068C368DA0627D5C3
:104728000368DB0624D5FFF746FEE36F43B9286923
:10473800FFF7D4FF284606B0BDE87040FFF744BE37
:104748005A1C012AF6D923EAE37313F163004FEAEE
:10475800E3714FF064024FF0000341F10001FBF7F1
:1047680017FD02460B4604F18000FEF751F9E1E718
:10477800C3685E0622D5036859061FD500F10C03ED
:1047880053E8003F23F0400300F10C0242E80036F2
:10479800002EF3D13146142201A800F00CFDD4F804
:1047A80004310293C4F80861D4F81031C4F81061D8
:1047B80001A920460393FFF76BFEBBE7C3689A067F
:1047C800B8D503689B0644BF6FF020030360B1E7C8
:1047D80030B50469D4F808518FB065B304F58C700E
:1047E80000F05BFBD4E92E0106AAFFF7DAFD18B941
:1047F800079BED1AC4F81051D4E92E018368DB68D1
:1048080098471422002101A800F0D5FC01230025B7
:104818008DF80430D4F8043102932046D4F81031CE
:10482800C4F80851C4F8105101A90393FFF730FEEA
:1048380028460FB030BD6FF00D00FAE7A0F58C7078
:104848000069FFF7C5BFF0B5002B0C6989B00D46AC
:1048580010DA8DF81030E36E0593002306220693D4
:1048680003A9A36F8DF80C2020460793FFF710FECD
:1048780009B0F0BD04F18006304600F00EFB236F4E
:10488800A3672046FFF70AFED4F8503133B3204619
:10489800FFF730FE2C696F68D4F85031D4F85451C2
:1048A800E3660022C4E95422D4E908016267A267DA
:1048B8002567256623658668E26C76680EB10095E3
:1048C800B047D4E90801FFF773FD3868FFF773FDB7
:1048D800204609B0BDE8F040FFF7FBBD01220023E8
:1048E800304609B0BDE8F040FEF792B830B54068F0
:1048F8001024026813681B06FCD5EFF3118384F3B8
:104908001288BFF36F8F026815682D0604D483F3ED
:104918001188BFF36F8FECE7516083F31188BFF301
:104928006F8F30BD08B54368186803681A0701D54A
:10493800FFF741FD03689B0643BF43680B700020E7
:104948004FF0FF3008BD43681A6802F10C0353E8C2
:10495800003F43F0400302F10C0040E80031002919
:10496800F3D1704743681A6802F10C0353E8003F1B
:1049780023F0400302F10C0040E800310029F3D194
:10498800704743681A6802F10C0353E8003F43F08C
:10499800200302F10C0040E800310029F3D17047F0
:1049A80043681A6802F10C0353E8003F23F0200320
:1049B80002F10C0040E800310029F3D17047F0B54E
:1049C8008BB004694768054614220021684600F048
:1049D800F2FB05238DF8003094F8B0303BB920463F
:1049E8006946FFF755FD6FF00D000BB0F0BD3A6852
:1049F80002F10C0353E8003F23F0100302F10C010D
:104A080041E80036002EF3D12869FFF767FE2046FB
:104A1800FFF770FD2B6904F1800083F8B06000F0A7
:104A28003CFAD4E908018368DB689847D4F8505108
:104A38006DB1142231460DEB020000F0BCFB0423DB
:104A480005A920468DF814300695FFF721FD0023AF
:104A5800C4E954333A6802F10C0353E8003F43F0C9
:104A6800200302F10C0141E80035002DF3D1204666
:104A78006946FFF70DFD2846B7E7034650F8700C66
:104A880053F8082C53F8103C9A4201D1FFF797BF0E
:104A98000069FFF723BE30B589B00C69EFF31185C3
:104AA800102383F31288BFF36F8F4B681A6802F1E3
:104AB800140353E8003F23F0800302F1140040E898
:104AC80000310029F3D104F58C7000F0E6F9D4E93F
:104AD8002E016A46FFF765FC28B9D4F80831019A17
:104AE8009B1AC4F810310023C4F8083185F31188E3
:104AF800BFF36F8F09B030BDF8B546683368DC681E
:104B0800DB6814F4805403D013F4C06F13D000246E
:104B1800E3B29A42184603DD35682F68BF0600D411
:104B2800F8BD6868C854306803681B0701D5FFF7EB
:104B380042FC0134ECE76FF08500F1E7F0B5466818
:104B48003368DC68D868E40402D510F4C06F1FD05D
:104B5800186810F080000FD0EFF31187102383F34B
:104B68001288BFF36F8F0023DCB2A242204604DC18
:104B780087F31188BFF36F8FF0BD3568D5F800C093
:104B88001CF0800F03F10103F2D0085D6860EBE7C9
:104B98006FF08500F0E703695B681B680B6043688A
:104BA8001B68DB6803F4C063B3F5806F2FD0A3F5EF
:104BB800C06CDCF1000343EB0C030B7143681B680A
:104BC8001B6903F44053B3F5805F22D0B3F5405F0F
:104BD80021D0002B0CBF012303234B7143681B68B2
:104BE800DA68DB68D20403F4C06316D5002B14BF5F
:104BF800032304238B7143681B685B6903F44073C8
:104C0800A3F5407253425341CB71002070470223F1
:104C1800D3E70023E1E70223DFE7002B14BF0223D9
:104C28000323E7E770B5064640683469D4F8B850FE
:104C3800002D59D0D4F80851002D58D1C4E941129B
:104C4800C4F8143103686FF040021A60026802F178
:104C58000C0353E8003F43F0400302F10C0040E826
:104C680000310029F3D1D4F80431C4F8E430D4F881
:104C7800B800D4F80831C4F8F8308368D4F8BC1008
:104C88001B6804F1C0029847A0BBD4E92E01FFF7C6
:104C98008FFB054688BBD4F814315A1C012A13D956
:104CA80023EAE37313F163004FEAE3714FF0640200
:104CB8004FF0000341F10001FBF76AFA02460B4688
:104CC80004F58C70FDF7A4FE73681A6802F11403EA
:104CD80053E8003F43F0800302F1140040E800313C
:104CE8000029F3D1284670BD6FF01205FAE76FF07E
:104CF8000F05F7E76FF01505F4E76FF00D05F1E71D
:104D08000023C0E90033C0E90233C0E90433C0E935
:104D18000633C0E90833C0E90A33C0E90C338363BA
:104D28007047704740B1C368587810F001001EBF43
:104D38001878B0FA80F040097047EFF31183102318
:104D480083F31288BFF36F8FFEE708B5FFF7F5FF0F
:104D580010B5D0E9003433B90020E268537843F045
:104D68000103537010BD204698470028F4D000284E
:104D7800B8BF4042E368FF28A8BFFF201870ECE7DF
:104D880000F019BA00F009BA08B51024EFF311833E
:104D980084F31288BFF36F8FFEF737FEF6E70268D9
:104DA80001238B4022EA0303036022FA01F000F09A
:104DB8000100704710B5032104460C30FFF7EFFFE0
:104DC80030B104F1100000F06CF9B0FA80F040093D
:104DD80010BD20B100221146883000F040B970475C
:104DE80070B5C368C3F340069B07044616D48568AC
:104DF80002210C30FFF7D3FF80B1D5F880206AB1CB
:104E080094421DD122689EB9D5F88430C5F8802017
:104E18009C4201D1C5F8842000232360E36813F085
:104E28001F001EBF43F00203E36040F0020070BDA4
:104E38003260D5F88420944208BFC5F88460EBE757
:104E480016461268DBE773B50446EFF311851023A5
:104E580083F31288BFF36F8F0023A0F1100603219C
:104E680004380193FFF79BFF28B1A369019301A9B7
:104E78003046FDF707FD85F31188BFF36F8F02B049
:104E880070BD38B5302204460D46002100F093F974
:104E98004FF480736560E36038BD38B50446EFF3BE
:104EA8001185102383F31288BFF36F8FFFF782FFFA
:104EB8002046FFF795FF85F31188BFF36F8F38BD44
:104EC800EFF30580003818BF012070476FF05700D6
:104ED8007047FDF769BFD0E9003213605A600023BC
:104EE800C0E90033704708B5FFF7F5FF437B23F0AF
:104EF800020343730023836008BD38B504460D469A
:104F0800FDF722FE637B43F002036373E5B1A560FE
:104F18002B689D4209D16B68C4E900531C606C6022
:104F280012E06A689A42F6D01B68002BF3D094F915
:104F38000E2093F90E108A42F3D09142F1DD5A689F
:104F4800C4E9003214605C6038BD10B5EFF3118419
:104F5800102383F31288BFF36F8FFDF70DFE84F3E0
:104F68001188BFF36F8F10BD10B50446183000F0DC
:104F780098F8EFF31181102383F31288BFF36F8F32
:104F8800627B1A4004D081F31188BFF36F8F10BD84
:104F98002046BDE81040FDF723BE38B50446EFF3C0
:104FA8001185102383F31288BFF36F8F437B13F0AF
:104FB800280F0BD183680BB1FFF795FF637B51B9BD
:104FC80003F0FB0363732046FDF7D6FD85F31188D4
:104FD800BFF36F8F38BD03F0EB03F3E701211838F7
:104FE800FFF7DBBF38B5EFF31185102383F3128881
:104FF800BFF36F8F0468A0420DD034B12046FFF78D
:1050080072FF04F1180000F04CF885F31188BFF323
:105018006F8F204638BD0024F7E7EFF31181102287
:1050280082F31288BFF36F8F027BD2070CD581F30E
:105038001188BFF36F8F002383F31188BFF36F8F3D
:105048000423184602DF7047437B1B0704D581F30E
:105058001188BFF36F8F70470122FDF7C1BD38B5C6
:10506800EFF31185102383F31288BFF36F8F046861
:10507800A04212D09CB1A16762612046FFF733FFBE
:1050880004F1180000F00DF82046FDF775FD012029
:1050980085F31188BFF36F8F38BD0020F8E72046ED
:1050A800F6E710B5EFF31184102282F31288BFF3EC
:1050B8006F8F03683BB1FEF747F8002084F311882F
:1050C800BFF36F8F10BD6FF01500F7E708B5FEF757
:1050D80059F908BD10B5024601448A42134603D067
:1050E8001C780132002CF8D1181A10BDF0B5C3F1A4
:1050F80037070446FFB203F01F031046082BE6B239
:1051080033D0102B3ED06508A40844EA817445EAE0
:10511800C1752D194FEA910242EB5102290941EA62
:1051280002716D1842EB1212290A41EA02616D18E8
:1051380042EB1222290C41EA02416D1842EB12425D
:10514800AD1842F10002EC0844EA4274D10804EBBD
:105158008402A6EB4205EDB2092D0CD90134A5F164
:105168000A0541F10001EDB212E0E40844EA417495
:1051780006F00705C908303554EA010200F8015B5A
:10518800BCD1F0BD240944EA017406F00F050909F1
:10519800092D84BFED19EDB2EDE70A44914200F103
:1051A800FF3300D1704710B511F8014B03F8014FD8
:1051B8009142F9D110BD02440346934200D1704791
:1051C80003F8011BF9E70000014800687047000078
:0451D800EC060020C1
:0851DC00F0AFFF7F01000000AD
:1051E400E5060008000000009D1100089452000824
:1051F400D10600080000000000000000A8520008CA
:10520400FD19000884530008FD19000848530008DC
:1052140091130008E452000891130008D0520008CA
:10522400573A0008BC520008FD190008345300081E
:10523400FD19000870530008FD1900085C530008AC
:10524400FD19000820530008FD1900080C5300083C
:10525400FD190008F8520008A91E0008AC53000804
:10526400A91E0008C0530008A91E0008985300088E
:10527400FD12000800000000BD200008000000002E
:10528400BD0F000800000000C93300080000000042
:10529400AB5C000800000000240400207604002019
:1052A40000000000525D0008D8590008DC590008CD
:1052B4008C040020000000008D5C00080000000049
:1052C40000000000740400200C070020B85C0008F3
:1052D400CC56000804570008780400208C070020EE
:1052E400C55C0008E8560008045700087A0400204A
:1052F40078080020E25C0008E85800088859000893
:105304007C04002064090020F05C0008FC580008BC
:10531400885900087E04002074090020FE5C0008FF
:1053240010590008885900088004002084090020CE
:105334000C5D0008245900088859000882040020E4
:10534400940900201A5D000838590008885900089B
:1053540084040020A4090020285D00084C5900089A
:105364008859000886040020B4090020365D00082E
:10537400605900088859000888040020C4090020E6
:10538400445D000874590008885900088A04002004
:10539400D4090020635D0008EC590008DC5A0008B9
:1053A4008E04002000000020735D00083C5A0008B1
:1053B400DC5A00089004002058010020835D000896
:1053C4008C5A0008DC5A000892040020B002002025
:1053D40000000000FD39000800000000FD3900084D
:1053E40000000000FD39000800000000FD3900083D
:1053F40000000000FD39000800000000FD3900082D
:105404008B5C0008E10F0008895C0008E10F0008CC
:10541400875C0008E10F0008855C0008E10F0008C4
:10542400835C0008E10F0008E4520008F53D000821
:10543400E4520008FF3D0008E4520008093E000859
:10544400E4520008133E0008E45200081D3E000820
:10545400E4520008273E0008E4520008313E0008E8
:1054640000000000FD39000800000000FD390008BC
:1054740000000000FD39000800000000FD390008AC
:1054840000000000FD390008815C0008E10F0008FD
:1054940000000000FD39000800000000FD3900088C
:1054A40000000000FD39000800000000FD3900087C
:1054B40000000000FD39000800000000FD3900086C
:1054C40000000000FD39000800000000FD3900085C
:1054D40000000000FD39000800000000FD3900084C
:1054E40000000000FD39000800000000FD3900083C
:1054F40000000000FD390008C05300080F470008F1
:10550400AC5300080F47000800000000FD390008F4
:105514007F5C0008E10F000800000000FD3900086E
:1055240000000000FD39000800000000FD390008FB
:1055340000000000FD39000800000000FD390008EB
:1055440000000000FD390008E45200083B3E00085A
:1055540000000000FD39000800000000FD390008CB
:1055640000000000FD39000800000000FD390008BB
:1055740000000000FD39000800000000FD390008AB
:1055840000000000FD39000800000000FD3900089B
:10559400D0520008FB3D0008D0520008053E000828
:1055A400D05200080F3E0008D0520008193E0008EF
:1055B400D0520008233E000800000000FD39000816
:1055C40000000000FD39000800000000FD3900085B
:1055D40000000000FD39000800000000FD3900084B
:1055E40000000000FD39000800000000FD3900083B
:1055F400D05200082D3E0008D0520008373E000863
:10560400D0520008413E0008985300080F47000894
:1056140000000000FD39000800000000FD3900080A
:1056240000000000FD39000800000000FD390008FA
:1056340000000000FD39000800000000FD390008EA
:1056440000000000FD39000800000000FD390008DA
:1056540000000000FD39000800000000FD390008CA
:1056640000000000FD39000800000000FD390008BA
:1056740000000000FD39000800000000FD390008AA
:105684004400000000400000EB5D00080001000041
:1056940000C201000001030000000020000000001F
:1056A40000000B0602000000B056000800000008CD
:1056B400705C00082400020700000020785C0008E9
:1056C40020000B11140400203000000000004000F2
:1056D400573C00080100000000640240080000007C
:1056E400980700203000000000002000D13B000893
:1056F4000000000000600240080000008408002050
:10570400F113000815170008253D0008B916000814
:1057140000000000000000004D130008000000001D
:10572400000000000000000000080000001000005D
:1057340000000000002000000040000000002000E5
:105744000000000000000000000000000000400015
:105754000000000000000000000000000000000045
:1057640000000000000000000000000000006000D5
:1057740000008000000000000000000000000000A5
:105784000000000100000000000000000000000014
:105794000000000000000000000000000000000005
:1057A40000008001C53E0008CD3E0008D53E00083B
:1057B400DD3E0008E53E0008ED3E0008F53E000829
:1057C400FD3E0008F53F0008FB3F000801400008CB
:1057D4000940000811400008174000081D40000857
:1057E40025400008B93F0008BF3F0008C73F000834
:1057F400CF3F0008D73F0008DD3F0008E53F000821
:10580400ED3F00087D3F0008833F00088B3F000800
:10581400933F00089B3F0008A13F0008A93F0008F0
:10582400B13F0008853E00088D3E0008953E000803
:105834009D3E0008A53E0008AD3E0008B53E0008A8
:10584400BD3E0008453E00084D3E0008553E000898
:105854005D3E0008653E00086D3E0008753E000888
:105864007D3E0008413F0008473F00084F3F0008C5
:10587400573F00085F3F0008653F00086D3F000880
:10588400753F0008053F00080B3F0008133F000860
:105894001B3F0008233F0008293F0008313F000850
:1058A400393F00080000000000000002000000046E
:1058B40000000006000000080000000A0000000CC0
:1058C4000000000E000000000100000002000000C3
:1058D40003000000040000000500000006000000B2
:1058E40007000000FFFF0000001C0240070000004A
:1058F4003000000080000000FFFF0000001802409C
:10590400060000003000000040000000FFFF00001F
:1059140000140240050000003000000020000000D8
:10592400FFFF0000001002400400000030000000EF
:1059340010000000FFFF0000000C02400300000004
:105944003000000008000000FFFF000000080240D3
:10595400020000003000000004000000FFFF00000F
:1059640000040240010000003000000002000000BA
:10597400FFFF0000000002400000000030000000B3
:10598400010000003F420008A5400008B1400008A3
:10599400C3400008CD400008D94000082D1A000873
:1059A400E74000080000000084530008705300081A
:1059B4005C5300084853000834530008205300087F
:1059C4000C530008F852000800000000000000001A
:1059D40000000000003802403B4300085B4300081D
:1059E400774300089543000800140140A8520008BA
:1059F40085040000145A00080100000000000000A3
:105A040000000000000000001C5A00087B4600084B
:105A14004400000020000000245A00080100000097
:105A24002C5A000802000000C80400000002000014
:105A3400E80400000000000000440040A8520008F0
:105A440011040000645A0008010000000000000076
:105A540000000000000000006C5A000865460008C1
:105A64004000000000000200745A00080100000019
:105A74007C5A0008020000004700000000020000F9
:105A8400670000000000000000100140A852000858
:105A940084040000B45A0008010000000000000063
:105AA4000000000000000000BC5A00084F46000837
:105AB4004400000010000000C45A00080100000067
:105AC400CC5A000802000000270100000002000078
