:020000040800F2
:10000000801700208D0A00085D070008790A0008A3
:10001000790A0008790A0008790A0008000000003F
:100020000000000000000000000000009D0B000820
:10003000790A000800000000690B00088519000813
:10004000210D0008210D0008210D0008210D0008D8
:10005000210D0008210D0008210D0008210D0008C8
:10006000210D0008210D0008210D0008210D0008B8
:10007000210D0008210D0008210D0008210D0008A8
:10008000210D0008210D0008210D0008210D000898
:10009000210D0008210D0008210D0008210D000888
:1000A000210D0008210D0008210D0008210D000878
:1000B000210D0008210D0008210D0008210D000868
:1000C000210D0008210D0008210D0008210D000858
:1000D000210D0008210D0008210D0008210D000848
:1000E000210D0008210D0008210D0008210D000838
:1000F000210D0008210D0008210D0008210D000828
:10010000210D0008210D0008210D0008210D000817
:10011000210D0008210D0008210D0008210D000807
:10012000210D0008210D0008210D0008210D0008F7
:10013000210D0008210D0008210D0008210D0008E7
:10014000210D0008210D0008210D0008210D0008D7
:10015000210D0008210D0008210D0008210D0008C7
:10016000210D0008210D0008210D0008210D0008B7
:10017000210D0008210D0008210D0008210D0008A7
:10018000210D0008210D0008210D0008210D000897
:08019000210D0008210D0008FB
:1001980053B94AB9002908BF00281CBF4FF0FF31E6
:1001A8004FF0FF3000F00CB8ADF1080C6DE904CE4B
:1001B80000F008F8DDF804E0DDE9022304B0704738
:1001C800704700BF2DE9F04786468C460846089ED2
:1001D800154674461946002B40F0C2808542B2FA93
:1001E80082F245D94AB1C2F1200300FA02FC2EFA84
:1001F80003F3954043EA0C0C94404FEA154EA8B21D
:10020800BCFBFEF8230C0EFB18CC08FB00F943EAF4
:100218000C43994528D9EB1808F1FF3704D29945C2
:1002280002D9A8F102072B44A3EB0903A4B2B3FB3C
:10023800FEFC0EFB1C330CFB00F044EA0344A04216
:1002480014D92C190CF1FF3304D2A04202D9ACF115
:1002580002032C44241A43EA07401EB1D440002369
:1002680034607360BDE8F0874746DDE76346F1E731
:1002780092BB431B01214FEA154EAFB2B3FBFEFC04
:10028800200C0EFB1C330CFB07F840EA034398458F
:1002980062D9EB180CF1FF3004D2984502D9ACF1C1
:1002A80002002B44A3EB0803A4B2B3FBFEFC0EFB35
:1002B8001C330CFB07F744EA0344A7424ED92C1918
:1002C8000CF1FF3304D2A74202D9ACF102032C444B
:1002D800E41B43EA0040C0E7C2F1200320FA03F11F
:1002E800954090402EFA03F303434FEA154EAFB200
:1002F800B1FBFEFC0EFB1C10190C0CFB07F841EAC5
:100308000041884504FA02F422D969180CF1FF303B
:1003180004D2884502D9ACF102002944A1EB0801B6
:100328009BB2B1FBFEFC0EFB1C110CFB07F743EA6A
:1003380001439F420ED9EB180CF1FF3104D29F42C2
:1003480002D9ACF102012B44DB1B41EA004192E7E0
:100358006046E3E76146F7E76046A3E76346B7E729
:10036800834206D916B9002108467BE7C6E900E0B2
:10037800F9E7B3FA83F78FB9834201D3724508D8F6
:10038800BEEB020460EB030301209C461EB900216A
:1003980068E73846FAE7C6E9004CF8E7C7F1200CE9
:1003A800BB4022FA0CF41C432EFA0CF120FA0CF391
:1003B800B84001434FEA14490EFA07F5B3FBF9F8C0
:1003C8001FFA84FE09FB18300B0C08FB0EFA43EAEF
:1003D80000439A4502FA07F240D9E31808F1FF30C2
:1003E80004D29A4502D9A8F102002344A3EB0A03D8
:1003F80089B2B3FBF9F809FB183308FB0EFE41EA92
:1004080003418E452CD9611808F1FF3304D28E457B
:1004180002D9A8F10203214443EA0040A0FB029854
:10042800A1EB0E014145CE46434602D306D14D45C8
:1004380004D2B9EB020E68EB04030138002EA6D0F3
:10044800B5EB0E0261EB030101FA0CFC22FA07F38B
:100458004CEA0303F940C6E9003198E74046C5E78E
:100468004346D9E708B50C4802F075FD0B4B002848
:10047800186002DA0A4802F0F1FA0A4A0A491378BF
:100488000A4883F001031370094A002B18BF11466C
:10049800BDE8084002F0D0BA58410008C80300205F
:1004A80065430008580000206143000880430008A5
:1004B8005E430008F8B5174803F004FA10B9164867
:1004C80002F0CCFA154802F04EFD002802DA144872
:1004D80002F0C4FA134D114E134F0124012128468E
:1004E80003F091FB304602F036FD002802DA384668
:1004F80002F0B4FA0D4B0E490E4894F0010408BFFF
:10050800194602F099FA002142F2107001F0B2FF88
:10051800E4E700BF3C3E000890430008684100083B
:10052800A9430008840000206543000861430008CF
:100538005E430008C74300082DE9F3411A4803F059
:10054800C1F910B9194802F089FA194802F00BFDEF
:10055800002802DA174802F081FA174DDFF85080B8
:10056800012441F2883600270022CDE9006740F6D1
:10057800FF71284603F04BFB80B1404602F0EBFCCC
:10058800002802DA0D4802F069FA0D4B0D490E48B1
:1005980094F0010408BF194602F04EFA002141F216
:1005A800883001F067FFDFE73C3E00089043000811
:1005B80060410008A9430008840000206543000842
:1005C800614300085E430008D7430008D0B588B0EF
:1005D800224803F077F910B9214802F03FFA214880
:1005E80002F0C1FC204B0028186002DA1F4802F014
:1005F80035FA0026002700240523CDE90334CDE988
:100608000667CDE901441A4B1A4900944FF4007269
:10061800194801F0C5FC0423CDE90243CDE906677A
:10062800164B17490494CDE900444FF4007215485D
:1006380001F0B6FC14491548224603F07FFA4FF43E
:100648007A720023CDE90023104844F62062002383
:1006580002F084F9204608B0D0BD00BF3C3E000837
:100668009043000858410008C8030020A943000827
:10067800BD0400088007002058010020410500083B
:1006880040050020C80000206D04000890000020EC
:10069800014B1B68184700BF0000002030B585B02B
:1006A80004460D4610220021684603F027FB02236A
:1006B8008DF802302A46044B01932146684602F021
:1006C800EDF905B030BD00BF99060008014B186070
:1006D800704700BF0000002080B505460E4617464B
:1006E800984601F0E5FE034603F010FBDFF818908A
:1006F800044649F80030424630463946A84754F87F
:10070800090000F0D5F900BF08000000034A53684B
:1007180023F0020353600020704700BF002004E06C
:10072800064B1A6842F400721A601A6842F4806232
:100738001A60034B034A1A6000207047003C0240CD
:100748004C0000200024F400014B03600020704797
:100758007041000808B5034B1B689847BDE808407E
:1007680000F026B80400002030BFFFF7FDBF00BF2F
:100778002DE9F0410B4EDFF8308006EB0807CC1B63
:10078800054632460949204603F0AAFAA01942460E
:100798000021083C03F0B2FAC5F8804007F10800D0
:1007A800BDE8F0810000000004000000504100088E
:1007B800074A936893F90E10002907DB52699342A0
:1007C8001FBF044A536843F080535360704700BF0B
:1007D800F804002000ED00E070B5264B15469A6A33
:1007E80012F0100F9A6A14BF1124102412F0080F87
:1007F8009A6A18BF1224920706460AD5586B9A6A55
:10080800140634D519B19A6A22F080029A62132428
:1008180001E06FF01500174B9A6A12F0010F9A6AFF
:1008280018BF142412F0200F9A6A18BF1524D20694
:1008380002D49B6A9B070AD50E4B5B68190506D53F
:10084800314600F01DFA10B180F309880224094BE3
:100858009A6A920642BF5A6A22F400525A629A6A07
:1008680042F0FF029A6200232B70204670BD6FF0A1
:100878001500CCE700ED00E0134B9A6A12F0007FF8
:100888009A6A14BF1E201D2012F0807F9A6A18BF32
:100898001F2012F4002F9A6A18BF212012F4802F0B
:1008A8009A6A18BF222012F4003F9A6A18BF2320C0
:1008B80012F4803F9A6A6FEA02426FEA12429A6221
:1008C80018BF2420704700BF00ED00E010B5194B99
:1008D8000246986A9C6A10F4805F14BF172016209D
:1008E80014F4006F9C6A18BF1820A40509D5986BEA
:1008F800986A000404D51AB19A6A22F400429A62EE
:1009080019200C4B9A6A12F4806F9A6A18BF1A2041
:10091800D2050CD49B6A13F4005F18BF1C20054A4B
:10092800936A43F47F43936200230B7010BD1B202E
:10093800F5E700BF00ED00E0F0B5484B5B688BB011
:100948000446C3F30803002585F31188BFF36F8FAE
:1009580002F07F40B0F17F4F11D102F00C0008285F
:100968000DD010074CBF0C4601250022033B8DF823
:100978000720032B05D8DFE803F0246367602C46C3
:10098800F3E700239DF80720CAB902AE04F1200757
:1009980020686168324603C20834BC421646F7D163
:1009A800099A002D54D0C2F3080121B96FEA5222E6
:1009B8006FEA4222099202A9184602F067FB0BB0BF
:1009C800F0BD264BDA6A9107DBD4DA6A002AD8DB55
:1009D800DA6A5200D5D55A69A16942F480725A611F
:1009E800BFF34F8FBFF36F8F5A6931F8021C22F49F
:1009F80080725A61BFF34F8FBFF36F8F4DF602724B
:100A080091420AD09A6AD2B24AB10DF10702012185
:100A18002046FFF7E1FE0346B4E72368B2E79A6A87
:100A280012F47F4F05D00DF107010120FFF74EFFAB
:100A3800F1E79B6AB3F5803FA3D3FFF71DFFEAE711
:100A48000DF107020021E3E70DF107010020EDE7B2
:100A580022F4FF7222F00102ACE700BF00ED00E0D3
:100A6800024A536943F010035361704700ED00E0F8
:100A7800EFF30880EFF3098101B57246FFF75CFFD9
:100A880001BD00BF102080F3118808484FF40461AD
:100A9800401880F30988EFF314800221084380F39B
:100AA8001488BFF36F8F00F0ABF80000C009002076
:100AB800084B9B6883420BD1EFF3058343B1064B88
:100AC8005A6842F080525A605A6A22F400425A62C6
:100AD80002F0D5BFF804002000ED00E00A4A936850
:100AE8006FF00A01C3F888100849C3F884004B68FE
:100AF80043F080534B60002383F31188BFF36F8F5B
:100B08009368D3F888007047F804002000ED00E0EF
:100B180010B50446EFF31183102383F31288BFF353
:100B28006F8F0C4B586998600B4B4FF000625A60FE
:100B38000A4BD0F880201A600022D0F88430C0F820
:100B4800842083F31188BFF36F8F00F003F92046E8
:100B580010BD00BFF804002000ED00E0CC03002029
:100B68000B498A684FF030001044EFF3098C80E895
:100B7800F01F74467046FFF7CBFFA64604498A6803
:100B880002F1300090E8F01F8CF3098870470000EC
:100B9800F80400201EF0040F0CBFEFF30880EFF3F9
:100BA8000980816911F8021C0229FFD001B502F001
:100BB80073FA01BD40B2002807DB044A410901234A
:100BC80000F01F00834042F82130704700E100E048
:100BD80040B20028A8BF00F1604001F10101B8BF90
:100BE800064B4FEA0111ACBF00F5614000F00F0061
:100BF800C9B2B4BF195480F80013704714ED00E06F
:100C08000F4A08B50F4B22F07F029A60BFF34F8F4F
:100C1800BFF36F8FD3F8882022F47002C3F88820BE
:100C2800EFF3148323F0040383F31488BFF36F8F67
:100C380001F0AAF801F0C8FC00F062F801F0F6F83B
:100C48000000000800ED00E042F8203C009B42F85C
:100C58001C3C0A49019B42F8183C029B42F8143C90
:100C680021F001014FF0807342F8043C42F8081C5F
:100C78000023203A0265C0F884307047E106000876
:100C8800094A0346906870B113F1160F006F05D03A
:100C9800A0F140029A4205D8834203D2814228BF7C
:100CA8000020704700207047F804002008B515465A
:100CB8000C4A0D4B9060D0F880201A600E4600F068
:100CC80049F82C4686F309884FF00000074B9847EF
:100CD80020464FF000014FF000024FF00003044C93
:100CE800204700BFF8040020CC030020B1300008E2
:100CF800E1060008014B10221A61704700ED00E080
:100D0800044800231021C2180133562B82F800131F
:100D1800F9D1704700E100E008B5EFF30583064A12
:100D2800103B02EBC30152F8330049688847BDE81D
:100D38000840FFF73DBD00BFA03E0008024B034A34
:100D48000348012100F076B80000022000000020CE
:100D580070410008026F054B403A1A60044A40216E
:100D6800C3E901121846012100F06EB8D003002033
:100D780000000B15084AC2F898000B6823F01F03FF
:100D8800034343F01003C2F89C308B6843F001031F
:100D9800C2F8A030704700BF00ED00E02DE9F04335
:100DA800DFF8608085B00E461F4604464FF0000904
:100DB800B14523DA6068D8B13FB1411E08421BD162
:100DC8001F2819D92368194216D12368019302F004
:100DD8007FF9A36803430393D8F89050C5F3072518
:100DE800D0B2013DA84207D801A9FFF7C3FF421CB2
:100DF80009F101090C34DBE76FF01502104605B064
:100E0800BDE8F08300ED00E0044B0522C3F8942010
:100E1800BFF34F8FBFF36F8F704700BF00ED00E047
:100E2800BFF35F8F024B0022C3F89420704700BFC6
:100E380000ED00E010B5034C01232278FFF7AEFF68
:100E4800207010BD2805002008B50B4A0023127831
:100E5800FFF7A4FF10F1160F07D0084A0021D2F8B7
:100E68009030C3F30723984200DB08BDC2F898000E
:100E7800C2F8A0100130F2E72805002000ED00E0DC
:100E88002DE9FF41524B534CD3F890302568C3F3FA
:100E980007239D4200F29980FFF7C2FF00200C262D
:100EA800854218D14C4C4D4F25706846FFF74CFCD5
:100EB800DFF81C8106460025AE4213D12378444949
:100EC8000020D1F89020C2F30722934277DBFFF786
:100ED8009BFF00201CE0616806FB0011FFF74AFF3A
:100EE8000130DDE7009800EB05114FEA051CCB68DF
:100EF8003B40B3F5000F50D00DD8B3F5001F36D0E6
:100F0800B3F5800F3ED0B3F5801F13D06FF01500F6
:100F180004B0BDE8F081B3F1807F47D0B3F1007F22
:100F2800F4D150F80C3088684A6802F0D1F840F4DF
:100F3800802009E050F80C3088684A6802F0C8F848
:100F480040F0885040F43020CDE901230390D8F8D0
:100F580090302078C3F30723013B9842D6D801A9E3
:100F6800FFF708FF2378013323700135A4E750F811
:100F78000C3088684A6802F0ABF840F0885040F4BA
:100F88000020E1E750F80C3088684A6802F0A0F8C1
:100F980040F0E06040F40030D6E750F80C30886844
:100FA8004A6802F095F840F08270CDE750F80C30AE
:100FB80088684A6802F08CF840F08870C4E7C1F885
:100FC8009830C1F8A00001337BE74FF0FF309FE76E
:100FD80000ED00E07C410008280500200000F0FF3B
:100FE80008B5024B1B689847002008BDDC030020A9
:100FF800034B044A1860937843F0020393707047D8
:10100800DC0300200800002008B50649064821F046
:101018000701C1F1005202F5003201F0EAFF002099
:1010280008BD00BFC7170020E00300202DE9F041EC
:101038000F4E104F054600244FF001082B7853FA45
:1010480084F01F280DDC726908FA00F333EA020203
:1010580007D1736157F830301BB107EBC0025168F4
:1010680098476A780134E3B29A42E7D2BDE8F08142
:10107800003C0140EC030020044B184400230133DA
:10108800994200F8012BFADC704700BF5900002094
:1010980010B4064B064902460C68185601239340C3
:1010A80023430B6010BCFFF785BD00BF590000202B
:1010B800003C01401F2806DC034901220B688240DE
:1010C80023EA02030B607047003C014003292AD839
:1010D800DFE801F0020E141F134B012299688240C9
:1010E80021EA02019960D96821EA0202DA607047B0
:1010F8000D4B0122996882401143F3E70A4B012204
:10110800D96882401143D960996821EA02029A603D
:101118007047012303FA00F0034B9A6802439A6070
:10112800DA681043D8607047003C014030B50A4B7C
:1011380053F830408C4204D103EBC0056D689542EA
:1011480005D034B943F8301003EBC0035A600020CF
:1011580030BD6FF00F00FBE7EC030020034B0022CB
:1011680043F8302003EBC0035A607047EC030020BB
:1011780010B51B4B18680B68442B14461DD82F2B31
:1011880005D85A1E042A0DD96FF0850014E0A3F182
:10119800300101228A4013490A420BD1402BF3D176
:1011A800400807E0023B032B04D8DFE803F00216EF
:1011B800090F00202060002010BDA82BFAD0E3E71B
:1011C80000F09CF8602380085843E9E700F096F89F
:1011D8006023800858438008ECE74FF4FA40E9E7B9
:1011E8004C0000201101100070B5404C404D00F03B
:1011F8009BF800F087FCA3683E4AC3F30313D35C53
:1012080020FA03F613781D41AE4202D2284600F0B8
:10121800A7FC236823F480232360236843F48033E6
:101228002360324B1A689203FCD55A6F42F00102D0
:101238005A675A6F9407FCD59A6802F00C02082A7C
:1012480017D11A68900707D41A6842F001021A6089
:10125800264A13689907FCD5244B9A6822F00302A2
:101268009A609A6812F00C0FFBD19A6822F0F0028B
:101278009A601E4C236823F080732360636823F40C
:1012880040336360636823F0706343F08063636096
:1012980000F038F8236843F08073236023689B01CB
:1012A800FCD5A36823F0F003A360A36823F003032D
:1012B80043F00203A3600D4CA36803F00C03082B52
:1012C800FAD1AE4202D3284600F04AFC0A4B084A3B
:1012D8001A60A36823F4E05343F48053A360A3681F
:1012E80023F46043A360002070BD00BF00380240B3
:1012F80000D8B805C04400084C00002000487047DA
:1013080000127A00054B06495A681140054A0A43FB
:101318005A605A6822F440325A60704700380240D6
:101328000080BFFF04184000064B1A6C42F0805240
:101338001A641B6C82B003F080530193019B02B0C6
:10134800704700BF0038024008B5074802F0BAFAF3
:1013580038B10648FFF74CFE0448FFF7B7F90020FC
:1013680008BD6FF01200FBE78C3E000879130008F7
:101378000A2838B5074D044604D1AB680D215B68CF
:1013880028469847AB6803485B68E1B2984720460F
:1013980038BD00BF8C3E000838B503690446586064
:1013A800084D284602F08EFA40B16168AB680C31EE
:1013B8001B682846984700EAE07038BD6FF01200B5
:1013C800FBE700BFB03D0008F7B50C461146B1F584
:1013D800001F476802691D4624D104F00302043245
:1013E80092000F23934043EA9403DAB2344902325D
:1013F80051F82220190C02EA134391FAA1F2B2FA29
:1014080082F2D340BA689A4209D12046FFF752FEC9
:101418002046FFF7A3FE00212046FFF757FE0020D5
:1014280003B0F0BDB1F5800F41D026492046FFF743
:101438007DFE00283ED1B5F1806F34D0B5F1C06F84
:1014480033D0B5F1007F38D102261F4ABD6892E833
:1014580003006B4683E803001C488268194612683B
:101468009047C0B904F0030304339B000F229A404D
:1014780042EA9402D3B29B0003F1804303F59C3304
:10148800110C986820EA124091FAA1F2B2FA82F29D
:10149800954005439D6020463146FFF717FE2046DC
:1014A800FFF7F6FDBBE70126CFE70326CDE76FF090
:1014B8008500B5E76FF00F00B2E76FF01500AFE7F2
:1014C800003801408F34000850410008B03D000842
:1014D8002DE9F0471E4F044600EBC1060025B44233
:1014E80001D1002014E02068C30600F01F0911D4C0
:1014F800656845F02005C0F3471AC0F343200A2861
:1015080023D857F82080B8F1000F0DD16FF01200E2
:10151800BDE8F087B9F1100F04D0B9F1110FEAD185
:101528006568E8E73025E6E7404602F0CBF9002891
:10153800ECD04B462A460AF00F01404601F0BAFFAC
:10154800002804F10804CADAE2E76FF01500DFE7C3
:10155800644200084268116801F1140353E8003F2F
:1015680043F0010301F1140C4CE800300028F3D1DA
:1015780013680E498B4207D0A1F54C418B4203D02A
:1015880001F550418B4203D1196941F040011961BD
:10159800126802F10C0353E8003F43F4807302F130
:1015A8000C0040E800310029F3D1704700100140D9
:1015B8004268116801F1140353E8003F23F0010366
:1015C80001F1140C4CE800300028F3D113680E49DF
:1015D8008B4207D0A1F54C418B4203D001F5504115
:1015E8008B4203D1196921F040011961126802F197
:1015F8000C0353E8003F23F4807302F10C0040E829
:1016080000310029F3D1704700100140F8B5036993
:101618000C465E6823794168012B34D09A1E5542E6
:101628005541AD026279022A9CBF354F37F812C086
:10163800A27988BF4FF4005C042A27D0003B18BF6A
:1016480001231B03E279012A0A680CBF4FF4407793
:101658000027A642D1681CD121F4B05129430B437D
:10166800D360136923F4405343EA0C0313614368BE
:101678001A68536923F440733B4353613168BDE8EA
:10168800F84002F031B84FF4C065CBE74FF480530F
:10169800D8E701F4C0618D421FBFD16821F4C06151
:1016A8002943D160426811680A6902F4405294459E
:1016B8001FBF0A6922F4405242EA0C020A614268DA
:1016C8001168CA6802F4805293421FBFCA6822F4A4
:1016D80080521343CB6043681A68536903F440731C
:1016E8009F421FBF536923F440733B4353612168F2
:1016F8003368994203D001F0F7FF23683360F8BDDF
:10170800584300082DE9F04103694768D3F804807D
:101718000B790C46012B4979A57936D102294FD985
:10172800042D4AD04FF480564FF4C06203238B42F5
:1017380043D1002E7CD0002A14BF03220422AA42DF
:101748003BD1E3796BB1012B37D13B683B4A9342DC
:1017580007D0A2F54C42934203D002F5504293427F
:101768002BD13A68D36823F40053D3602146FFF79E
:101778004DFF3A68D36843F40053D36094E80300FC
:1017880088E803000020BDE8F081022B08D1022977
:1017980021D9042D11D04FF480624FF48056C5E74B
:1017A80002290A461FD9042D04D133B94FF48056B3
:1017B8001A46BBE763BB0329C1D06FF08500E2E797
:1017C8001F4A042D32F811C0F7D04FF4C062033B12
:1017D800012B10D8F1E71A4A042D32F811C0ECD0C9
:1017E8004FF48062F3E7164A042D32F811C016D17F
:1017F800002BE2D11A464FF48056BCF5805F13D017
:10180800BCF5405F12D0BCF1000F8FD101238EE7E9
:10181800033B012BD1D90022BFE70022D7E7002BD9
:10182800FBD11A461E46E8E7002380E702237EE73D
:10183800002A14BF0222032281E700BF00100140E2
:1018480058430008F7B505694668044629482860E2
:1018580002F038F818B96FF0120003B0F0BD28682C
:10186800F16883681B6898470028F6DB306A01AA8C
:10187800002101F037FE0028EFDB019B00221979D7
:101888001868FFF725FE0028E7DB656823692A68E2
:101898005F68D36823F40053D360686802F012F8D5
:1018A8000028D8D0D5E901018368DB6803B19847DF
:1018B8002A6802F10C0353E8003F43F00C0302F1DD
:1018C8000C0040E800310029F3D139462046FFF7E3
:1018D8009DFE2B7D23B12A68536943F008035361A9
:1018E8002A68D36843F40053D3602046736A984744
:1018F8000020B2E7B03D000810B54FF0E0230F49D3
:101908009C691A6908689B690D4902F4803234B9E8
:1019180093B903464AB90A681044C01A10BD002B8F
:1019280008BF03460AB9A342F5D90A6802440A6007
:101938004FF0E0221269EEE70446F3E7F0040020D6
:10194800EC0400200A4B102283F82320094B4FF4A3
:1019580016521A60084B002018604FF0E02342F23C
:101968007F525A6198611A6942F007021A617047FA
:1019780000ED00E0F0040020EC04002010B5FFF7B3
:10198800BBFF104B1049D3E900420868001942F127
:101998000002C3E900020D4A00230B60D2E90041AE
:1019A8004FF41653001BB0FBF3F043431B1941F1EE
:1019B8000001C2E9003100F0E1FEBDE81040FEF789
:1019C800F7BE00BFF0010020EC040020E801002071
:1019D8002DE9F041DFF8DC8099B1421C0BD14FF0C2
:1019E800E022136923F0010313614FF07F43C8F825
:1019F8000030BDE8F081D8F80060012807DC002736
:101A08000BE0431CD8F80060F7D140F2D26040F2F6
:101A1800D3639842A8BF1846471EEFF311851023D9
:101A280083F31288BFF36F8FFFF766FF224C4FF0E6
:101A3800E0239969D4E90023801843F10003C4E93D
:101A480000031E4B00221A601D4B1A68831A2ED4FD
:101A58004FF4165C0CFB073303F515533F33B3FB08
:101A6800FCF7131A0CFB0733B3F5806F154A38BF20
:101A78004FF48063934228BF13464FF0E022C8F822
:101A88000030013B90695361002393618142A1EBCF
:101A98000003D4E9001238BF9B195B1842F1000219
:101AA800C4E9003285F31188BFF36F8FA1E74FF4C3
:101AB8008063E2E7F0040020F0010020EC0400203D
:101AC800E801002000C3FF0038B5EFF311851023AB
:101AD80083F31288BFF36F8F084B1C68084B1B6891
:101AE800E41AFFF709FF85F31188BFF36F8F4FF4EE
:101AF80016532044B0FBF3F038BD00BFF0010020BE
:101B0800E801002008B513498B6803F00C03042B87
:101B18001CD0082B1CD14A684B68496813F4800311
:101B280014BF0D480D48C1F3881118BF002302F0F7
:101B38003F02A1FB0001FEF72BFB064B5B68C3F3DA
:101B4800014301335B00B0FBF3F008BD0248FCE73A
:101B58000248FAE70038024000127A000024F40034
:101B6800002876D03C4B1A6802F44042B2F5404F48
:101B780020D13A4A904215D8394A904207D91A6872
:101B880002F44042B2F5004F5CD102201FE0354A12
:101B980090421A6802F4404247D9B2F5004F4CD13E
:101BA800012014E01A6802F44042B2F5004F3FD118
:101BB80003200CE01A6802F44042B2F5004F22D12B
:101BC800274A90423ED8274A90422ED90020224BDD
:101BD8001B68012838BF012003F44043B3F5804F48
:101BE8001FD0214A136823F00703034313601368C7
:101BF80003F0070398421CBF136803F00703C01AD9
:101C080018BF012070471B6803F44043B3F5804FA9
:101C18000CD1134B98421AD8124B98424FF000003F
:101C2800DFD9012838BF0120DBE71B680020D8E78F
:101C38001B68032003F44043D0E71B68012003F42A
:101C48004043CBE71B68022003F44043C6E7022069
:101C5800C7E70120704700BF00700040804A5D055B
:101C68000090D00380C3C901003C024038B5EFF3AF
:101C78001185102383F31288BFF36F8F064B9C687E
:101C880001F033FE85F31188BFF36F8F2046BDE85E
:101C98003840FEF70DBF00BFF804002038B5094BE7
:101CA80053F82040013053F82050A54200D838BDE1
:101CB800636823B1204601F01BFE0834F5E723686A
:101CC8009847FAE74043000870B52A4B2A4C2B4D39
:101CD800012286B003201A70FFF7E0FF00F0A6FE8D
:101CE8000420FFF7DBFF2646AE4204F1300410D390
:101CF80000F002FB204C224EAC4226D300F010FB31
:101D0800FEF764FC1F4A137B23F00103137306B02C
:101D180070BD54F80C3C059354F8103C049354F8E7
:101D2800143C039354F8183C029354F81C3C019358
:101D380054F8203C009354E90A2354E90C0100F0BC
:101D4800E1F854F8303C5E65CDE7D4E90A23B3F1F5
:101D5800FF3F08BFB2F1FF3F05D052EA03012068F8
:101D680003D101F0ECFD3034C6E73146183000F0FD
:101D78008BFCF8E729050020504100085041000875
:101D88007F3A00088802002008B50348034A00216A
:101D9800121A01F0C5FD08BD900000202C05002096
:101DA80070B51C4E1C4D1D49902303FB006686B080
:101DB80000230122CDE904230F22CDE90232019349
:101DC800142303FB005504464FF4C070144B0095D0
:101DD8004FF4A07200FB0411304600F093F8737BB7
:101DE800104AEE6023F0040373734FF4046304FB9A
:101DF800033313446B600C4B2C74BFF35B8F53E8B5
:101E0800001F013143E80012002AF8D1BFF35B8FAD
:101E180006B070BDF8010020F80400200012002070
:101E280031390008C0090020F4040020BFB50020A3
:101E3800FFF734FF2B4B83F308882B4D2B4E6B6930
:101E48002B4F43F400736B610024F02385F8223094
:101E5800EC772C766C76AC7685F820406B6A43F488
:101E6800E0236B62FEF7FCFDFEF744FF4FF0FF3303
:101E7800AB62EB62FFF704F8FEF760FF1D4BB3603F
:101E880040F201129A81C3E91C44DC6701F019FD94
:101E98000120FFF703FF0220174DFFF7FFFE00F0B8
:101EA8005FFA164B75610593012315490094CDE936
:101EB80003434FF480623B46CDE90144284600F0D5
:101EC80021F86A7B064622F0040228466A7301F06C
:101ED80072FD2046FFF764FF3A4631462846FEF772
:101EE800E5FE00BF0012002000ED00E0F80400202D
:101EF800D11C00081803002088020020D0440008E4
:101F0800801300202DE9F043073285B022F0070244
:101F18000E461F461099017300F158037F32C0E93D
:101F280016330446002322F03F02042183604173E4
:101F38003F2A0F98A073C4E90633E37306F14009FA
:101F4800A2F1400805D883F31188BFF36F8F0846C4
:101F580002DFB51829462046FEF70AFC07300E9B1B
:101F680020F00700A067C4E91C9802930D9B019319
:101F78002D1A0C9B00932A463B4631462046FEF715
:101F880063FE0023636584F86C30044B9B6803B1DF
:101F9800DB6FE367284605B0BDE8F083F80400204E
:101FA800F0B587B000250595109D04950F9D039504
:101FB8000E9D0295DDE912760D9D01950C9D00950B
:101FC8000446FFF79FFFB6F1FF3F08BFB7F1FF3F99
:101FD80005D056EA070305D1204600F05BF92046F4
:101FE80007B0F0BD03493A46334604F1180000F043
:101FF8004BFBF4E77F3A000838B50D4D2B4653F8F4
:10200800184F9C4200D004B9EC68AB6838B95A7BC9
:10201800D20604D1A26912B9DA897F2A05D89C426E
:1020280002D0204600F078FA23466B6138BD00BF25
:10203800F804002008B590F90D20437B002A0146DA
:1020480004DA03F07F03437301F07BFC044B9868C8
:10205800431A58425841BDE80840FFF7CDBF00BFBA
:10206800F804002070B490F90D30427B002B29DB76
:10207800D30627D183692BBB134962F07F024273D1
:102088000A4652F8184F944218BF2346CC6923B920
:10209800C0E900242060C8610CE090F90E5093F963
:1020A8000E60B5420AD0AE4208DD5A68C0E9003277
:1020B8001060586070BC0020FFF79EBF9C42E7D0BC
:1020C8001B68E4E770BC7047F80400202DE9F04174
:1020D800002A427B0E460CBF1021082111420446FB
:1020E8000FD141EA0203D20918D1437308291BD042
:1020F8000120FFF781FFBFF35F8F637B23F060034D
:102108006373264B9B68A34241D1EFF30583002BF1
:102118003DD13046BDE8F041FEF7E0BC03F07F0357
:10212800437301F00EFCE1E7A36813B1204601F008
:1021380010FC04F1180001F0E6FC04F158074FF018
:102148000008A56DBD4200D0A5B9144DAB689C42EE
:10215800CED1EFF30583002BCAD00120FFF74CFF47
:102168000F4BAB6040F201129A810022C3E91C2296
:10217800DA67C0E7284601F0ECFB05F1180001F02A
:10218800C2FCC5F888802846FFF76CFFD9E786F3BC
:102198001188BFF36F8FBDE8F08100BFF8040020FD
:1021A8001803002070B590F90D20437B002A0146E2
:1021B80004DA03F07F03437301F0C3FB4B7B154A3A
:1021C80063F07F0310464B7350F8183FD46983427D
:1021D80008BF002323B9C1E900042160D1610CE0E4
:1021E80091F90E5093F90E60B5420ED0AE420CDD57
:1021F8005868C1E90030016059609068431A584234
:10220800BDE870405841FFF7F7BE9C42E3D01B6819
:10221800E0E700BFF8040020F8B5124B0C46114661
:10222800114A98681060DDE90676EFF311821022F2
:1022380082F31288BFF36F8F9D68284601F093FBE5
:10224800B6F1FF3F08BFB7F1FF3F06D007493A464E
:10225800334605F1180000F017FA2046BDE8F840AB
:10226800FEF73CBCF8040020180500207F3A00085F
:1022780049B9EFF3058030B9054B5A699B689A4212
:1022880001D0FEF72BBC81F31188BFF36F8F704725
:10229800F804002010B5EFF31184102282F312889D
:1022A800BFF36F8F427B510704D484F31188BFF3C7
:1022B8006F8F10BD22F004024273FFF7D3FE214650
:1022C8000248BDE81040FFF7D3BF00BF2A05002031
:1022D800034648B9EFF3058232B9064A5169926854
:1022E800914201D0FEF7FABB83F31188BFF36F8FD9
:1022F800704700BFF8040020EFF31181102383F327
:102308001288BFF36F8F054B9A68D37B013BD37359
:1023180081F31188BFF36F8F704700BFF804002066
:1023280038B5EFF31185102484F31288BFF36F8F4B
:102338000A4B9A68D37B0133D3730020FFF75CFE06
:1023480085F31188BFF36F8FEFF3118084F3128840
:10235800BFF36F8FBDE83840FFF7BABFF80400201D
:10236800024B03F11802C3E906227047F804002063
:10237800F8B5EFF31185102383F31288BFF36F8F3D
:1023880019498868437B03F07F03437301F0D9FA46
:102398008B685A7B084662F07F025A7350F8182FF0
:1023A800CC69824208BF002222B9C3E90004236035
:1023B800CB610CE093F90E6092F90E70BE420ED01C
:1023C800B7420CDD5168C3E900210B60536001205E
:1023D800FFF712FE2846BDE8F840FEF77FBBA24291
:1023E800E3D01268E0E700BFF804002050EA0103D8
:1023F8002DE9F04105460E4603D1FFF7B9FF00204D
:102408002BE0831C71F1FF3329DB01F091FB2C18C1
:10241800EFF31188102383F31288BFF36F8F124FE5
:10242800124BB8681860FFF705FEB86810492A46CD
:102438003346183000F028F9BA68537B43F010038C
:1024480053734046FEF74AFB01F072FB201A63EB18
:102458000303012873F10003D1DBBDE8F0816FF0BD
:102468000104241AD4E700BFF8040020180500204E
:102478007F3A0008B1F1FF3F08BFB0F1FF3F08B550
:1024880006D10A4B986801F0A5FA4FF0FF3008BD55
:10249800FFF7ACFFC11709304FF00A024FF00003F5
:1024A80041F10001FDF774FEF1E700BFF8040020D8
:1024B800014B9868704700BFF8040020044BC01A0D
:1024C800044BC0105843044B01221A54704700BFF4
:1024D800A8030020ABAAAAAA2A050020C3897F2B3B
:1024E80012D80A4B1B6863B1094B90F90E201B6880
:1024F8009A4209DB437BDB0606D1064BC31A18BF99
:10250800012303F0010070470023FAE720050020AB
:102518001C050020F801002070B50E4B0E4C1E7CE7
:1025280006EB460304EBC3040546204601F0EBFA2C
:102538000A4B002228469A55FFF7D0FF48B1084BAE
:1025480008491A68013A2046D317BDE8704000F0E0
:102558009BB870BDF8040020A80300202A050020BD
:1025680020050020C524000838B5EFF31185102395
:1025780083F31288BFF36F8F104B114A9C68106861
:10258800A04206D1FFF7C8FF85F31188BFF36F8F0C
:1025980038BD00211B7C11600A4AD35C002BF3D0A4
:1025A8002046FFF79BFF0028EED0637BDB0602D1B5
:1025B8002046FFF7F7FD2046E4E700BFF8040020B7
:1025C800180500202A05002008B50648064A0749CC
:1025D800121A01F0A7F9BDE80840054A054906485E
:1025E80001F0A0B90000002090000020204500085C
:1025F800000000002045000800000020034B1B6875
:102608000BB9FFF761BA0020704700BF240500200E
:1026180030B570B10B4B5B6898420AD0036843B180
:10262800D3E90421D0E90445121941EB0501C3E9B6
:102638000421D0E9003213605A600023C0E9003356
:1026480030BD00BF5000002010B50E4B1C689C42E6
:1026580004D1FFF7D3FF6FF0004010BDFFF7CEFFA6
:10266800002CF8D0D4E904321B1A62EBE072B3F103
:10267800004F72F10001EEDA002AACBF18460020C4
:10268800EBE700BF50000020B3F1FF3F08BFB2F1F5
:10269800FF3FF8B504461D4616465ED08160EFF34D
:1026A8001187102383F31288BFF36F8F013275F1FE
:1026B800FF3324DA2E49D1E900206FF001039B1A79
:1026C8004FF0FF3262EB00009E1B60EB0500012E0D
:1026D80070F1000301DA01260020C4E90460254EE8
:1026E800D6F800C07568B44508BF4FF0000CBCF1BF
:1026F800000F0DD1C4E900652C6074601CE0FFF781
:102708007DFF013645F10005361845EBE070E4E73A
:10271800DCE90420D4E90431934271EB000E1DDAA0
:10272800D21ADCF8043060EB0100CCE90420C4E9DB
:1027380000C31C60CCF804403368B34209D09C4203
:1027480007D10D4B1C6824B9FFF77EFF2146FFF720
:102758003FF987F31188BFF36F8FF8BD9B1A61EBC0
:102768000001AC45C4E90431C4D0DCF800C0BEE7C0
:10277800C003002050000020240500202DE9F84F58
:10278800EFF3118C102383F31288BFF36F8FDFF8F8
:10279800B0A0DFF8B0902C4FC9F80000DAF80000BC
:1027A8000024504508BF00200025D7E90021D9F8AA
:1027B8000030E04678B3D0E9046C4FEAE37EB342D8
:1027C8007EEB0C0B05DAF61A6CEB0E04C0E9046418
:1027D80021E0B21841EBE671C0E90445C7E90021E0
:1027E800FFF716FF88F31188BFF36F8F8368984748
:1027F800EFF31188102383F31288BFF36F8FD9F892
:102808000030DAF800009B1B5045C446C9F8003078
:10281800CBD1D7E900219A1841EBE3730024C7E92B
:102828000023C9F80040FFF70FFF2146FFF7D0F853
:1028380088F31188BFF36F8FBDE8F84FFFF794BE98
:102848005000002024050020C003002010B5EFF33D
:102858001184102383F31288BFF36F8FFFF7CEFE26
:10286800054A0346D2E90001181841EBE37184F3E5
:102878001188BFF36F8F10BDC0030020F8B5044660
:10288800EFF31187102383F31288BFF36F8F026869
:1028980022B187F31188BFF36F8FF8BDD0E90A36EC
:1028A800581C46F10001022871F1000127D3012BC1
:1028B80076F10001BCBF012316465D1E46F1FF36C6
:1028C80001F03AF9013041F10001401946EB0101EC
:1028D800012871F100013ADB01F02EF9013041F1D4
:1028E80000016FF00102401946EB0103121A4FF084
:1028F800FF3161EB030318492046FFF7C5FE236B40
:1029080001332363236A6BB187F31188BFF36F8F99
:10291800236A20469847EFF31187102383F3128820
:10292800BFF36F8F54F8185FA542B2D0002DB0D016
:10293800284601F068F80023C5F8883087F3118825
:10294800BFF36F8F2846BDE8F84001F034B86FF048
:1029580001024FF0FF33CEE7852800082DE9F0414A
:1029680005461C4690461F46EFF31186102383F355
:102978001288BFF36F8FB4F1FF3F08BFB2F1FF3F7A
:1029880005D186F31188BFF36F8FBDE8F081531C22
:1029980074F1FF3309DB012A74F10003BCBF012283
:1029A800002412F1FF3844F1FF37284601F0ABF854
:1029B800DDE906010023C5E90A012B630349424604
:1029C8003B462846FFF760FEDBE700BF8528000886
:1029D8002DE9F7430026009600F10C08EFF3118962
:1029E800102484F31288BFF36F8F8568694005EA65
:1029F80002070A4055400C4985606A46019501F076
:102A080060F8009C44B1C4F88860656620460021DF
:102A1800246E01F009F8F5E740464946FFF728FC1F
:102A2800384603B0BDE8F083DF3B0008014800F0FA
:102A38001FBB00BFD54400080FB407B5064B04AA56
:102A4800186852F8041B019200F028F803B05DF8EA
:102A580004EB04B0704700BF9C410008F8B50E4B6A
:102A68001D68AB789B07064612D56F6816F8014BB0
:102A780029462CB90A20B847002805DB204609E07A
:102A88002046B8470028F1DAAB7843F00403AB706E
:102A98004FF0FF30F8BD00BF9C4100082DE9F04F12
:102AA8008DB043680293837815469A07804640F1B3
:102AB8000D8100240E78002E00F00A81252E0BD0FF
:102AC8004B1C03930134029B41463046984700282B
:102AD800C0F2F6800399EDE74E788B1C252E039300
:102AE800F0D00027B946BB46BBF11F0F38D8A6F176
:102AF8002003102B0AD8DFE803F02A090930090956
:102B0800092109090928092D09091F00A6F130031F
:102B1800092B33D92A2E37D11BF0400F55F8043B27
:102B280040F08280002BA7BF4BF0200B9946C3F1E1
:102B380000094BF0280B01E04BF0010B039B13F845
:102B4800016B0393002ECFD130E04BF0020B4BF01A
:102B5800040BF3E74BF0080BF0E74BF0100BEDE735
:102B6800BBF17F0F19D8A6F13003092BD2D81BF07F
:102B7800400F03D00A2101FB0737DFE70A2101FBD9
:102B880009394BF0200BD9E72E2E06D11BF0400F48
:102B980040F09E804BF0400BD0E76C2E31D02BD804
:102BA800682E36D06A2E3CD04C2E3AD0002F46F0F4
:102BB8002003B8BF2BF04002A3F16501BCBF1FFA88
:102BC80082FB0027022901D9612B2FD1073525F077
:102BD8000705DFF8ACA2083507271BF0080F66D0F9
:102BE8000AEB070B56465E4563D1A4EB0A0A06EBCF
:102BF8000A02A9EB07096FE1742E9FD07A2E9DD0A7
:102C0800D4E71BF0800F18BF4BF4007B4BF0800B10
:102C180094E71BF4807F18BF4BF4007B4BF4807B58
:102C28008CE74BF4207B89E71F4687E7A6F1630111
:102C3800122900F2F080DFE811F013004F00EE00D7
:102C4800EE00EE00EE004F00EE00EE00EE00EE00AB
:102C5800EE00FE00E900EE00EE001B00EE00AF0003
:102C680055F8043B8DF8183001270DF1180AB4E720
:102C780055F804AB834BBAF1000F08BF9A461BF016
:102C8800400F14BF39464FF0FF31504600F0C5FFE2
:102C98000746A2E7029B41462020984700280FDB01
:102CA800013EB742F6D34C44A41BB14698E74E46C2
:102CB800F7E716F8010B029B41469847002892DA7D
:102CC80098F8023043F0040388F802304FF0FF34DC
:102CD80020460DB0BDE8F08F1BF0800F34D01BF4F8
:102CE800007F2CD0073525F00705AA4669685AF8F1
:102CF800080B2BF010050029ADB237DA404261EB22
:102D0800410145F480650DF1180B0A235A4600F07D
:102D180090FFA0EB0B0301936B0662D5019B25F096
:102D280001019F4289B240F3A180002E00F09980F2
:102D380015F0100240F09C80BB460D4623E0AA46E1
:102D48005AF8040BC117D4E7AA461BF4807F5AF837
:102D5800041B01D10846F5E71BF4007F15BF48B2F4
:102D680008B241F3C01141F3C031C2E750EA010390
:102D7800C9D11BF0400FC6D0002FC4D12BF01102CF
:102D880095B2BB46019740F2064115EA01021CBF05
:102D98000BF1010B00222CE02BF010021FFA82FB32
:102DA8000A231BF0800C49D01BF400711DBF0735A6
:102DB80025F00705AA46AA461ABF5AF8080B6968FB
:102DC8005AF8040B50EA010545D12BF016051BF003
:102DD800400FADB242D0002F40D12BF0170295B270
:102DE800019715F0100248D0019B002E42D103F143
:102DF800010B29075AD4EB0706D5D9456FDD019990
:102E0800A9EB0B035F18CB465B4649E04BF0100B70
:102E180010237826C5E7782B04D1C6F1780343F050
:102E28001003BEE7029B4146252098470028FFF67D
:102E380047AF023447E608230026B2E7AA461BF448
:102E480080715AF8040BBDD01BF400711ABFC0B2D0
:102E5800614680B2B6E72BF0060295B20DF1180B69
:102E680054E725F01105ADB2BB468CE70D46B8E72F
:102E78003B460D4603F1020BBBE7DDF804B082E7E1
:102E88001745000810450008CDE904324146029B69
:102E9800202098470028FFF613AF049B059A0133BA
:102EA8009945F1DCA4EB0B01CC189B460AB3029BB5
:102EB8004146302098470028FFF602AF8EB901340A
:102EC8002744019B391B994224DC1D465DBB019AAE
:102ED800A9EB0B09224455461446914435E0019F5D
:102EE80092E7023441463046029B98470028E7DAC9
:102EF800E6E640F206410D42E2D015F0020F14BF9B
:102F08002B20202015F4806F04F10104414618BFDE
:102F18002D20E9E7029B414630209847002804F11C
:102F28000104CEDACCE606AB013D4146585D029B72
:102F380098470028CADAC3E6029B414620209847F2
:102F4800002804F10104FFF6BBAEA9EB0403002B33
:102F5800F2DCBFE57047034601211B790068994000
:102F680083685B691847F0B4034600681979DB8801
:102F7800066987683468DA0754BF43F4D01383F4CA
:102F8800B01301258D4023F48012DB074CBF2C437E
:102F9800AC4334603B68F0BC184700EBC100408884
:102FA80040087047F8B50346FFF7F7FFB0FA80F01E
:102FB800C0F11F0003EB800CCA00DCF81060171D7D
:102FC8000C4606328DB256B9012101FA00F0D968D3
:102FD8000143D960CCF81040DD539D52F8BDF10093
:102FE8000431585AD85303EBC0009E52C5805D5235
:102FF800F4E7043A2DE9F041CC1D114424F007040C
:1030080021F007010E1BF708B7FA87F2C2F1240571
:10301800AD004FF000080735C2F12002ED0804604A
:103028004146A760C4F80C80920004F1100000F03B
:1030380065FE6B0043F00103638004EBC5027B1B54
:103048005900A4F800805180A21924F83550A2F83C
:103058000280A35304EBC70329465A8842F00102B1
:103068005A802046BDE8F041FFF79CBF002070471A
:103078000FB407B504A951F8040B0191FDF70EFB35
:1030880003B05DF804EB04B070477047012801D124
:10309800EFF30583FEF7EABD01460068FFF7F6BFC8
:1030A80000210120FFF7F2BF61B662B680F31188F4
:1030B800BFF36F8F704772B6002383F31188BFF395
:1030C8006F8FBFF34F8F30BF62B6BFF36F8F7047FC
:1030D800202809D9B0F1004F08D80138B0FA80F09B
:1030E800C0F11F0040007047082070473E2070471D
:1030F80008B5FDF775FF002008BD08B506220121B7
:103108000020FDF7B9FF002211460620FDF760FDFB
:10311800012108460722FDF7AFFF002211460720CC
:10312800FDF756FD082201210220FDF7A5FF002228
:1031380011460820FDF74CFD092201210320FDF767
:103148009BFF002211460920FDF742FD0A220121BA
:103158000420FDF791FF002211460A20FDF738FDF3
:10316800052108461722FDF787FF00221146172080
:10317800FDF72EFD282206210A20FDF77DFF0022FB
:1031880011462820FDF724FD002008BD0B68A3F197
:103198003002782A82B012D803F1804303F50E3347
:1031A80048681A6802431A600B6803F1804303F504
:1031B8000E3300201B680193019B02B070476FF02B
:1031C8008500FAE70B68A3F13002782A9FBF03F164
:1031D800804303F50E3349681A689DBF8A4300206F
:1031E8001A606FF0850070470B68A3F13002782AE7
:1031F8000AD803F1804303F50E331A684B689343EA
:1032080014BF012002207047012B05D0033B022B7D
:103218008CBF0120022070470220704710B50B6850
:10322800012B02D0033B022B21D84A68FF2A1CD06D
:10323800D3B203F1804303F50E33C2F34234186866
:10324800C2F3042204FA02F220EA02021A60496870
:10325800CBB203F1804303F50E33C1F30242186881
:10326800C1F304218A4002431A60002010BD6FF0A8
:103278008500FBE743685B681B690B6000207047AB
:1032880043685B68586942400A4042405A610020DE
:10329800704743685B6800209961704743685B68C2
:1032A800090499610020704743685A6853694B4084
:1032B80053610020704710B503699868F8B18842D7
:1032C80019D1DC6808689860A14200D1D860002054
:1032D80008602AB19A680A60DA68996002B9D96008
:1032E800002010E0814206D108682060D868814239
:1032F800EDD1DC60EBE7044600680028F2D1002A33
:10330800E8D16FF0150010BDF0B54468012067687A
:1033180088401E46C2F3801327EA00078B403B43D0
:10332800636090FAA0F7B7FA87F7D4F808C04FF0AF
:10333800030E7F000EFA07F72CEA070C90FAA0F7A5
:10334800B7FA87F7C2F3C1137F00BB4043EA0C0307
:10335800A36090FAA0F3B3FA83F3E7685B000EFA70
:1033680003F327EA030790FAA0F3B3FA83F302F012
:1033780030055B00C2F341229A403A43202DE260B7
:1033880016D107292BDC90FAA0F3226A2BB3B3FAE3
:1033980083F39B000F2101FA03F322EA030290FA58
:1033A800A0F3B3FA83F39B0006FA03F313432362F3
:1033B80090FAA0F3B3FA83F3226890FAA0F05B00C6
:1033C8000321B0FA80F02D0901FA03F3400022EA44
:1033D800030385401D432560F0BD2B46D9E7030A4A
:1033E800616A93FAA3F282B1B2FA82F292000F27CD
:1033F80093FAA3F3B3FA83F307FA02F29B0021EAE4
:1034080002029E4016436662D2E72A46EEE738B5C6
:10341800044690030D46134617D591070ED55A0753
:103428002ED55022D8060BD542F4007219031AD5AE
:10343800616801234968AB408B610DE01022F1E718
:103448009906F3D542F48062F0E7DA0313D5D8067B
:1034580013D4C3F340139A02606800232946FFF788
:1034680053FF002038BD5B03F6D50121A940204653
:10347800FFF714FFF0E73022EEE74FF40072EBE7B6
:103488006FF08500EEE770B50B46896821B101251C
:103498005E680C68854001B970BD8A682A4002D010
:1034A8004B68304698471CB1236821461C46F2E712
:1034B8002346FAE7F8B51F46044640680E46154607
:1034C800FFF722FF112F07D101212B0501FA06F181
:1034D80004D563685B6899610020F8BD2046FFF752
:1034E800DDFEF9E730B5036813600579046804EB7D
:1034F800C504A34202D36FF0010030BD5C798C4251
:1035080001D00833F0E70020F7E74368C1F34B1018
:103518001B6801F01F01C05801238B40034214BFF0
:103528000123002313700020704710B54368C1F3CE
:103538004B101A6801F01F01845801238B40234364
:103548008350002010BD10B54368C1F34B141868B0
:1035580001F01F01235801228A4023EA0203235065
:10356800002010BD38B504460D46FFF7DEFF29469A
:103578002046FFF7E8FF002038BD82B003680193BA
:10358800019B43680193019B02B0704708B54168ED
:103598000B681A681868C0071868C2F3C00248BFE9
:1035A80042F002028007186848BF42F00402400750
:1035B800186848BF42F02002C00542BF6FF480700F
:1035C80042F008021860D00702D50868FFF7D5FF57
:1035D800930702D50868FFF7D0FF500702D508689F
:1035E800FFF7CBFF930602D50868FFF7C6FF104622
:1035F80008BD43681A6802F10C0353E8003F43F022
:10360800400302F10C0040E800310029F3D1704773
:1036180043681A6802F10C0353E8003F23F04003A3
:1036280002F10C0040E800310029F3D170474368EB
:103638001B68186810F080001CBFD868C0F38010A1
:10364800704743681B681868C0F380107047436868
:103658001A6802F10C0353E8003F43F0200302F11B
:103668000C0040E800310029F3D1704743681A681C
:1036780002F10C0353E8003F23F0200302F10C0091
:1036880040E800310029F3D1704743681B68186887
:10369800C0F34010704743681B681A68910602D54A
:1036A800DA68920607D4186810F0400004D0D86889
:1036B800C0F38010704701207047012070470369EC
:1036C800C3E902127047026993680BB1D1681847C1
:1036D800704708B5002226201146FDF779FABDE8A3
:1036E80008402620FDF766BA37B5036944681868AC
:1036F8008368DB680D46E168F3B101AA98470028A2
:103708001ADB22680198D368192123F40043D36097
:10371800A0FB0101AA00AB0FFCF73AFD6422B0FB45
:10372800F2F102FB11031B0124683233B3FBF2F3FD
:1037380003EB01139BB2A36003B030BD30B5406802
:103748001024026813681B06FCD5EFF3118384F379
:103758001288BFF36F8F026815682D0604D483F3AF
:103768001188BFF36F8FECE7516083F31188BFF3C3
:103778006F8F30BD08B54368186803681A0701D50C
:10378800FFF7FBFE03689B0643BF43680B700020EE
:103798004FF0FF3008BDF8B546683368DC68DB6871
:1037A80014F4805403D013F4C06F13D00024E3B290
:1037B8009A42184603DD35682F68BF0600D4F8BD65
:1037C8006868C854306803681B0701D5FFF7D5FE41
:1037D8000134ECE76FF08500F1E7F0B5466833682F
:1037E800DC68D868E40402D510F4C06F1FD01868EC
:1037F80010F080000FD0EFF31187102383F31288A5
:10380800BFF36F8F0023DCB2A242204604DC87F3AB
:103818001188BFF36F8FF0BD3568D5F800C01CF074
:10382800800F03F10103F2D0085D6860EBE76FF0E9
:103838008500F0E703695B681B680B6043681B68D9
:10384800DB6803F4C063B3F5806F2FD0A3F5C06CB9
:10385800DCF1000343EB0C030B7143681B681B6925
:1038680003F44053B3F5805F22D0B3F5405F21D015
:10387800002B0CBF012303234B7143681B68DA68D4
:10388800DB68D20403F4C06316D5002B14BF0323EE
:1038980004238B7143681B685B6903F44073A3F5C9
:1038A800407253425341CB71002070470223D3E743
:1038B8000023E1E70223DFE7002B14BF02230323E1
:1038C800E7E7704740B1C368587810F001001EBFA1
:1038D8001878B0FA80F040097047EFF3118310238D
:1038E80083F31288BFF36F8FFEE708B5FFF7F5FF84
:1038F80010B5D0E9003433B90020E268537843F0BA
:103908000103537010BD204698470028F4D00028C2
:10391800B8BF4042E368FF28A8BFFF201870ECE753
:1039280000F0ECB900F0DCB908B51024EFF311830E
:1039380084F31288BFF36F8FFFF7BDFBF6E7FEF73E
:10394800A9BCD0E9003213605A600023C0E90033F3
:10395800704708B5FFF7F5FF437B23F00203437375
:103968000023836008BD38B504460D46FEF762FBA8
:10397800637B43F002036373E5B1A5602B689D4246
:1039880009D16B68C4E900531C606C6012E06A6876
:103998009A42F6D01B68002BF3D094F90E2093F9C5
:1039A8000E108A42F3D09142F1DD5A68C4E9003220
:1039B80014605C6038BD10B5EFF31184102383F3F5
:1039C8001288BFF36F8FFEF74DFB84F31188BFF3A6
:1039D8006F8F10BD10B50446183000F094F8EFF35F
:1039E8001181102383F31288BFF36F8F627B1A4013
:1039F80004D081F31188BFF36F8F10BD2046BDE856
:103A08001040FEF763BB08B5EFF31181102282F373
:103A18001288BFF36F8F83680BB1FFF79AFF81F3AA
:103A28001188BFF36F8F08BD38B5EFF311841023E9
:103A380083F31288BFF36F8F90F86C50427B00239A
:103A480080F86C302DB121B184F31188BFF36F8FEA
:103A580038BD12F0280FF7D183680BB1FFF779FF53
:103A6800437B29B903F0FB034373FEF7FBFAEBE74B
:103A780003F0EB03F8E701211838FFF7D5BFEFF3A0
:103A88001181102282F31288BFF36F8F027BD20755
:103A98000CD581F31188BFF36F8F002383F311884E
:103AA800BFF36F8F0423184602DF7047437B1B0761
:103AB80004D581F31188BFF36F8F70470122FEF799
:103AC80005BB2DE9F04105460E461746EFF3118870
:103AD800102383F31288BFF36F8F0468A0420FD1BD
:103AE800002088F31188BFF36F8FBDE8F081394655
:103AF8002046B0470028F4D16B68A342F0D0246870
:103B0800002CF4D1ECE710B5EFF31184102282F306
:103B18001288BFF36F8F03683BB1FEF779FD002071
:103B280084F31188BFF36F8F10BD6FF01500F7E7AE
:103B380008B5FEF78BFE08BDFEF788BE0023C0E976
:103B4800081200F11802C0E90622C0E90033036335
:103B5800436370472DE9F3470646DDE90A9817469F
:103B68000C46E1B102F0010AFEF7A2FC0546EFF3AC
:103B78001181102383F31288BFF36F8FBB0744BFF3
:103B88000023B360B36803EA0402BAF1000F0AD055
:103B980094420AD181F31188BFF36F8F1C402046ED
:103BA80002B0BDE8F087002AF4D159EA080305D12C
:103BB80081F31188BFF36F8F0023EFE7C5E9194739
:103BC8003246CDE9009806F10C00FEF725FB0028E7
:103BD800F2D16B6EE2E710B5846E426E4B68E40773
:103BE80003EA02030BD59A420BD1012380F86C300B
:103BF8000B68036608601830FFF785FF01E0002BAB
:103C0800F3D1002010BD4FF0FF32FEF7E1BE002ACD
:103C18000CBF01220322FFF79DBF10B502460144E5
:103C28008A42134603D01C780132002CF8D1181AA6
:103C380010BDF0B5C3F137070446FFB203F01F0308
:103C48001046082BE6B233D0102B3ED06508A408E6
:103C580044EA817445EAC1752D194FEA910242EB95
:103C68005102290941EA02716D1842EB1212290A20
:103C780041EA02616D1842EB1222290C41EA024125
:103C88006D1842EB1242AD1842F10002EC0844EA0A
:103C98004274D10804EB8402A6EB4205EDB2092D6B
:103CA8000CD90134A5F10A0541F10001EDB212E089
:103CB800E40844EA417406F00705C908303554EAB7
:103CC800010200F8015BBCD1F0BD240944EA01748B
:103CD80006F00F050909092D84BFED19EDB2EDE7CE
:103CE8000A44914200F1FF3300D1704710B511F832
:103CF800014B03F8014F9142F9D110BD024403462C
:103D0800934200D1704703F8011BF9E701480068A6
:083D180070470000CC030020FD
:083D2000ACC4FF7F01000000AC
:103D28002907000800000000F1110008B03D000854
:103D3800150700080000000000000000C43D00084E
:103D4800A1130008783E0008A11300083C3E0008B3
:103D580003310008D83D0008A1130008283E0008D8
:103D6800A1130008643E0008A1130008503E000893
:103D7800A1130008143E0008A1130008003E000823
:103D8800A1130008EC3D00084D1800088C3E0008FF
:103D980051130008000000004D1900080000000041
:083DA8001110000800000000EA
:103DB0002244000800000000180000206B000020D2
:103DC000000000009F440008904200089442000850
:103DD0007D000020000000000444000800000000F6
:103DE0000000000069000020EC0300202F440008C0
:103DF000A0410008404200086D0000206C04002033
:103E00003D440008B4410008404200086F00002013
:103E10007C0400204B440008C841000840420008D0
:103E2000710000208C04002059440008DC41000887
:103E300040420008730000209C04002067440008F2
:103E4000F04100084042000875000020AC0400204A
:103E50007544000804420008404200087700002032
:103E6000BC040020834400081842000840420008B7
:103E700079000020CC040020914400082C42000866
:103E8000404200087B000020DC040020B044000811
:103E9000A4420008F44200087F0000203400002003
:103EA00000000000A930000800000000A930000850
:103EB00000000000A930000800000000A930000840
:103EC00000000000A930000800000000A930000830
:103ED00002440008351000080044000835100008AE
:103EE000FE43000835100008FC43000835100008A8
:103EF000FA4300083510000800000000A93000084F
:103F000000000000A930000800000000A9300008EF
:103F100000000000A930000800000000A9300008DF
:103F200000000000A930000800000000A9300008CF
:103F300000000000A930000800000000A9300008BF
:103F400000000000A930000800000000A9300008AF
:103F500000000000A9300008F843000835100008F0
:103F600000000000A930000800000000A93000088F
:103F700000000000A930000800000000A93000087F
:103F800000000000A930000800000000A93000086F
:103F900000000000A930000800000000A93000085F
:103FA00000000000A930000800000000A93000084F
:103FB00000000000A930000800000000A93000083F
:103FC00000000000A930000800000000A93000082F
:103FD0008C3E0008CF36000800000000A930000821
:103FE000F64300083510000800000000A930000862
:103FF00000000000A930000800000000A9300008FF
:1040000000000000A930000800000000A9300008EE
:1040100000000000A930000800000000A9300008DE
:1040200000000000A930000800000000A9300008CE
:1040300000000000A930000800000000A9300008BE
:1040400000000000A930000800000000A9300008AE
:1040500000000000A930000800000000A93000089E
:1040600000000000A930000800000000A93000088E
:1040700000000000A930000800000000A93000087E
:1040800000000000A930000800000000A93000086E
:1040900000000000A930000800000000A93000085E
:1040A00000000000A930000800000000A93000084E
:1040B00000000000A930000800000000A93000083E
:1040C00000000000A930000800000000A93000082E
:1040D00000000000A930000800000000A93000081E
:1040E00000000000A930000800000000A93000080E
:1040F00000000000A930000800000000A9300008FE
:1041000000000000A930000800000000A9300008ED
:1041100000000000A930000800000000A9300008DD
:1041200000000000A930000800000000A9300008CD
:1041300000000000A930000800000000A9300008BD
:1041400000000000A930000800000000A9300008AD
:1041500044000000004000003C3E00080E0000004B
:104160003C3E00080C0000003C3E00080D00000032
:10417000000000200000000000000B06020000000C
:104180008441000800000008E743000824000207FB
:1041900000000020EF43000820000B110800002061
:1041A000FFFF0000001C024007000000300000007C
:1041B00080000000FFFF0000001802400600000021
:1041C0003000000040000000FFFF0000001402402B
:1041D000050000003000000020000000FFFF00008C
:1041E0000010024004000000300000001000000039
:1041F000FFFF0000000C0240030000003000000040
:1042000008000000FFFF000000080240020000005C
:104210003000000004000000FFFF00000004024026
:10422000010000003000000002000000FFFF00005D
:10423000000002400000000030000000010000000B
:10424000173400087D320008893200089B320008CC
:10425000A5320008B1320008D1130008BF320008AF
:1042600000000000783E0008643E0008503E000850
:104270003C3E0008283E0008143E0008003E0008AE
:10428000EC3D0008000000000000000000000000FD
:104290000038024013350008333500084F35000858
:1042A0006D35000800440040C43D000811040000C2
:1042B000CC420008010000000000000000000000E7
:1042C00000000000D4420008DB3600084000000077
:1042D00000000200DC42000801000000E442000887
:1042E000020000004700000000020000670000001C
:1042F000000000007D3700084537000895350008AC
:104300000D1700083D380008E33700089F37000804
:10431000FB35000819360008373600085736000804
:10432000753600084B360008933600085D15000806
:10433000B91500089F360008C3360008C7360008C4
:10434000283D0008283D0008A03D0008A83D0008C1
:10435000B03D0008B03D00080010000000304F4E96
:10436000004F4646006770696F5F70696E5F746FDB
:1043700067676C655F6474206661696C65642100C1
:104380004C4544332073746174653A2025730A00E8
:104390006770696F5F69735F72656164795F647488
:1043A000206661696C656421006770696F5F706980
:1043B0006E5F636F6E6669677572655F64742066B1
:1043C00061696C656421004C4544302073746174EC
:1043D000653A2025730A004C45443120737461749A
:1043E000653A2025730A00464C4153485F3000531C
:1043F00052414D5F30000A06050504010301020128
:1044000001010001696E746572727570742D636FBD
:104410006E74726F6C6C657240343030313363305F
:1044200030007263634034303032333830300067EC
:1044300070696F40343030323163303000677069FA
:104440006F403430303231383030006770696F403F
:104450003430303231343030006770696F4034307E
:10446000303231303030006770696F403430303274
:1044700030633030006770696F403430303230382C
:104480003030006770696F40343030323034303053
:10449000006770696F403430303230303030007235
:1044A000657365742D636F6E74726F6C6C657200EA
:1044B00073657269616C40343030303434303000B0
:1044C00000000000000000000102030406070809C4
:1044D0006D61696E002A2A2A20426F6F74696E67C7
:1044E000205A6570687972204F53206275696C6438
:1044F0002076332E362E302D333736382D67393629
:1045000031393539666335663262202A2A2A0A0033
:10451000286E756C6C29002A666C6F61742A000025
:10452000753000087107000800000000F93000082D
:10453000000000000000000095310008CD310008A7
:104540000000000079110008F131000800000000AF
:104550002532000800000000440000200000000098
:104560000000000000C20100000103000024F4006C
:10457000500000205000002001FFFFFFFFFFFFFF61
:09458000FFFFFFFFFFFFFFFFFF3B
:104589000000000000000000000000000000000022
:0845990000000000000000001A
:0345A100FFFFFF1A
:0C45A400840000208400002000000000C3
:0445B00015E015E01D
:0400000508000A8D58
:00000001FF
