:020000040800F2
:1000000080110020A5090008750600089109000864
:1000100091090008910900089109000800000000FA
:10002000000000000000000000000000A90A000815
:100030009109000800000000750A00088D180008EA
:10004000290C0008290C0008290C0008290C0008BC
:10005000290C0008290C0008290C0008290C0008AC
:10006000290C0008290C0008290C0008290C00089C
:10007000290C0008290C0008290C0008290C00088C
:10008000290C0008290C0008290C0008290C00087C
:10009000290C0008290C0008290C0008290C00086C
:1000A000290C0008290C0008290C0008290C00085C
:1000B000290C0008290C0008290C0008290C00084C
:1000C000290C0008290C0008290C0008290C00083C
:1000D000290C0008290C0008290C0008290C00082C
:1000E000290C0008290C0008290C0008290C00081C
:1000F000290C0008290C0008290C0008290C00080C
:10010000290C0008290C0008290C0008290C0008FB
:10011000290C0008290C0008290C0008290C0008EB
:10012000290C0008290C0008290C0008290C0008DB
:10013000290C0008290C0008290C0008290C0008CB
:10014000290C0008290C0008290C0008290C0008BB
:10015000290C0008290C0008290C0008290C0008AB
:10016000290C0008290C0008290C0008290C00089B
:10017000290C0008290C0008290C0008290C00088B
:10018000290C0008290C0008290C0008290C00087B
:08019000290C0008290C0008ED
:1001980053B94AB9002908BF00281CBF4FF0FF31E6
:1001A8004FF0FF3000F00CB8ADF1080C6DE904CE4B
:1001B80000F008F8DDF804E0DDE9022304B0704738
:1001C800704700BF2DE9F04786468C460846089ED2
:1001D800154674461946002B40F0C2808542B2FA93
:1001E80082F245D94AB1C2F1200300FA02FC2EFA84
:1001F80003F3954043EA0C0C94404FEA154EA8B21D
:10020800BCFBFEF8230C0EFB18CC08FB00F943EAF4
:100218000C43994528D9EB1808F1FF3704D29945C2
:1002280002D9A8F102072B44A3EB0903A4B2B3FB3C
:10023800FEFC0EFB1C330CFB00F044EA0344A04216
:1002480014D92C190CF1FF3304D2A04202D9ACF115
:1002580002032C44241A43EA07401EB1D440002369
:1002680034607360BDE8F0874746DDE76346F1E731
:1002780092BB431B01214FEA154EAFB2B3FBFEFC04
:10028800200C0EFB1C330CFB07F840EA034398458F
:1002980062D9EB180CF1FF3004D2984502D9ACF1C1
:1002A80002002B44A3EB0803A4B2B3FBFEFC0EFB35
:1002B8001C330CFB07F744EA0344A7424ED92C1918
:1002C8000CF1FF3304D2A74202D9ACF102032C444B
:1002D800E41B43EA0040C0E7C2F1200320FA03F11F
:1002E800954090402EFA03F303434FEA154EAFB200
:1002F800B1FBFEFC0EFB1C10190C0CFB07F841EAC5
:100308000041884504FA02F422D969180CF1FF303B
:1003180004D2884502D9ACF102002944A1EB0801B6
:100328009BB2B1FBFEFC0EFB1C110CFB07F743EA6A
:1003380001439F420ED9EB180CF1FF3104D29F42C2
:1003480002D9ACF102012B44DB1B41EA004192E7E0
:100358006046E3E76146F7E76046A3E76346B7E729
:10036800834206D916B9002108467BE7C6E900E0B2
:10037800F9E7B3FA83F78FB9834201D3724508D8F6
:10038800BEEB020460EB030301209C461EB900216A
:1003980068E73846FAE7C6E9004CF8E7C7F1200CE9
:1003A800BB4022FA0CF41C432EFA0CF120FA0CF391
:1003B800B84001434FEA14490EFA07F5B3FBF9F8C0
:1003C8001FFA84FE09FB18300B0C08FB0EFA43EAEF
:1003D80000439A4502FA07F240D9E31808F1FF30C2
:1003E80004D29A4502D9A8F102002344A3EB0A03D8
:1003F80089B2B3FBF9F809FB183308FB0EFE41EA92
:1004080003418E452CD9611808F1FF3304D28E457B
:1004180002D9A8F10203214443EA0040A0FB029854
:10042800A1EB0E014145CE46434602D306D14D45C8
:1004380004D2B9EB020E68EB04030138002EA6D0F3
:10044800B5EB0E0261EB030101FA0CFC22FA07F38B
:100458004CEA0303F940C6E9003198E74046C5E78E
:100468004346D9E708B501F0D1FA0146094802F038
:1004780046FC094B18681B790121994083685B6920
:100488009847002804DABDE80840044802F03AB961
:1004980008BD00BF3A3E000800000020503E00089A
:1004A80070B5354C204603F054F828B92168334814
:1004B80002F025FC002070BD4FF48031304802F076
:1004C8009EFB014628B122682E48002302F017FC43
:1004D800F0E7A5682369AE698EB11B6813F0010FB8
:1004E80014BF4FF000734FF080634FF0A0722046A6
:1004F800B047014630B1226823480023E6E76FF091
:100508005701F8E72149224B4B60EB6901228A60C9
:100518000BB12046984721681E4C1F48002202F064
:10052800EEFB206850B103F014F82368054650B973
:1005380001461A68194802F0E2FB256000210A20EA
:1005480001F0D6FEFAE7002BF8D04FF40031204630
:1005580002F055FB2379014638B122681048126829
:1005680002F0CDFB00232360E8E721680D48096805
:100578001A4602F0C4FBE1E764390008573E000858
:10058800443C00087D3E0008A63E000838020020D2
:100598006D04000800000020DC3E0008F83E00085A
:1005A8002B3F00085F3F0008014B1B68184700BF3E
:1005B8000800002030B585B004460D461022002101
:1005C800684603F010F902238DF802302A46044BDE
:1005D80001932146684602F0B5F805B030BD00BF6A
:1005E800B1050008014B1860704700BF08000020E3
:1005F80080B505460E461746984601F097FE034615
:1006080003F0FAF8DFF81890044649F8003042463B
:1006180030463946A84754F8090000F0D5F900BF1C
:1006280008000000034A536823F0020353600020C7
:10063800704700BF002004E0064B1A6842F40072BD
:100648001A601A6842F480621A60034B034A1A60FF
:1006580000207047003C0240540000200024F400B1
:10066800014B0360002070474C3C000808B5034B61
:100678001B689847BDE8084000F026B80C00002029
:1006880030BFFFF7FDBF00BF2DE9F0410B4EDFF88B
:10069800308006EB0807CC1B054632460949204640
:1006A80003F093F8A01942460021083C03F09BF898
:1006B8002C6707F10800BDE8F08100BF00000000CA
:1006C800040000003C3C0008074A936893F90E10A8
:1006D800002907DB526993421FBF044A536843F05D
:1006E80080535360704700BF7003002000ED00E0A6
:1006F80070B5264B15469A6A12F0100F9A6A14BF05
:100708001124102412F0080F9A6A18BF12249207B5
:1007180006460AD5586B9A6A140634D519B19A6AEE
:1007280022F080029A62132401E06FF01500174B43
:100738009A6A12F0010F9A6A18BF142412F0200F57
:100748009A6A18BF1524D20602D49B6A9B070AD559
:100758000E4B5B68190506D5314600F017FA10B143
:1007680080F309880224094B9A6A920642BF5A6AA2
:1007780022F400525A629A6A42F0FF029A620023F7
:100788002B70204670BD6FF01500CCE700ED00E03F
:10079800134B9A6A12F0007F9A6A14BF1E201D201C
:1007A80012F0807F9A6A18BF1F2012F4002F9A6AED
:1007B80018BF212012F4802F9A6A18BF222012F441
:1007C800003F9A6A18BF232012F4803F9A6A6FEAA2
:1007D80002426FEA12429A6218BF2420704700BF93
:1007E80000ED00E010B5194B0246986A9C6A10F4B7
:1007F800805F14BF1720162014F4006F9C6A18BF7E
:100808001820A40509D5986B986A000404D51AB174
:100818009A6A22F400429A6219200C4B9A6A12F4DE
:10082800806F9A6A18BF1A20D2050CD49B6A13F4F9
:10083800005F18BF1C20054A936A43F47F43936204
:1008480000230B7010BD1B20F5E700BF00ED00E092
:10085800F0B5484B5B688BB00446C3F3080300252A
:1008680085F31188BFF36F8F02F07F40B0F17F4F9F
:1008780011D102F00C0008280DD010074CBF0C460F
:1008880001250022033B8DF80720032B05D8DFE85C
:1008980003F0246367602C46F3E700239DF80720E4
:1008A800CAB902AE04F1200720686168324603C263
:1008B8000834BC421646F7D1099A002D54D0C2F329
:1008C800080121B96FEA52226FEA4222099202A96D
:1008D800184602F022FA0BB0F0BD264BDA6A9107EF
:1008E800DBD4DA6A002AD8DBDA6A5200D5D55A692D
:1008F800A16942F480725A61BFF34F8FBFF36F8FC3
:100908005A6931F8021C22F480725A61BFF34F8F82
:10091800BFF36F8F4DF6027291420AD09A6AD2B233
:100928004AB10DF1070201212046FFF7E1FE034617
:10093800B4E72368B2E79A6A12F47F4F05D00DF145
:1009480007010120FFF74EFFF1E79B6AB3F5803FEF
:10095800A3D3FFF71DFFEAE70DF107020021E3E744
:100968000DF107010020EDE722F4FF7222F00102E9
:10097800ACE700BF00ED00E0024A536943F0100302
:100988005361704700ED00E0EFF30880EFF3098151
:1009980001B57246FFF75CFF01BD00BF102080F370
:1009A800118808484FF40461401880F30988EFF370
:1009B80014800221084380F31488BFF36F8F00F07E
:1009C800A5F80000C0030020084B9B6883420BD1A8
:1009D800EFF3058343B1064B5A6842F080525A60E0
:1009E8005A6A22F400425A6202F051BE7003002093
:1009F80000ED00E0094A93686FF00A019967084919
:100A080058674B6843F080534B60002383F3118889
:100A1800BFF36F8F9368986F704700BF7003002013
:100A280000ED00E010B50446EFF31183102383F3C3
:100A38001288BFF36F8F0A4B58699860094B4FF0C3
:100A480000625A60084B026F1A600022436F4267C7
:100A580083F31188BFF36F8F00F000F9204610BDB3
:100A68007003002000ED00E0440200200B498A6872
:100A78004FF030001044EFF3098C80E8F01F744603
:100A88007046FFF7CFFFA64604498A6802F1300096
:100A980090E8F01F8CF3098870470000700300206D
:100AA8001EF0040F0CBFEFF30880EFF30980816993
:100AB80011F8021C0229FFD001B502F034F901BD7A
:100AC80040B2002807DB044A4109012300F01F0057
:100AD800834042F82130704700E100E040B200282E
:100AE800A8BF00F1604001F10101B8BF064B4FEA11
:100AF8000111ACBF00F5614000F00F00C9B2B4BFEE
:100B0800195480F80013704714ED00E00F4A08B537
:100B18000F4B22F07F029A60BFF34F8FBFF36F8FA6
:100B2800D3F8882022F47002C3F88820EFF31483E6
:100B380023F0040383F31488BFF36F8F01F0BCF82C
:100B480001F080FC00F060F801F008F900000008EE
:100B580000ED00E042F8203C009B42F81C3C0A49AA
:100B6800019B42F8183C029B42F8143C21F0010119
:100B78004FF0807342F8043C42F8081C0023203AE6
:100B880002654367704700BFF9050008094A034634
:100B9800906870B113F1160F006E05D0A0F14002F5
:100BA8009A4205D8834203D2814228BF0020704769
:100BB800002070477003002008B515460B4A0C4BFF
:100BC8009060026F1A600E4600F048F82C4686F3D3
:100BD80009884FF00000074B984720464FF0000166
:100BE8004FF000024FF00003034C20477003002031
:100BF800440200203F2D0008F9050008014B10228F
:100C08001A61704700ED00E0044800231021C21863
:100C18000133562B82F80013F9D1704700E100E048
:100C280008B5EFF30583064A103B02EBC30152F8FF
:100C3800330049688847BDE80840FFF745BD00BF55
:100C48008C390008024B034A0348012100F076B8AA
:100C580000000220000000204C3C0008026E054BFA
:100C6800403A1A60044A4021C3E90112184601219A
:100C780000F06EB84802002000000B15084AC2F8C0
:100C880098000B6823F01F03034343F01003C2F8D6
:100C98009C308B6843F00103C2F8A030704700BF56
:100CA80000ED00E02DE9F043DFF8608085B00E46E6
:100CB8001F4604464FF00009B14523DA6068D8B1F1
:100CC8003FB1411E08421BD11F2819D92368194278
:100CD80016D12368019302F042F8A36803430393F3
:100CE800D8F89050C5F30725D0B2013DA84207D8DF
:100CF80001A9FFF7C3FF421C09F101090C34DBE726
:100D08006FF01502104605B0BDE8F08300ED00E075
:100D1800044B0522C3F89420BFF34F8FBFF36F8FA6
:100D2800704700BF00ED00E0BFF35F8F024B002269
:100D3800C3F89420704700BF00ED00E010B5034CE5
:100D480001232278FFF7AEFF207010BDA00300201A
:100D580008B50B4A00231278FFF7A4FF10F1160F0D
:100D680007D0084A0021D2F89030C3F307239842ED
:100D780000DB08BDC2F89800C2F8A0100130F2E705
:100D8800A003002000ED00E02DE9FF41524B534C39
:100D9800D3F890302568C3F307239D4200F2998069
:100DA800FFF7C2FF00200C26854218D14C4C4D4F4E
:100DB80025706846FFF754FCDFF81C8106460025BD
:100DC800AE4213D1237844490020D1F89020C2F3D1
:100DD8000722934277DBFFF79BFF00201CE0616846
:100DE80006FB0011FFF74AFF0130DDE7009800EB32
:100DF80005114FEA051CCB683B40B3F5000F50D0F6
:100E08000DD8B3F5001F36D0B3F5800F3ED0B3F53B
:100E1800801F13D06FF0150004B0BDE8F081B3F166
:100E2800807F47D0B3F1007FF4D150F80C30886848
:100E38004A6801F094FF40F4802009E050F80C3033
:100E480088684A6801F08BFF40F0885040F43020F1
:100E5800CDE901230390D8F890302078C3F3072315
:100E6800013B9842D6D801A9FFF708FF2378013340
:100E780023700135A4E750F80C3088684A6801F0FF
:100E88006EFF40F0885040F40020E1E750F80C3045
:100E980088684A6801F063FF40F0E06040F4003081
:100EA800D6E750F80C3088684A6801F058FF40F0DF
:100EB8008270CDE750F80C3088684A6801F04FFF1F
:100EC80040F08870C4E7C1F89830C1F8A000013339
:100ED8007BE74FF0FF309FE700ED00E0583C00084B
:100EE800A00300200000F0FF08B5024B1B689847DC
:100EF800002008BD54020020034B044A1860937870
:100F080043F0020393707047540200201000002041
:100F180008B50649064821F00701C1F1005202F55B
:100F2800003201F0ADFE002008BD00BFC71100204F
:100F3800580200202DE9F0410F4E104F05460024BD
:100F48004FF001082B7853FA84F01F280DDC7269E2
:100F580008FA00F333EA020207D1736157F8303018
:100F68001BB107EBC002516898476A780134E3B2B5
:100F78009A42E7D2BDE8F081003C014064020020BB
:100F8800044B184400230133994200F8012BFADC82
:100F9800704700BF6000002010B4064B06490246A7
:100FA8000C6818560123934023430B6010BCFFF7CD
:100FB80087BD00BF60000020003C01401F2806DC00
:100FC800034901220B68824023EA02030B60704741
:100FD800003C014003292AD8DFE801F0020E141F63
:100FE800134B01229968824021EA02019960D9686D
:100FF80021EA0202DA6070470D4B012299688240AB
:101008001143F3E70A4B0122D96882401143D960A2
:10101800996821EA02029A607047012303FA00F0F6
:10102800034B9A6802439A60DA681043D8607047A5
:10103800003C014030B50A4B53F830408C4204D193
:1010480003EBC0056D68954205D034B943F83010FC
:1010580003EBC0035A60002030BD6FF00F00FBE7C0
:1010680064020020034B002243F8302003EBC00346
:101078005A6070476402002010B51B4B18680B6853
:10108800442B14461DD82F2B05D85A1E042A0DD9D7
:101098006FF0850014E0A3F1300101228A40134962
:1010A8000A420BD1402BF3D1400807E0023B032B47
:1010B80004D8DFE803F00216090F002020600020A2
:1010C80010BDA82BFAD0E3E700F09CF86023800855
:1010D8005843E9E700F096F86023800858438008F1
:1010E800ECE74FF4FA40E9E7540000201101100042
:1010F80070B5404C404D00F09BF800F09BFCA36895
:101108003E4AC3F30313D35C20FA03F613781D4158
:10111800AE4202D2284600F0BBFC236823F48023A9
:101128002360236843F480332360324B1A689203A8
:10113800FCD55A6F42F001025A675A6F9407FCD5E2
:101148009A6802F00C02082A17D11A68900707D487
:101158001A6842F001021A60264A13689907FCD5FA
:10116800244B9A6822F003029A609A6812F00C0FD6
:10117800FBD19A6822F0F0029A601E4C236823F093
:1011880080732360636823F440336360636823F0EB
:10119800706343F08063636000F038F8236843F0BD
:1011A8008073236023689B01FCD5A36823F0F003B8
:1011B800A360A36823F0030343F00203A3600D4C6C
:1011C800A36803F00C03082BFAD1AE4202D32846D9
:1011D80000F05EFC0A4B084A1A60A36823F4E05347
:1011E80043F48053A360A36823F46043A360002002
:1011F80070BD00BF0038024000D8B8055140000853
:10120800540000200048704700127A00054B064938
:101218005A681140054A0A435A605A6822F4403213
:101228005A607047003802400080BFFF0418400031
:10123800064B1A6C42F080521A641B6C82B003F0A1
:1012480080530193019B02B0704700BF00380240F1
:1012580008B5074802F07DF938B10648FFF74CFE9B
:101268000448FFF7BFF9002008BD6FF01200FBE744
:1012780078390008811200080A2838B5074D044655
:1012880004D1AB680D215B6828469847AB680348D2
:101298005B68E1B29847204638BD00BF783900083E
:1012A80038B5036904465860084D284602F051F9DC
:1012B80040B16168AB680C311B682846984700EA62
:1012C800E07038BD6FF01200FBE700BF9C380008E3
:1012D800F7B50C461146B1F5001F476802691D466F
:1012E80024D104F00302043292000F23934043EA0E
:1012F8009403DAB23449023251F82220190C02EA76
:10130800134391FAA1F2B2FA82F2D340BA689A4230
:1013180009D12046FFF752FE2046FFF7A3FE002121
:101328002046FFF757FE002003B0F0BDB1F5800F4F
:1013380041D026492046FFF77DFE00283ED1B5F171
:10134800806F34D0B5F1C06F33D0B5F1007F38D19C
:1013580002261F4ABD6892E803006B4683E8030033
:101368001C488268194612689047C0B904F0030304
:1013780004339B000F229A4042EA9402D3B29B00A6
:1013880003F1804303F59C33110C986820EA12405E
:1013980091FAA1F2B2FA82F2954005439D60204687
:1013A8003146FFF717FE2046FFF7F6FDBBE701269B
:1013B800CFE70326CDE76FF08500B5E76FF00F00A4
:1013C800B2E76FF01500AFE7003801401D310008A3
:1013D8003C3C00089C3800082DE9F0471E4F0446A5
:1013E80000EBC1060025B44201D1002014E02068BA
:1013F800C30600F01F0911D4656845F02005C0F345
:10140800471AC0F343200A2823D857F82080B8F198
:10141800000F0DD16FF01200BDE8F087B9F1100F81
:1014280004D0B9F1110FEAD16568E8E73025E6E79D
:10143800404602F08EF80028ECD04B462A460AF0C7
:101448000F01404601F07DFE002804F10804CADAC5
:10145800E2E76FF01500DFE7403D000842681168D9
:1014680001F1140353E8003F43F0010301F1140CA8
:101478004CE800300028F3D113680E498B4207D09E
:10148800A1F54C418B4203D001F550418B4203D169
:10149800196941F040011961126802F10C0353E81F
:1014A800003F43F4807302F10C0040E8003100294A
:1014B800F3D17047001001404268116801F114032C
:1014C80053E8003F23F0010301F1140C4CE800300D
:1014D8000028F3D113680E498B4207D0A1F54C417F
:1014E8008B4203D001F550418B4203D1196921F099
:1014F80040011961126802F10C0353E8003F23F41C
:10150800807302F10C0040E800310029F3D17047E4
:1015180000100140F8B503690C465E6823794168FC
:10152800012B34D09A1E55425541AD026279022AE8
:101538009CBF354F37F812C0A27988BF4FF4005CC2
:10154800042A27D0003B18BF01231B03E279012A94
:101558000A680CBF4FF440770027A642D1681CD117
:1015680021F4B05129430B43D360136923F440534A
:1015780043EA0C03136143681A68536923F4407300
:101588003B4353613168BDE8F84001F0F4BE4FF4C5
:10159800C065CBE74FF48053D8E701F4C0618D42B2
:1015A8001FBFD16821F4C0612943D1604268116826
:1015B8000A6902F4405294451FBF0A6922F4405256
:1015C80042EA0C020A6142681168CA6802F4805251
:1015D80093421FBFCA6822F480521343CB6043680A
:1015E8001A68536903F440739F421FBF536923F479
:1015F80040733B43536121683368994203D001F03B
:10160800BAFE23683360F8BD343E00082DE9F04186
:1016180003694768D3F804800B790C46012B497994
:10162800A57936D102294FD9042D4AD04FF48056D6
:101638004FF4C06203238B4243D1002E7CD0002A92
:1016480014BF03220422AA423BD1E3796BB1012BD8
:1016580037D13B683B4A934207D0A2F54C429342AC
:1016680003D002F5504293422BD13A68D36823F451
:101678000053D3602146FFF74DFF3A68D36843F41F
:101688000053D36094E8030088E803000020BDE815
:10169800F081022B08D1022921D9042D11D04FF451
:1016A80080624FF48056C5E702290A461FD9042DE7
:1016B80004D133B94FF480561A46BBE763BB0329FC
:1016C800C1D06FF08500E2E71F4A042D32F811C03F
:1016D800F7D04FF4C062033B012B10D8F1E71A4A48
:1016E800042D32F811C0ECD04FF48062F3E7164AAB
:1016F800042D32F811C016D1002BE2D11A464FF44E
:101708008056BCF5805F13D0BCF5405F12D0BCF1A9
:10171800000F8FD101238EE7033B012BD1D9002283
:10172800BFE70022D7E7002BFBD11A461E46E8E7A1
:10173800002380E702237EE7002A14BF0222032247
:1017480081E700BF00100140343E0008F7B5056985
:10175800466804462948286001F0FBFE18B96FF076
:10176800120003B0F0BD2868F16883681B689847C9
:101778000028F6DB306A01AA002101F0FAFC0028F3
:10178800EFDB019B002219791868FFF725FE002876
:10179800E7DB656823692A685F68D36823F4005328
:1017A800D360686801F0D5FE0028D8D0D5E90101DA
:1017B8008368DB6803B198472A6802F10C0353E891
:1017C800003F43F00C0302F10C0040E8003100290F
:1017D800F3D139462046FFF79DFE2B7D23B12A68B9
:1017E800536943F0080353612A68D36843F40053EC
:1017F800D3602046736A98470020B2E79C380008F7
:1018080010B54FF0E0230F499C691A6908689B6975
:101818000D4902F4803234B993B903464AB90A68CB
:101828001044C01A10BD002B08BF03460AB9A342D2
:10183800F5D90A6802440A604FF0E0221269EEE71F
:101848000446F3E768030020640300200A4B1022D3
:1018580083F82320094B4FF416521A60084B0020D6
:1018680018604FF0E02342F27F525A6198611A697A
:1018780042F007021A61704700ED00E0680300209B
:101888006403002010B5FFF7BBFF104B1049D3E9E4
:1018980000420868001942F10002C3E900020D4A3B
:1018A80000230B60D2E900414FF41653001BB0FB34
:1018B800F3F043431B1941F10001C2E9003100F084
:1018C8009BFEBDE81040FEF7FFBE00BF9000002061
:1018D80064030020880000202DE9F041DFF8DC8057
:1018E80099B1421C0BD14FF0E022136923F0010398
:1018F80013614FF07F43C8F80030BDE8F081D8F895
:101908000060012807DC00270BE0431CD8F80060C2
:10191800F7D140F2D26040F2D3639842A8BF18468C
:10192800471EEFF31185102383F31288BFF36F8FDF
:10193800FFF766FF224C4FF0E0239969D4E90023B2
:10194800801843F10003C4E900031E4B00221A600B
:101958001D4B1A68831A2ED44FF4165C0CFB073300
:1019680003F515533F33B3FBFCF7131A0CFB07338E
:10197800B3F5806F154A38BF4FF48063934228BF90
:1019880013464FF0E022C8F80030013B90695361DC
:10199800002393618142A1EB0003D4E9001238BF10
:1019A8009B195B1842F10002C4E9003285F31188E3
:1019B800BFF36F8FA1E74FF48063E2E7680300206D
:1019C80090000020640300208800002000C3FF006E
:1019D80038B5EFF31185102383F31288BFF36F8FA7
:1019E800084B1C68084B1B68E41AFFF709FF85F3CE
:1019F8001188BFF36F8F4FF416532044B0FBF3F0F8
:101A080038BD00BF900000208800002038B5EFF3F3
:101A18001185102383F31288BFF36F8F044B1C6862
:101A2800FFF7EEFE85F31188BFF36F8F204438BDB2
:101A38009000002008B513498B6803F00C03042BB1
:101A48001CD0082B1CD14A684B68496813F48003E2
:101A580014BF0D480D48C1F3881118BF002302F0C8
:101A68003F02A1FB0001FEF793FB064B5B68C3F343
:101A7800014301335B00B0FBF3F008BD0248FCE70B
:101A88000248FAE70038024000127A000024F40005
:101A9800002876D03C4B1A6802F44042B2F5404F19
:101AA80020D13A4A904215D8394A904207D91A6843
:101AB80002F44042B2F5004F5CD102201FE0354AE3
:101AC80090421A6802F4404247D9B2F5004F4CD10F
:101AD800012014E01A6802F44042B2F5004F3FD1E9
:101AE80003200CE01A6802F44042B2F5004F22D1FC
:101AF800274A90423ED8274A90422ED90020224BAE
:101B08001B68012838BF012003F44043B3F5804F18
:101B18001FD0214A136823F0070303431360136897
:101B280003F0070398421CBF136803F00703C01AA9
:101B380018BF012070471B6803F44043B3F5804F7A
:101B48000CD1134B98421AD8124B98424FF0000010
:101B5800DFD9012838BF0120DBE71B680020D8E760
:101B68001B68032003F44043D0E71B68012003F4FB
:101B78004043CBE71B68022003F44043C6E702203A
:101B8800C7E70120704700BF00700040804A5D052C
:101B98000090D00380C3C901003C024038B5EFF380
:101BA8001185102383F31288BFF36F8F064B9C684F
:101BB80001F0E2FC85F31188BFF36F8F2046BDE882
:101BC8003840FEF701BF00BF7003002038B5094B4D
:101BD80053F82040013053F82050A54200D838BDB2
:101BE800636823B1204601F0CAFC0834F5E723688E
:101BF8009847FAE71C3E000870B52A4B2A4C2B4D33
:101C0800012286B003201A70FFF7E0FF00F074FD90
:101C18000420FFF7DBFF2646AE4204F1300410D360
:101C280000F0A8FA204C224EAC4226D300F0B6FAB7
:101C3800FEF736FC1F4A137B23F00103137306B02B
:101C480070BD54F80C3C059354F8103C049354F8B8
:101C5800143C039354F8183C029354F81C3C019329
:101C680054F8203C009354E90A2354E90C0100F08D
:101C7800E1F854F8303C5E65CDE7D4E90A23B3F1C6
:101C8800FF3F08BFB2F1FF3F05D052EA03012068C9
:101C980003D101F09BFC3034C6E73146183000F020
:101CA80031FCF8E7A10300203C3C00083C3C00085C
:101CB8008F3600081801002008B50348034A0021A0
:101CC800121A01F074FC08BD88000020A40300204B
:101CD80070B5002386B00122CDE90423194E1A4DB0
:101CE80001930F22CDE902321849142303FB005552
:101CF80006EBC01604464FF4C070154B00954FF420
:101D0800A07200FB0411304600F094F8737B114A6E
:101D1800EE6023F0040373734FF4046304FB03338E
:101D280013446B600C4B2C74BFF35B8F53E8001F9C
:101D3800013143E80012002AF8D1BFF35B8F06B0E7
:101D480070BD00BF9800002070030020000C002028
:101D5800BF350008C00300206C030020BFB5002079
:101D6800FFF734FF2B4B83F308882B4D2B4E6B6901
:101D78002B4F43F400736B610024F02385F8223065
:101D8800EC772C766C76AC7685F820406B6A43F459
:101D9800E0236B62FEF7F0FDFEF730FF4FF0FF33F4
:101DA800AB62EB62FEF7F0FFFEF74CFF1D4BB36032
:101DB80040F201129A81C3E91844DC6601F0C8FBBD
:101DC8000120FFF703FF0220174DFFF7FFFE00F089
:101DD80005FA164B75610593012315490094CDE961
:101DE80003434FF480623B46CDE90144284600F0A6
:101DF80021F86A7B064622F0040228466A7301F03D
:101E0800F9FB2046FFF764FF3A4631462846FEF7BD
:101E1800D3FE00BF000C002000ED00E0700300209E
:101E2800011C0008980100201801002061400008EA
:101E3800800D00202DE9F043073285B022F007021B
:101E48000E461F461099017300F158037F32C0E90E
:101E580016330446002322F03F02042183604173B5
:101E68003F2A0F98A073C4E90633E37306F14009CB
:101E7800A2F1400805D883F31188BFF36F8F084695
:101E880002DFB51829462046FEF7FEFB07300E9BF9
:101E980020F00700A066C4E9189802930D9B0193EF
:101EA8002D1A0C9B00932A463B4631462046FEF7E6
:101EB80051FE00236365044B9B6803B1DB6EE36648
:101EC800284605B0BDE8F0837003002038B50D4DF5
:101ED8002B4653F8184F9C4200D004B9EC68AB6805
:101EE80038B95A7BD20604D1A26912B9DA897F2A95
:101EF80005D89C4202D0204600F04CFA23466B617C
:101F080038BD00BF7003002008B590F90D20437B51
:101F1800002A014604DA03F07F03437301F058FBFB
:101F2800044B9868431A58425841BDE80840FFF7E7
:101F3800CDBF00BF7003002070B490F90D30427B14
:101F4800002B29DBD30627D183692BBB134962F009
:101F58007F0242730A4652F8184F944218BF23462C
:101F6800CC6923B9C0E900242060C8610CE090F96D
:101F78000E5093F90E60B5420AD0AE4208DD5A6899
:101F8800C0E900321060586070BC0020FFF79EBFA7
:101F98009C42E7D01B68E4E770BC704770030020E0
:101FA8002DE9F041002A427B0E460CBF1021082182
:101FB800114204460FD141EA0203D20918D14373F2
:101FC80008291BD00120FFF781FFBFF35F8F637BD8
:101FD80023F060036373264B9B68A34241D1EFF360
:101FE8000583002B3DD13046BDE8F041FEF702BD28
:101FF80003F07F03437301F0EBFAE1E7A36813B141
:10200800204601F0EDFA04F1180001F062FB04F13A
:1020180058074FF00008A56DBD4200D0A5B9144D72
:10202800AB689C42CED1EFF30583002BCAD00120C8
:10203800FFF74CFF0F4BAB6040F201129A81002270
:10204800C3E91822DA66C0E7284601F0C9FA05F1A3
:10205800180001F03EFBC5F878802846FFF76CFFB2
:10206800D9E786F31188BFF36F8FBDE8F08100BF11
:10207800700300209801002070B590F90D20437B73
:10208800002A014604DA03F07F03437301F0A0FA43
:102098004B7B154A63F07F0310464B7350F8183F8B
:1020A800D469834208BF002323B9C1E90004216031
:1020B800D1610CE091F90E5093F90E60B5420ED043
:1020C800AE420CDD5868C1E9003001605960906883
:1020D800431A5842BDE870405841FFF7F7BE9C428A
:1020E800E3D01B68E0E700BF7003002049B9EFF3B5
:1020F800058030B9054B5A699B689A4201D0FEF7B2
:1021080079BC81F31188BFF36F8F7047700300208B
:1021180010B5EFF31184102282F31288BFF36F8F8A
:10212800427B510704D484F31188BFF36F8F10BD2D
:1021380022F004024273FFF7FFFE21460248BDE881
:102148001040FFF7D3BF00BFA2030020034648B9E1
:10215800EFF3058232B9064A51699268914201D07B
:10216800FEF748BC83F31188BFF36F8F704700BF39
:1021780070030020EFF31181102383F31288BFF35B
:102188006F8F054B9A68D37B013BD37381F311881A
:10219800BFF36F8F704700BF7003002038B5EFF3AF
:1021A8001185102484F31288BFF36F8F0A4B9A6845
:1021B800D37B0133D3730020FFF788FE85F31188A2
:1021C800BFF36F8FEFF3118084F31288BFF36F8F23
:1021D800BDE83840FFF7BABF70030020024B03F197
:1021E8001802C3E90622704770030020F8B5EFF320
:1021F8001185102383F31288BFF36F8F19498868FC
:10220800437B03F07F03437301F0E2F98B685A7B49
:10221800084662F07F025A7350F8182FCC69824240
:1022280008BF002222B9C3E900042360CB610CE097
:1022380093F90E6092F90E70BE420ED0B7420CDDD3
:102248005168C3E900210B6053600120FFF73EFE8F
:102258002846BDE8F840FEF7CDBBA242E3D012689D
:10226800E0E700BF7003002050EA01032DE9F041C8
:1022780005460E4603D1FFF7B9FF00202BE0831C6B
:1022880071F1FF3329DB01F039FA2C18EFF31188CB
:10229800102383F31288BFF36F8F124F124BB86865
:1022A8001860FFF731FEB86810492A4633461830DF
:1022B80000F028F9BA68537B43F010035373404683
:1022C800FEF798FB01F01AFA201A63EB03030128C2
:1022D80073F10003D1DBBDE8F0816FF00104241A2B
:1022E800D4E700BF70030020900300208F36000859
:1022F800B1F1FF3F08BFB0F1FF3F08B506D10A4B67
:10230800986801F086F94FF0FF3008BDFFF7ACFF81
:10231800C11709304FF00A024FF0000341F10001E4
:10232800FDF736FFF1E700BF70030020014B986806
:10233800704700BF70030020044BC01A044BC01044
:102348005843044B01221A54704700BF180200205A
:10235800ABAAAAAAA2030020C3897F2B12D80A4BD2
:102368001B6863B1094B90F90E201B689A4209DB80
:10237800437BDB0606D1064BC31A18BF012303F0C3
:10238800010070470023FAE7980300209403002017
:102398009800002070B50E4B0E4C1E7C06EB4603D1
:1023A80004EBC3040546204601F093F90A4B0022CA
:1023B80028469A55FFF7D0FF48B1084B08491A68D4
:1023C800013A2046D317BDE8704000F09BB870BDB5
:1023D8007003002018020020A203002098030020A8
:1023E8004123000838B5EFF31185102383F31288D1
:1023F800BFF36F8F104B114A9C681068A04206D13A
:10240800FFF7C8FF85F31188BFF36F8F38BD002130
:102418001B7C11600A4AD35C002BF3D02046FFF7DF
:102428009BFF0028EED0637BDB0602D12046FFF736
:1024380023FE2046E4E700BF70030020900300203D
:10244800A203002008B50648064A0749121A01F0F7
:10245800B0F8BDE80840054A0549064801F0A9B8A2
:102468000000002088000020B040000800000000A4
:10247800B040000800000020034B1B680BB9FFF7B1
:10248800A7BA0020704700BF9C03002030B570B188
:102498000B4B5B6898420AD0036843B1D3E9042127
:1024A800D0E90445121941EB0501C3E90421D0E93B
:1024B800003213605A600023C0E9003330BD00BF0A
:1024C8005800002010B50E4B1C689C4204D1FFF741
:1024D800D3FF6FF0004010BDFFF7CEFF002CF8D0FF
:1024E800D4E904321B1A62EBE072B3F1004F72F1C7
:1024F8000001EEDA002AACBF18460020EBE700BF67
:1025080058000020B3F1FF3F08BFB2F1FF3FF8B514
:1025180004461D4616465ED08160EFF311871023EE
:1025280083F31288BFF36F8F013275F1FF3324DA1A
:102538002E49D1E900206FF001039B1A4FF0FF32BA
:1025480062EB00009E1B60EB0500012E70F100039A
:1025580001DA01260020C4E90460254ED6F800C03F
:102568007568B44508BF4FF0000CBCF1000F0DD1E1
:10257800C4E900652C6074601CE0FFF77DFF01363C
:1025880045F10005361845EBE070E4E7DCE9042086
:10259800D4E90431934271EB000E1DDAD21ADCF84B
:1025A800043060EB0100CCE90420C4E900C31C60DE
:1025B800CCF804403368B34209D09C4207D10D4B94
:1025C8001C6824B9FFF77EFF2146FFF785F987F3DA
:1025D8001188BFF36F8FF8BD9B1A61EB0001AC4502
:1025E800C4E90431C4D0DCF800C0BEE730020020E2
:1025F800580000209C0300202DE9F84FEFF3118CC0
:10260800102383F31288BFF36F8FDFF8B0A0DFF8D1
:10261800B0902C4FC9F80000DAF8000000245045AB
:1026280008BF00200025D7E90021D9F80030E0468E
:1026380078B3D0E9046C4FEAE37EB3427EEB0C0B2F
:1026480005DAF61A6CEB0E04C0E9046421E0B2184E
:1026580041EBE671C0E90445C7E90021FFF716FF21
:1026680088F31188BFF36F8F83689847EFF3118859
:10267800102383F31288BFF36F8FD9F80030DAF88C
:1026880000009B1B5045C446C9F80030CBD1D7E9A0
:1026980000219A1841EBE3730024C7E90023C9F825
:1026A8000040FFF70FFF2146FFF716F988F311885E
:1026B800BFF36F8FBDE8F84FFFF794BE58000020B6
:1026C8009C0300203002002010B5EFF31184102382
:1026D80083F31288BFF36F8FFFF7CEFE054A0346D8
:1026E800D2E90001181841EBE37184F31188BFF3B4
:1026F8006F8F10BD30020020014800F000BB00BF02
:1027080066400008F8B50E4B1D68AB789B07064677
:1027180012D56F6816F8014B29462CB90A20B8471C
:10272800002805DB204609E02046B8470028F1DAF2
:10273800AB7843F00403AB704FF0FF30F8BD00BF37
:10274800783C00082DE9F04F8DB0436802938378F8
:1027580015469A07804640F10D8100240E78002E18
:1027680000F00A81252E0BD04B1C03930134029BE9
:102778004146304698470028C0F2F6800399EDE7B5
:102788004E788B1C252E0393F0D00027B946BB4604
:10279800BBF11F0F38D8A6F12003102B0AD8DFE8A9
:1027A80003F02A0909300909092109090928092D0D
:1027B80009091F00A6F13003092B33D92A2E37D176
:1027C8001BF0400F55F8043B40F08280002BA7BF58
:1027D8004BF0200B9946C3F100094BF0280B01E0A0
:1027E8004BF0010B039B13F8016B0393002ECFD121
:1027F80030E04BF0020B4BF0040BF3E74BF0080B07
:10280800F0E74BF0100BEDE7BBF17F0F19D8A6F1FD
:102818003003092BD2D81BF0400F03D00A2101FB4B
:102828000737DFE70A2101FB09394BF0200BD9E70D
:102838002E2E06D11BF0400F40F09E804BF0400B2F
:10284800D0E76C2E31D02BD8682E36D06A2E3CD0EB
:102858004C2E3AD0002F46F02003B8BF2BF0400290
:10286800A3F16501BCBF1FFA82FB0027022901D929
:10287800612B2FD1073525F00705DFF8ACA2083505
:1028880007271BF0080F66D00AEB070B56465E4574
:1028980063D1A4EB0A0A06EB0A02A9EB07096FE168
:1028A800742E9FD07A2E9DD0D4E71BF0800F18BFCE
:1028B8004BF4007B4BF0800B94E71BF4807F18BF30
:1028C8004BF4007B4BF4807B8CE74BF4207B89E74F
:1028D8001F4687E7A6F16301122900F2F080DFE8BE
:1028E80011F013004F00EE00EE00EE00EE004F0076
:1028F800EE00EE00EE00EE00EE00FE00E900EE0055
:10290800EE001B00EE00AF0055F8043B8DF81830C0
:1029180001270DF1180AB4E755F804AB834BBAF157
:10292800000F08BF9A461BF0400F14BF39464FF0FE
:10293800FF31504600F0E6FE0746A2E7029B4146FB
:102948002020984700280FDB013EB742F6D34C44BD
:10295800A41BB14698E74E46F7E716F8010B029B11
:1029680041469847002892DA98F8023043F0040369
:1029780088F802304FF0FF3420460DB0BDE8F08FE4
:102988001BF0800F34D01BF4007F2CD0073525F0C6
:102998000705AA4669685AF8080B2BF010050029A4
:1029A800ADB237DA404261EB410145F480650DF183
:1029B800180B0A235A4600F0B1FEA0EB0B03019353
:1029C8006B0662D5019B25F001019F4289B240F355
:1029D800A180002E00F0998015F0100240F09C8034
:1029E800BB460D4623E0AA465AF8040BC117D4E7A4
:1029F800AA461BF4807F5AF8041B01D10846F5E764
:102A08001BF4007F15BF48B208B241F3C01141F36F
:102A1800C031C2E750EA0103C9D11BF0400FC6D04C
:102A2800002FC4D12BF0110295B2BB46019740F29A
:102A3800064115EA01021CBF0BF1010B00222CE034
:102A48002BF010021FFA82FB0A231BF0800C49D0DE
:102A58001BF400711DBF073525F00705AA46AA46D5
:102A68001ABF5AF8080B69685AF8040B50EA0105AE
:102A780045D12BF016051BF0400FADB242D0002F08
:102A880040D12BF0170295B2019715F0100248D0EB
:102A9800019B002E42D103F1010B29075AD4EB0701
:102AA80006D5D9456FDD0199A9EB0B035F18CB4615
:102AB8005B4649E04BF0100B10237826C5E7782BCE
:102AC80004D1C6F1780343F01003BEE7029B4146E8
:102AD800252098470028FFF647AF023447E6082329
:102AE8000026B2E7AA461BF480715AF8040BBDD041
:102AF8001BF400711ABFC0B2614680B2B6E72BF072
:102B0800060295B20DF1180B54E725F01105ADB288
:102B1800BB468CE70D46B8E73B460D4603F1020B72
:102B2800BBE7DDF804B082E7A8400008A140000830
:102B3800CDE904324146029B202098470028FFF641
:102B480013AF049B059A01339945F1DCA4EB0B0103
:102B5800CC189B460AB3029B414630209847002870
:102B6800FFF602AF8EB901342744019B391B994205
:102B780024DC1D465DBB019AA9EB0B09224455468E
:102B88001446914435E0019F92E7023441463046AD
:102B9800029B98470028E7DAE6E640F206410D4234
:102BA800E2D015F0020F14BF2B20202015F4806FFF
:102BB80004F10104414618BF2D20E9E7029B414674
:102BC80030209847002804F10104CEDACCE606ABA1
:102BD800013D4146585D029B98470028CADAC3E682
:102BE800029B414620209847002804F10104FFF683
:102BF800BBAEA9EB0403002BF2DCBFE5704770B451
:102C080003460C46DA880068197922430569866804
:102C18002B6801248C4012F0010F14BF2343A343F7
:102C28002B60336870BC184700EBC100408840082F
:102C38007047F8B50346FFF7F7FFB0FA80F0C0F128
:102C48001F0003EB800CCA00DCF81060171D0C464F
:102C580006328DB256B9012101FA00F0D968014354
:102C6800D960CCF81040DD539D52F8BDF100043115
:102C7800585AD85303EBC0009E52C5805D52F4E702
:102C8800043A2DE9F041CC1D114424F0070421F049
:102C980007010E1BF708B7FA87F2C2F12405AD0049
:102CA8004FF000080735C2F12002ED0804604146E4
:102CB800A760C4F80C80920004F1100000F093FDA6
:102CC8006B0043F00103638004EBC5027B1B5900D2
:102CD800A4F800805180A21924F83550A2F8028087
:102CE800A35304EBC70329465A8842F001025A80CD
:102CF8002046BDE8F041FFF79CBF002070470FB4A5
:102D080007B504A951F8040B0191FDF753FC03B072
:102D18005DF804EB04B070477047012801D1EFF368
:102D28000583FEF73BBF01460068FFF7F6BF0021A9
:102D38000120FFF7F2BF61B662B680F31188BFF3D6
:102D48006F8F704772B6002383F31188BFF36F8FBC
:102D5800BFF34F8F30BF62B6BFF36F8F7047202825
:102D680009D9B0F1004F08D80138B0FA80F0C0F1A5
:102D78001F0040007047082070473E20704708B584
:102D8800FEF7B2F8002008BD08B506220121002090
:102D9800FEF7F6F8002211460620FDF79FFE0121F6
:102DA80008460722FEF7ECF8002211460720FDF737
:102DB80095FE082201210220FEF7E2F800221146C2
:102DC8000820FDF78BFE092201210320FEF7D8F821
:102DD800002211460920FDF781FE0A220121042064
:102DE800FEF7CEF8002211460A20FDF777FE0521EE
:102DF80008461722FEF7C4F8002211461720FDF7EF
:102E08006DFE282206210A20FEF7BAF80022114694
:102E18002820FDF763FE002008BD0B68A3F13002EF
:102E2800782A82B012D803F1804303F50E3348683C
:102E38001A6802431A600B6803F1804303F50E33E6
:102E480000201B680193019B02B070476FF085005A
:102E5800FAE70B68A3F13002782A9FBF03F1804399
:102E680003F50E3349681A689DBF8A4300201A602B
:102E78006FF0850070470B68A3F13002782A0AD8F2
:102E880003F1804303F50E331A684B68934314BF6C
:102E9800012002207047012B05D0033B022B8CBF79
:102EA8000120022070470220704710B50B68012BE3
:102EB80002D0033B022B21D84A68FF2A1CD0D3B288
:102EC80003F1804303F50E33C2F342341868C2F3AA
:102ED800042204FA02F220EA02021A604968CBB21C
:102EE80003F1804303F50E33C1F302421868C1F3BE
:102EF80004218A4002431A60002010BD6FF085004B
:102F0800FBE743685B681B690B60002070474368F8
:102F18005B68586942400A4042405A610020704745
:102F280043685B6800209961704743685B680904DF
:102F380099610020704743685A6853694B40536150
:102F48000020704710B503699868F8B1884219D114
:102F5800DC6808689860A14200D1D8600020086049
:102F68002AB19A680A60DA68996002B9D9600020C3
:102F780010E0814206D108682060D8688142EDD10E
:102F8800DC60EBE7044600680028F2D1002AE8D1AB
:102F98006FF0150010BDF0B54468012067688840DF
:102FA8001E46C2F3801327EA00078B403B43636049
:102FB80090FAA0F7B7FA87F7D4F808C04FF0030ED5
:102FC8007F000EFA07F72CEA070C90FAA0F7B7FA79
:102FD80087F7C2F3C1137F00BB4043EA0C03A36029
:102FE80090FAA0F3B3FA83F3E7685B000EFA03F3F1
:102FF80027EA030790FAA0F3B3FA83F302F0300547
:103008005B00C2F341229A403A43202DE26016D178
:1030180007292BDC90FAA0F3226A2BB3B3FA83F3C7
:103028009B000F2101FA03F322EA030290FAA0F3AE
:10303800B3FA83F39B0006FA03F31343236290FA6F
:10304800A0F3B3FA83F3226890FAA0F05B0003219F
:10305800B0FA80F02D0901FA03F3400022EA0303D5
:1030680085401D432560F0BD2B46D9E7030A616AF8
:1030780093FAA3F282B1B2FA82F292000F2793FA7E
:10308800A3F3B3FA83F307FA02F29B0021EA0202E0
:103098009E4016436662D2E72A46EEE738B50446F4
:1030A80090030D46134617D591070ED55A072ED50E
:1030B8005022D8060BD542F4007219031AD561685C
:1030C80001234968AB408B610DE01022F1E79906B6
:1030D800F3D542F48062F0E7DA0313D5D80613D4A7
:1030E800C3F340139A02606800232946FFF753FF91
:1030F800002038BD5B03F6D50121A9402046FFF723
:1031080014FFF0E73022EEE74FF40072EBE76FF0C0
:103118008500EEE770B50B46896821B101255E6828
:103128000C68854001B970BD8A682A4002D04B6896
:10313800304698471CB1236821461C46F2E72346CF
:10314800FAE7F8B51F46044640680E461546FFF7ED
:1031580022FF112F07D101212B0501FA06F104D511
:1031680063685B6899610020F8BD2046FFF7DDFEC3
:10317800F9E730B5036813600579046804EBC50402
:10318800A34202D36FF0010030BD5C798C4201D0BC
:103198000833F0E70020F7E74368C1F34B101B68DA
:1031A80001F01F01C05801238B40034214BF0123C3
:1031B800002313700020704710B54368C1F34B100B
:1031C8001A6801F01F01845801238B402343835060
:1031D800002010BD10B54368C1F34B14186801F006
:1031E8001F01235801228A4023EA020323500020AA
:1031F80010BD38B504460D46FFF7DEFF29462046C8
:10320800FFF7E8FF002038BD82B003680193019BF7
:1032180043680193019B02B0704708B541680B6889
:103228001A681868C0071868C2F3C00248BF42F09D
:1032380002028007186848BF42F004024007186875
:1032480048BF42F02002C00542BF6FF4807042F0D0
:1032580008021860D00702D50868FFF7D5FF930762
:1032680002D50868FFF7D0FF500702D50868FFF7B6
:10327800CBFF930602D50868FFF7C6FF104608BDC6
:1032880043681A6802F10C0353E8003F43F0400317
:1032980002F10C0040E800310029F3D1704743687F
:1032A8001A6802F10C0353E8003F23F0400302F1CF
:1032B8000C0040E800310029F3D1704743681B68CF
:1032C800186810F080001CBFD868C0F380107047E1
:1032D80043681B681868C0F38010704743681A6811
:1032E80002F10C0353E8003F43F0200302F10C0005
:1032F80040E800310029F3D1704743681A6802F1A9
:103308000C0353E8003F23F0200302F10C0040E8CF
:1033180000310029F3D1704743681B681868C0F36F
:103328004010704743681B681A68910602D5DA682E
:10333800920607D4186810F0400004D0D868C0F38B
:103348008010704701207047012070470369C3E966
:1033580002127047026993680BB1D1681847704729
:1033680008B5002226201146FDF7B8FBBDE8084045
:103378002620FDF7A5BB37B503694468186883683C
:10338800DB680D46E168F3B101AA984700281ADB0B
:1033980022680198D368192123F40043D360A0FB65
:1033A8000101AA00AB0FFCF7F3FE6422B0FBF2F1B7
:1033B80002FB11031B0124683233B3FBF2F303EB66
:1033C80001139BB2A36003B030BD30B54068102430
:1033D800026813681B06FCD5EFF3118384F3128887
:1033E800BFF36F8F026815682D0604D483F3118824
:1033F800BFF36F8FECE7516083F31188BFF36F8FD2
:1034080030BD08B54368186803681A0701D5FFF787
:10341800FBFE03689B0643BF43680B7000204FF018
:10342800FF3008BDF8B546683368DC68DB6814F41B
:10343800805403D013F4C06F13D00024E3B29A422F
:10344800184603DD35682F68BF0600D4F8BD6868E4
:10345800C854306803681B0701D5FFF7D5FE01344F
:10346800ECE76FF08500F1E7F0B546683368DC6893
:10347800D868E40402D510F4C06F1FD0186810F0A3
:1034880080000FD0EFF31187102383F31288BFF366
:103498006F8F0023DCB2A242204604DC87F3118838
:1034A800BFF36F8FF0BD3568D5F800C01CF0800FF2
:1034B80003F10103F2D0085D6860EBE76FF0850067
:1034C800F0E703695B681B680B6043681B68DB688F
:1034D80003F4C063B3F5806F2FD0A3F5C06CDCF1A3
:1034E800000343EB0C030B7143681B681B6903F46F
:1034F8004053B3F5805F22D0B3F5405F21D0002B55
:103508000CBF012303234B7143681B68DA68DB682F
:10351800D20403F4C06316D5002B14BF032304237D
:103528008B7143681B685B6903F44073A3F54072B1
:1035380053425341CB71002070470223D3E7002345
:10354800E1E70223DFE7002B14BF02230323E7E7A9
:10355800704740B1C368587810F001001EBF187852
:10356800B0FA80F040097047EFF31183102383F31A
:103578001288BFF36F8FFEE708B5FFF7F5FF10B5A8
:10358800D0E9003433B90020E268537843F00103EE
:10359800537010BD204698470028F4D00028B8BFC3
:1035A8004042E368FF28A8BFFF201870ECE700F04E
:1035B8001AB900F00AB908B51024EFF3118384F39F
:1035C8001288BFF36F8FFFF7BDFBF6E7FEF7A0BDCC
:1035D800D0E9003213605A600023C0E90033704715
:1035E80008B5FFF7F5FF437B23F00203437300237D
:1035F800836008BD10B5EFF31184102383F312889C
:10360800BFF36F8FFEF798FC84F31188BFF36F8FB9
:1036180010BD10B50446183000F05BF8EFF31181C7
:10362800102383F31288BFF36F8F627B1A4004D094
:1036380081F31188BFF36F8F10BD2046BDE810409D
:10364800FEF7AEBC38B50446EFF31185102383F3BB
:103658001288BFF36F8F437B13F0280F0BD1836859
:103668000BB1FFF7BDFF637B51B903F0FB03637335
:103678002046FEF761FC85F31188BFF36F8F38BDD4
:1036880003F0EB03F3E701211838FFF7DBBFEFF393
:103698001181102282F31288BFF36F8F027BD20749
:1036A8000CD581F31188BFF36F8F002383F3118842
:1036B800BFF36F8F0423184602DF7047437B1B0755
:1036C80004D581F31188BFF36F8F70470122FEF78D
:1036D80067BC10B5EFF31184102282F31288BFF390
:1036E8006F8F03683BB1FEF7D1FE002084F3118889
:1036F800BFF36F8F10BD6FF01500F7E708B5FEF741
:10370800E3FF08BD10B5024601448A42134603D0C0
:103718001C780132002CF8D1181A10BDF0B5C3F18D
:1037280037070446FFB203F01F031046082BE6B222
:1037380033D0102B3ED06508A40844EA817445EACA
:10374800C1752D194FEA910242EB5102290941EA4C
:1037580002716D1842EB1212290A41EA02616D18D2
:1037680042EB1222290C41EA02416D1842EB124247
:10377800AD1842F10002EC0844EA4274D10804EBA7
:103788008402A6EB4205EDB2092D0CD90134A5F14E
:103798000A0541F10001EDB212E0E40844EA41747F
:1037A80006F00705C908303554EA010200F8015B44
:1037B800BCD1F0BD240944EA017406F00F050909DB
:1037C800092D84BFED19EDB2EDE70A44914200F1ED
:1037D800FF3300D1704710B511F8014B03F8014FC2
:1037E8009142F9D110BD02440346934200D170477B
:1037F80003F8011BF9E70000014800687047000062
:043808004402002056
:08380C00C0C9FF7F01000000AC
:103814004106000800000000F91000089C38000868
:103824002D0600080000000000000000B038000869
:10383400A912000864390008A912000828390008F0
:10384400912D0008C4380008A91200081439000892
:10385400A912000850390008A91200083C390008D0
:10386400A912000800390008A9120008EC38000861
:10387400A9120008D838000855170008783900083C
:10388400591200080000000055180008000000004C
:08389400190F000800000000FC
:10389C00B33F000800000000200000207200002050
:1038AC0000000000304000086C3D0008703D00082E
:1038BC008400002000000000953F0008000000007C
:1038CC00000000007000002064020020C03F0008CF
:1038DC007C3C00081C3D000874000020E402002021
:1038EC00CE3F0008903C00081C3D000876000020EC
:1038FC00F4020020DC3F0008A43C00081C3D00083A
:10390C007800002004030020EA3F0008B83C0008BF
:10391C001C3D00087A00002014030020F83F00082A
:10392C00CC3C00081C3D00087C0000202403002037
:10393C0006400008E03C00081C3D00087E0000200A
:10394C003403002014400008F43C00081C3D00081F
:10395C00800000204403002022400008083D00089D
:10396C001C3D000882000020540300204140000848
:10397C00803D0008D03D0008860000203C0000205F
:10398C0000000000372D000800000000372D000853
:10399C0000000000372D000800000000372D000843
:1039AC0000000000372D000800000000372D000833
:1039BC00933F00083D0F0008913F00083D0F0008A1
:1039CC008F3F00083D0F00088D3F00083D0F000899
:1039DC008B3F00083D0F000800000000372D000849
:1039EC0000000000372D000800000000372D0008F3
:1039FC0000000000372D000800000000372D0008E3
:103A0C0000000000372D000800000000372D0008D2
:103A1C0000000000372D000800000000372D0008C2
:103A2C0000000000372D000800000000372D0008B2
:103A3C0000000000372D0008893F00083D0F0008EA
:103A4C0000000000372D000800000000372D000892
:103A5C0000000000372D000800000000372D000882
:103A6C0000000000372D000800000000372D000872
:103A7C0000000000372D000800000000372D000862
:103A8C0000000000372D000800000000372D000852
:103A9C0000000000372D000800000000372D000842
:103AAC0000000000372D000800000000372D000832
:103ABC00783900085D33000800000000372D00083D
:103ACC00873F00083D0F000800000000372D00085C
:103ADC0000000000372D000800000000372D000802
:103AEC0000000000372D000800000000372D0008F2
:103AFC0000000000372D000800000000372D0008E2
:103B0C0000000000372D000800000000372D0008D1
:103B1C0000000000372D000800000000372D0008C1
:103B2C0000000000372D000800000000372D0008B1
:103B3C0000000000372D000800000000372D0008A1
:103B4C0000000000372D000800000000372D000891
:103B5C0000000000372D000800000000372D000881
:103B6C0000000000372D000800000000372D000871
:103B7C0000000000372D000800000000372D000861
:103B8C0000000000372D000800000000372D000851
:103B9C0000000000372D000800000000372D000841
:103BAC0000000000372D000800000000372D000831
:103BBC0000000000372D000800000000372D000821
:103BCC0000000000372D000800000000372D000811
:103BDC0000000000372D000800000000372D000801
:103BEC0000000000372D000800000000372D0008F1
:103BFC0000000000372D000800000000372D0008E1
:103C0C0000000000372D000800000000372D0008D0
:103C1C0000000000372D000800000000372D0008C0
:103C2C0000000000372D000800000000372D0008B0
:103C3C00440000000040000064390008000000004F
:103C4C00000000200000000000000B060200000035
:103C5C00603C000800000008783F000824000207C0
:103C6C0000000020803F000820000B1110000020F5
:103C7C00FFFF0000001C02400700000030000000A5
:103C8C0080000000FFFF000000180240060000004A
:103C9C003000000040000000FFFF00000014024054
:103CAC00050000003000000020000000FFFF0000B5
:103CBC000010024004000000300000001000000062
:103CCC00FFFF0000000C0240030000003000000069
:103CDC0008000000FFFF0000000802400200000086
:103CEC003000000004000000FFFF00000004024050
:103CFC00010000003000000002000000FFFF000087
:103D0C000000024000000000300000000100000034
:103D1C00A53000080B2F0008172F0008292F0008CA
:103D2C00332F00083F2F0008D91200084D2F000830
:103D3C000000000064390008503900083C390008C4
:103D4C00283900081439000800390008EC3800083C
:103D5C00D83800080000000000000000000000003F
:103D6C0000380240A1310008C1310008DD310008E3
:103D7C00FB31000800440040B0380008110400007A
:103D8C00A83D000801000000000000000000000039
:103D9C0000000000B03D000869330008400000003E
:103DAC0000000200B83D000801000000C03D000802
:103DBC000200000047000000000200006700000045
:103DCC00000000000B340008D33300082332000835
:103DDC0015160008CB340008713400082D34000887
:103DEC0089320008A7320008C5320008E532000805
:103DFC0003330008D9320008213300086514000889
:103E0C00C11400082D330008513300085533000845
:103E1C0014380008143800088C380008943800084E
:103E2C009C3800089C3800080010000000304275D7
:103E3C0074746F6E20707265737365642061742086
:103E4C0025750A004641494C4544004572726F7213
:103E5C003A20627574746F6E2064657669636520B0
:103E6C002573206973206E6F742072656164790A02
:103E7C00004572726F722025643A206661696C6528
:103E8C006420746F20636F6E666967757265202598
:103E9C00732070696E2025640A004572726F72205F
:103EAC0025643A206661696C656420746F20636FC9
:103EBC006E66696775726520696E7465727275706D
:103ECC0074206F6E2025732070696E2025640A00A3
:103EDC0053657420757020627574746F6E206174F4
:103EEC002025732070696E2025640A004572726F5C
:103EFC00722025643A204C454420646576696365DC
:103F0C00202573206973206E6F742072656164794B
:103F1C003B2069676E6F72696E672069740A004591
:103F2C0072726F722025643A206661696C65642038
:103F3C00746F20636F6E666967757265204C4544BB
:103F4C00206465766963652025732070696E202571
:103F5C00640A00536574207570204C4544206174CC
:103F6C002025732070696E2025640A00464C41534D
:103F7C00485F30005352414D5F30000A060505047E
:103F8C00010301020101010001696E746572727511
:103F9C0070742D636F6E74726F6C6C65724034301C
:103FAC00303133633030007263634034303032333D
:103FBC00383030006770696F4034303032316330E4
:103FCC0030006770696F4034303032313830300037
:103FDC006770696F40343030323134303000677084
:103FEC00696F403430303231303030006770696F77
:103FFC00403430303230633030006770696F403499
:10400C0030303230383030006770696F40343030C7
:10401C003230343030006770696F403430303230B9
:10402C003030300072657365742D636F6E74726F0F
:10403C006C6C65720073657269616C403430303041
:10404C003434303000000000000000000001020396
:10405C0004060708096D61696E002A2A2A20426F3E
:10406C006F74696E67205A6570687972204F53209F
:10407C006275696C642076332E362E302D333736CC
:10408C00382D6739363139353966633566326220F9
:10409C002A2A2A0A00286E756C6C29002A666C6F15
:0440AC0061742A0011
:1040B000283900080D000000032D000889060008BB
:1040C00000000000872D0008000000000000000034
:1040D000232E00085B2E000800000000811000085D
:1040E0007F2E000800000000B32E00080000000032
:1040F0004C000020000000000000000000C2010091
:10410000000103000024F4005800002058000020A3
:10411000FFFFFFFFFFFFFFFFFFFFFFFFFFFFFFFFAF
:10412000000000000000000000000000000000008F
:08413000000000000000000087
:0441380015E015E099
:04000005080009A541
:00000001FF
